{
	"ProductContract.sol": {
		"ProductContract": {
			"abi": [
				{
					"inputs": [
						{
							"internalType": "uint256",
							"name": "_id",
							"type": "uint256"
						},
						{
							"internalType": "string",
							"name": "_name",
							"type": "string"
						},
						{
							"internalType": "string",
							"name": "_hash",
							"type": "string"
						}
					],
					"name": "addManufacturer",
					"outputs": [],
					"stateMutability": "nonpayable",
					"type": "function"
				},
				{
					"inputs": [
						{
							"internalType": "uint256",
							"name": "_id",
							"type": "uint256"
						},
						{
							"internalType": "string",
							"name": "_name",
							"type": "string"
						},
						{
							"internalType": "uint256",
							"name": "_manufacturer_id",
							"type": "uint256"
						},
						{
							"internalType": "uint256",
							"name": "_supplier_id",
							"type": "uint256"
						},
						{
							"internalType": "string",
							"name": "_hash",
							"type": "string"
						}
					],
					"name": "addProduct",
					"outputs": [],
					"stateMutability": "nonpayable",
					"type": "function"
				},
				{
					"inputs": [
						{
							"internalType": "uint256",
							"name": "_id",
							"type": "uint256"
						},
						{
							"internalType": "string",
							"name": "_name",
							"type": "string"
						},
						{
							"internalType": "string",
							"name": "_hash",
							"type": "string"
						}
					],
					"name": "addSupplier",
					"outputs": [],
					"stateMutability": "nonpayable",
					"type": "function"
				},
				{
					"inputs": [
						{
							"internalType": "uint256",
							"name": "_product_id",
							"type": "uint256"
						},
						{
							"internalType": "uint256",
							"name": "_transaction_id",
							"type": "uint256"
						},
						{
							"internalType": "string",
							"name": "_transaction_type",
							"type": "string"
						},
						{
							"internalType": "string",
							"name": "_hash",
							"type": "string"
						}
					],
					"name": "addTransaction",
					"outputs": [],
					"stateMutability": "nonpayable",
					"type": "function"
				},
				{
					"inputs": [
						{
							"internalType": "uint256",
							"name": "_id",
							"type": "uint256"
						}
					],
					"name": "deleteManufacturer",
					"outputs": [],
					"stateMutability": "nonpayable",
					"type": "function"
				},
				{
					"inputs": [
						{
							"internalType": "uint256",
							"name": "_id",
							"type": "uint256"
						}
					],
					"name": "deleteProduct",
					"outputs": [],
					"stateMutability": "nonpayable",
					"type": "function"
				},
				{
					"inputs": [
						{
							"internalType": "uint256",
							"name": "_id",
							"type": "uint256"
						}
					],
					"name": "deleteSupplier",
					"outputs": [],
					"stateMutability": "nonpayable",
					"type": "function"
				},
				{
					"inputs": [
						{
							"internalType": "uint256",
							"name": "_product_id",
							"type": "uint256"
						},
						{
							"internalType": "uint256",
							"name": "_transaction_id",
							"type": "uint256"
						}
					],
					"name": "deleteTransaction",
					"outputs": [],
					"stateMutability": "nonpayable",
					"type": "function"
				},
				{
					"inputs": [
						{
							"internalType": "uint256",
							"name": "_id",
							"type": "uint256"
						}
					],
					"name": "getManufacturer",
					"outputs": [
						{
							"components": [
								{
									"internalType": "uint256",
									"name": "id",
									"type": "uint256"
								},
								{
									"internalType": "string",
									"name": "name",
									"type": "string"
								},
								{
									"internalType": "bool",
									"name": "is_deleted",
									"type": "bool"
								},
								{
									"internalType": "string",
									"name": "hash",
									"type": "string"
								}
							],
							"internalType": "struct ProductContract.Manufacturer",
							"name": "",
							"type": "tuple"
						}
					],
					"stateMutability": "view",
					"type": "function"
				},
				{
					"inputs": [
						{
							"internalType": "uint256",
							"name": "_id",
							"type": "uint256"
						}
					],
					"name": "getProduct",
					"outputs": [
						{
							"components": [
								{
									"internalType": "uint256",
									"name": "id",
									"type": "uint256"
								},
								{
									"internalType": "string",
									"name": "name",
									"type": "string"
								},
								{
									"internalType": "uint256",
									"name": "manufacturer_id",
									"type": "uint256"
								},
								{
									"internalType": "uint256",
									"name": "supplier_id",
									"type": "uint256"
								},
								{
									"internalType": "bool",
									"name": "is_deleted",
									"type": "bool"
								},
								{
									"internalType": "string",
									"name": "hash",
									"type": "string"
								}
							],
							"internalType": "struct ProductContract.Product",
							"name": "",
							"type": "tuple"
						}
					],
					"stateMutability": "view",
					"type": "function"
				},
				{
					"inputs": [
						{
							"internalType": "uint256",
							"name": "_id",
							"type": "uint256"
						}
					],
					"name": "getSupplier",
					"outputs": [
						{
							"components": [
								{
									"internalType": "uint256",
									"name": "id",
									"type": "uint256"
								},
								{
									"internalType": "string",
									"name": "name",
									"type": "string"
								},
								{
									"internalType": "bool",
									"name": "is_deleted",
									"type": "bool"
								},
								{
									"internalType": "string",
									"name": "hash",
									"type": "string"
								}
							],
							"internalType": "struct ProductContract.Supplier",
							"name": "",
							"type": "tuple"
						}
					],
					"stateMutability": "view",
					"type": "function"
				},
				{
					"inputs": [
						{
							"internalType": "uint256",
							"name": "_product_id",
							"type": "uint256"
						},
						{
							"internalType": "uint256",
							"name": "_trans_id",
							"type": "uint256"
						}
					],
					"name": "getTransaction",
					"outputs": [
						{
							"components": [
								{
									"internalType": "uint256",
									"name": "id",
									"type": "uint256"
								},
								{
									"internalType": "string",
									"name": "transaction_type",
									"type": "string"
								},
								{
									"internalType": "bool",
									"name": "is_deleted",
									"type": "bool"
								},
								{
									"internalType": "string",
									"name": "hash",
									"type": "string"
								}
							],
							"internalType": "struct ProductContract.Transaction",
							"name": "",
							"type": "tuple"
						}
					],
					"stateMutability": "view",
					"type": "function"
				},
				{
					"inputs": [
						{
							"internalType": "uint256",
							"name": "",
							"type": "uint256"
						}
					],
					"name": "manufacturers",
					"outputs": [
						{
							"internalType": "uint256",
							"name": "id",
							"type": "uint256"
						},
						{
							"internalType": "string",
							"name": "name",
							"type": "string"
						},
						{
							"internalType": "bool",
							"name": "is_deleted",
							"type": "bool"
						},
						{
							"internalType": "string",
							"name": "hash",
							"type": "string"
						}
					],
					"stateMutability": "view",
					"type": "function"
				},
				{
					"inputs": [],
					"name": "owner",
					"outputs": [
						{
							"internalType": "address",
							"name": "",
							"type": "address"
						}
					],
					"stateMutability": "view",
					"type": "function"
				},
				{
					"inputs": [
						{
							"internalType": "uint256",
							"name": "",
							"type": "uint256"
						}
					],
					"name": "products",
					"outputs": [
						{
							"internalType": "uint256",
							"name": "id",
							"type": "uint256"
						},
						{
							"internalType": "string",
							"name": "name",
							"type": "string"
						},
						{
							"internalType": "uint256",
							"name": "manufacturer_id",
							"type": "uint256"
						},
						{
							"internalType": "uint256",
							"name": "supplier_id",
							"type": "uint256"
						},
						{
							"internalType": "bool",
							"name": "is_deleted",
							"type": "bool"
						},
						{
							"internalType": "string",
							"name": "hash",
							"type": "string"
						}
					],
					"stateMutability": "view",
					"type": "function"
				},
				{
					"inputs": [
						{
							"internalType": "uint256",
							"name": "",
							"type": "uint256"
						}
					],
					"name": "suppliers",
					"outputs": [
						{
							"internalType": "uint256",
							"name": "id",
							"type": "uint256"
						},
						{
							"internalType": "string",
							"name": "name",
							"type": "string"
						},
						{
							"internalType": "bool",
							"name": "is_deleted",
							"type": "bool"
						},
						{
							"internalType": "string",
							"name": "hash",
							"type": "string"
						}
					],
					"stateMutability": "view",
					"type": "function"
				},
				{
					"inputs": [
						{
							"internalType": "uint256",
							"name": "_id",
							"type": "uint256"
						},
						{
							"internalType": "string",
							"name": "_name",
							"type": "string"
						},
						{
							"internalType": "string",
							"name": "_hash",
							"type": "string"
						}
					],
					"name": "updateManufacturer",
					"outputs": [],
					"stateMutability": "nonpayable",
					"type": "function"
				},
				{
					"inputs": [
						{
							"internalType": "uint256",
							"name": "_id",
							"type": "uint256"
						},
						{
							"internalType": "string",
							"name": "_name",
							"type": "string"
						},
						{
							"internalType": "uint256",
							"name": "_manufacturer_id",
							"type": "uint256"
						},
						{
							"internalType": "uint256",
							"name": "_supplier_id",
							"type": "uint256"
						},
						{
							"internalType": "string",
							"name": "_hash",
							"type": "string"
						}
					],
					"name": "updateProduct",
					"outputs": [],
					"stateMutability": "nonpayable",
					"type": "function"
				},
				{
					"inputs": [
						{
							"internalType": "uint256",
							"name": "_id",
							"type": "uint256"
						},
						{
							"internalType": "string",
							"name": "_name",
							"type": "string"
						},
						{
							"internalType": "string",
							"name": "_hash",
							"type": "string"
						}
					],
					"name": "updateSupplier",
					"outputs": [],
					"stateMutability": "nonpayable",
					"type": "function"
				},
				{
					"inputs": [
						{
							"internalType": "uint256",
							"name": "_product_id",
							"type": "uint256"
						},
						{
							"internalType": "uint256",
							"name": "_transaction_id",
							"type": "uint256"
						},
						{
							"internalType": "string",
							"name": "_transaction_type",
							"type": "string"
						},
						{
							"internalType": "string",
							"name": "_hash",
							"type": "string"
						}
					],
					"name": "updateTransaction",
					"outputs": [],
					"stateMutability": "nonpayable",
					"type": "function"
				}
			],
			"devdoc": {
				"kind": "dev",
				"methods": {},
				"version": 1
			},
			"evm": {
				"assembly": "    /* \"ProductContract.sol\":57:5413  contract ProductContract {... */\n  mstore(0x40, 0x80)\n    /* \"ProductContract.sol\":116:158  0xa6AE3FA7c22FecC80ebbFADA388808B0aAF707c9 */\n  0xa6ae3fa7c22fecc80ebbfada388808b0aaf707c9\n    /* \"ProductContract.sol\":93:158  address public owner = 0xa6AE3FA7c22FecC80ebbFADA388808B0aAF707c9 */\n  0x00\n  dup1\n  0x0100\n  exp\n  dup2\n  sload\n  dup2\n  0xffffffffffffffffffffffffffffffffffffffff\n  mul\n  not\n  and\n  swap1\n  dup4\n  0xffffffffffffffffffffffffffffffffffffffff\n  and\n  mul\n  or\n  swap1\n  sstore\n  pop\n    /* \"ProductContract.sol\":57:5413  contract ProductContract {... */\n  callvalue\n  dup1\n  iszero\n  tag_1\n  jumpi\n  0x00\n  dup1\n  revert\ntag_1:\n  pop\n  dataSize(sub_0)\n  dup1\n  dataOffset(sub_0)\n  0x00\n  codecopy\n  0x00\n  return\nstop\n\nsub_0: assembly {\n        /* \"ProductContract.sol\":57:5413  contract ProductContract {... */\n      mstore(0x40, 0x80)\n      callvalue\n      dup1\n      iszero\n      tag_1\n      jumpi\n      0x00\n      dup1\n      revert\n    tag_1:\n      pop\n      jumpi(tag_2, lt(calldatasize, 0x04))\n      shr(0xe0, calldataload(0x00))\n      dup1\n      0xb527fb79\n      gt\n      tag_23\n      jumpi\n      dup1\n      0xe61cffed\n      gt\n      tag_24\n      jumpi\n      dup1\n      0xe61cffed\n      eq\n      tag_18\n      jumpi\n      dup1\n      0xe8d0aa01\n      eq\n      tag_19\n      jumpi\n      dup1\n      0xed90c7b7\n      eq\n      tag_20\n      jumpi\n      dup1\n      0xf8e61565\n      eq\n      tag_21\n      jumpi\n      dup1\n      0xfea9e20a\n      eq\n      tag_22\n      jumpi\n      jump(tag_2)\n    tag_24:\n      dup1\n      0xb527fb79\n      eq\n      tag_13\n      jumpi\n      dup1\n      0xb9db15b4\n      eq\n      tag_14\n      jumpi\n      dup1\n      0xba9d1d31\n      eq\n      tag_15\n      jumpi\n      dup1\n      0xcea23121\n      eq\n      tag_16\n      jumpi\n      dup1\n      0xe0620e1d\n      eq\n      tag_17\n      jumpi\n      jump(tag_2)\n    tag_23:\n      dup1\n      0x7303f6ce\n      gt\n      tag_25\n      jumpi\n      dup1\n      0x7303f6ce\n      eq\n      tag_8\n      jumpi\n      dup1\n      0x7acc0b20\n      eq\n      tag_9\n      jumpi\n      dup1\n      0x8349a766\n      eq\n      tag_10\n      jumpi\n      dup1\n      0x8da5cb5b\n      eq\n      tag_11\n      jumpi\n      dup1\n      0x90175af1\n      eq\n      tag_12\n      jumpi\n      jump(tag_2)\n    tag_25:\n      dup1\n      0x05a1a54a\n      eq\n      tag_3\n      jumpi\n      dup1\n      0x05d3d366\n      eq\n      tag_4\n      jumpi\n      dup1\n      0x2afad5f6\n      eq\n      tag_5\n      jumpi\n      dup1\n      0x2ba79998\n      eq\n      tag_6\n      jumpi\n      dup1\n      0x524f3f4a\n      eq\n      tag_7\n      jumpi\n    tag_2:\n      0x00\n      dup1\n      revert\n        /* \"ProductContract.sol\":3234:3444  function deleteManufacturer(uint _id) public onlyOwner {... */\n    tag_3:\n      tag_26\n      0x04\n      dup1\n      calldatasize\n      sub\n      dup2\n      add\n      swap1\n      tag_27\n      swap2\n      swap1\n      tag_28\n      jump\t// in\n    tag_27:\n      tag_29\n      jump\t// in\n    tag_26:\n      stop\n        /* \"ProductContract.sol\":2525:2719  function deleteSupplier(uint _id) public onlyOwner {... */\n    tag_4:\n      tag_30\n      0x04\n      dup1\n      calldatasize\n      sub\n      dup2\n      add\n      swap1\n      tag_31\n      swap2\n      swap1\n      tag_28\n      jump\t// in\n    tag_31:\n      tag_32\n      jump\t// in\n    tag_30:\n      stop\n        /* \"ProductContract.sol\":3855:4384  function updateTransaction(uint _product_id, uint _transaction_id, string memory _transaction_type, string memory _hash) public onlyOwner {... */\n    tag_5:\n      tag_33\n      0x04\n      dup1\n      calldatasize\n      sub\n      dup2\n      add\n      swap1\n      tag_34\n      swap2\n      swap1\n      tag_35\n      jump\t// in\n    tag_34:\n      tag_36\n      jump\t// in\n    tag_33:\n      stop\n        /* \"ProductContract.sol\":3488:3845  function addTransaction(uint _product_id, uint _transaction_id, string memory _transaction_type, string memory _hash) public onlyOwner {... */\n    tag_6:\n      tag_37\n      0x04\n      dup1\n      calldatasize\n      sub\n      dup2\n      add\n      swap1\n      tag_38\n      swap2\n      swap1\n      tag_35\n      jump\t// in\n    tag_38:\n      tag_39\n      jump\t// in\n    tag_37:\n      stop\n        /* \"ProductContract.sol\":2944:3224  function updateManufacturer(uint _id, string memory _name, string memory _hash) public onlyOwner {... */\n    tag_7:\n      tag_40\n      0x04\n      dup1\n      calldatasize\n      sub\n      dup2\n      add\n      swap1\n      tag_41\n      swap2\n      swap1\n      tag_42\n      jump\t// in\n    tag_41:\n      tag_43\n      jump\t// in\n    tag_40:\n      stop\n        /* \"ProductContract.sol\":5245:5411  function getTransaction(uint _product_id, uint _trans_id) public view returns (Transaction memory) {... */\n    tag_8:\n      tag_44\n      0x04\n      dup1\n      calldatasize\n      sub\n      dup2\n      add\n      swap1\n      tag_45\n      swap2\n      swap1\n      tag_46\n      jump\t// in\n    tag_45:\n      tag_47\n      jump\t// in\n    tag_44:\n      mload(0x40)\n      tag_48\n      swap2\n      swap1\n      tag_49\n      jump\t// in\n    tag_48:\n      mload(0x40)\n      dup1\n      swap2\n      sub\n      swap1\n      return\n        /* \"ProductContract.sol\":896:936  mapping(uint => Product) public products */\n    tag_9:\n      tag_50\n      0x04\n      dup1\n      calldatasize\n      sub\n      dup2\n      add\n      swap1\n      tag_51\n      swap2\n      swap1\n      tag_28\n      jump\t// in\n    tag_51:\n      tag_52\n      jump\t// in\n    tag_50:\n      mload(0x40)\n      tag_53\n      swap7\n      swap6\n      swap5\n      swap4\n      swap3\n      swap2\n      swap1\n      tag_54\n      jump\t// in\n    tag_53:\n      mload(0x40)\n      dup1\n      swap2\n      sub\n      swap1\n      return\n        /* \"ProductContract.sol\":2764:2934  function addManufacturer(uint _id, string memory _name, string memory _hash) public onlyOwner {... */\n    tag_10:\n      tag_55\n      0x04\n      dup1\n      calldatasize\n      sub\n      dup2\n      add\n      swap1\n      tag_56\n      swap2\n      swap1\n      tag_42\n      jump\t// in\n    tag_56:\n      tag_57\n      jump\t// in\n    tag_55:\n      stop\n        /* \"ProductContract.sol\":93:158  address public owner = 0xa6AE3FA7c22FecC80ebbFADA388808B0aAF707c9 */\n    tag_11:\n      tag_58\n      tag_59\n      jump\t// in\n    tag_58:\n      mload(0x40)\n      tag_60\n      swap2\n      swap1\n      tag_61\n      jump\t// in\n    tag_60:\n      mload(0x40)\n      dup1\n      swap2\n      sub\n      swap1\n      return\n        /* \"ProductContract.sol\":990:1040  mapping(uint => Manufacturer) public manufacturers */\n    tag_12:\n      tag_62\n      0x04\n      dup1\n      calldatasize\n      sub\n      dup2\n      add\n      swap1\n      tag_63\n      swap2\n      swap1\n      tag_28\n      jump\t// in\n    tag_63:\n      tag_64\n      jump\t// in\n    tag_62:\n      mload(0x40)\n      tag_65\n      swap5\n      swap4\n      swap3\n      swap2\n      swap1\n      tag_66\n      jump\t// in\n    tag_65:\n      mload(0x40)\n      dup1\n      swap2\n      sub\n      swap1\n      return\n        /* \"ProductContract.sol\":5081:5200  function getManufacturer(uint _id) public view returns (Manufacturer memory) {... */\n    tag_13:\n      tag_67\n      0x04\n      dup1\n      calldatasize\n      sub\n      dup2\n      add\n      swap1\n      tag_68\n      swap2\n      swap1\n      tag_28\n      jump\t// in\n    tag_68:\n      tag_69\n      jump\t// in\n    tag_67:\n      mload(0x40)\n      tag_70\n      swap2\n      swap1\n      tag_71\n      jump\t// in\n    tag_70:\n      mload(0x40)\n      dup1\n      swap2\n      sub\n      swap1\n      return\n        /* \"ProductContract.sol\":4850:4954  function getProduct(uint _id) public view returns (Product memory) {... */\n    tag_14:\n      tag_72\n      0x04\n      dup1\n      calldatasize\n      sub\n      dup2\n      add\n      swap1\n      tag_73\n      swap2\n      swap1\n      tag_28\n      jump\t// in\n    tag_73:\n      tag_74\n      jump\t// in\n    tag_72:\n      mload(0x40)\n      tag_75\n      swap2\n      swap1\n      tag_76\n      jump\t// in\n    tag_75:\n      mload(0x40)\n      dup1\n      swap2\n      sub\n      swap1\n      return\n        /* \"ProductContract.sol\":2255:2515  function updateSupplier(uint _id, string memory _name, string memory _hash) public onlyOwner {... */\n    tag_15:\n      tag_77\n      0x04\n      dup1\n      calldatasize\n      sub\n      dup2\n      add\n      swap1\n      tag_78\n      swap2\n      swap1\n      tag_42\n      jump\t// in\n    tag_78:\n      tag_79\n      jump\t// in\n    tag_77:\n      stop\n        /* \"ProductContract.sol\":942:984  mapping(uint => Supplier) public suppliers */\n    tag_16:\n      tag_80\n      0x04\n      dup1\n      calldatasize\n      sub\n      dup2\n      add\n      swap1\n      tag_81\n      swap2\n      swap1\n      tag_28\n      jump\t// in\n    tag_81:\n      tag_82\n      jump\t// in\n    tag_80:\n      mload(0x40)\n      tag_83\n      swap5\n      swap4\n      swap3\n      swap2\n      swap1\n      tag_66\n      jump\t// in\n    tag_83:\n      mload(0x40)\n      dup1\n      swap2\n      sub\n      swap1\n      return\n        /* \"ProductContract.sol\":4964:5071  function getSupplier(uint _id) public view returns (Supplier memory) {... */\n    tag_17:\n      tag_84\n      0x04\n      dup1\n      calldatasize\n      sub\n      dup2\n      add\n      swap1\n      tag_85\n      swap2\n      swap1\n      tag_28\n      jump\t// in\n    tag_85:\n      tag_86\n      jump\t// in\n    tag_84:\n      mload(0x40)\n      tag_87\n      swap2\n      swap1\n      tag_88\n      jump\t// in\n    tag_87:\n      mload(0x40)\n      dup1\n      swap2\n      sub\n      swap1\n      return\n        /* \"ProductContract.sol\":1202:1431  function addProduct(uint _id, string memory _name, uint _manufacturer_id, uint _supplier_id, string memory _hash) public onlyOwner {... */\n    tag_18:\n      tag_89\n      0x04\n      dup1\n      calldatasize\n      sub\n      dup2\n      add\n      swap1\n      tag_90\n      swap2\n      swap1\n      tag_91\n      jump\t// in\n    tag_90:\n      tag_92\n      jump\t// in\n    tag_89:\n      stop\n        /* \"ProductContract.sol\":1441:1846  function updateProduct(uint _id, string memory _name, uint _manufacturer_id, uint _supplier_id, string memory _hash) public onlyOwner {... */\n    tag_19:\n      tag_93\n      0x04\n      dup1\n      calldatasize\n      sub\n      dup2\n      add\n      swap1\n      tag_94\n      swap2\n      swap1\n      tag_91\n      jump\t// in\n    tag_94:\n      tag_95\n      jump\t// in\n    tag_93:\n      stop\n        /* \"ProductContract.sol\":1856:2046  function deleteProduct(uint _id) public onlyOwner {... */\n    tag_20:\n      tag_96\n      0x04\n      dup1\n      calldatasize\n      sub\n      dup2\n      add\n      swap1\n      tag_97\n      swap2\n      swap1\n      tag_28\n      jump\t// in\n    tag_97:\n      tag_98\n      jump\t// in\n    tag_96:\n      stop\n        /* \"ProductContract.sol\":4394:4778  function deleteTransaction(uint _product_id, uint _transaction_id) public onlyOwner {... */\n    tag_21:\n      tag_99\n      0x04\n      dup1\n      calldatasize\n      sub\n      dup2\n      add\n      swap1\n      tag_100\n      swap2\n      swap1\n      tag_46\n      jump\t// in\n    tag_100:\n      tag_101\n      jump\t// in\n    tag_99:\n      stop\n        /* \"ProductContract.sol\":2087:2245  function addSupplier(uint _id, string memory _name, string memory _hash) public onlyOwner {... */\n    tag_22:\n      tag_102\n      0x04\n      dup1\n      calldatasize\n      sub\n      dup2\n      add\n      swap1\n      tag_103\n      swap2\n      swap1\n      tag_42\n      jump\t// in\n    tag_103:\n      tag_104\n      jump\t// in\n    tag_102:\n      stop\n        /* \"ProductContract.sol\":3234:3444  function deleteManufacturer(uint _id) public onlyOwner {... */\n    tag_29:\n        /* \"ProductContract.sol\":270:275  owner */\n      0x00\n      dup1\n      sload\n      swap1\n      0x0100\n      exp\n      swap1\n      div\n      0xffffffffffffffffffffffffffffffffffffffff\n      and\n        /* \"ProductContract.sol\":256:275  msg.sender == owner */\n      0xffffffffffffffffffffffffffffffffffffffff\n      and\n        /* \"ProductContract.sol\":256:266  msg.sender */\n      caller\n        /* \"ProductContract.sol\":256:275  msg.sender == owner */\n      0xffffffffffffffffffffffffffffffffffffffff\n      and\n      eq\n        /* \"ProductContract.sol\":248:326  require(msg.sender == owner, \"Only contract owner can perform this operation\") */\n      tag_106\n      jumpi\n      mload(0x40)\n      0x08c379a000000000000000000000000000000000000000000000000000000000\n      dup2\n      mstore\n      0x04\n      add\n      tag_107\n      swap1\n      tag_108\n      jump\t// in\n    tag_107:\n      mload(0x40)\n      dup1\n      swap2\n      sub\n      swap1\n      revert\n    tag_106:\n        /* \"ProductContract.sol\":3308:3321  manufacturers */\n      0x03\n        /* \"ProductContract.sol\":3308:3326  manufacturers[_id] */\n      0x00\n        /* \"ProductContract.sol\":3322:3325  _id */\n      dup3\n        /* \"ProductContract.sol\":3308:3326  manufacturers[_id] */\n      dup2\n      mstore\n      0x20\n      add\n      swap1\n      dup2\n      mstore\n      0x20\n      add\n      0x00\n      keccak256\n        /* \"ProductContract.sol\":3308:3337  manufacturers[_id].is_deleted */\n      0x02\n      add\n      0x00\n      swap1\n      sload\n      swap1\n      0x0100\n      exp\n      swap1\n      div\n      0xff\n      and\n        /* \"ProductContract.sol\":3307:3337  !manufacturers[_id].is_deleted */\n      iszero\n        /* \"ProductContract.sol\":3299:3391  require(!manufacturers[_id].is_deleted, \"Manufacturer does not exist or is already deleted\") */\n      tag_110\n      jumpi\n      mload(0x40)\n      0x08c379a000000000000000000000000000000000000000000000000000000000\n      dup2\n      mstore\n      0x04\n      add\n      tag_111\n      swap1\n      tag_112\n      jump\t// in\n    tag_111:\n      mload(0x40)\n      dup1\n      swap2\n      sub\n      swap1\n      revert\n    tag_110:\n        /* \"ProductContract.sol\":3433:3437  true */\n      0x01\n        /* \"ProductContract.sol\":3401:3414  manufacturers */\n      0x03\n        /* \"ProductContract.sol\":3401:3419  manufacturers[_id] */\n      0x00\n        /* \"ProductContract.sol\":3415:3418  _id */\n      dup4\n        /* \"ProductContract.sol\":3401:3419  manufacturers[_id] */\n      dup2\n      mstore\n      0x20\n      add\n      swap1\n      dup2\n      mstore\n      0x20\n      add\n      0x00\n      keccak256\n        /* \"ProductContract.sol\":3401:3430  manufacturers[_id].is_deleted */\n      0x02\n      add\n      0x00\n        /* \"ProductContract.sol\":3401:3437  manufacturers[_id].is_deleted = true */\n      0x0100\n      exp\n      dup2\n      sload\n      dup2\n      0xff\n      mul\n      not\n      and\n      swap1\n      dup4\n      iszero\n      iszero\n      mul\n      or\n      swap1\n      sstore\n      pop\n        /* \"ProductContract.sol\":3234:3444  function deleteManufacturer(uint _id) public onlyOwner {... */\n      pop\n      jump\t// out\n        /* \"ProductContract.sol\":2525:2719  function deleteSupplier(uint _id) public onlyOwner {... */\n    tag_32:\n        /* \"ProductContract.sol\":270:275  owner */\n      0x00\n      dup1\n      sload\n      swap1\n      0x0100\n      exp\n      swap1\n      div\n      0xffffffffffffffffffffffffffffffffffffffff\n      and\n        /* \"ProductContract.sol\":256:275  msg.sender == owner */\n      0xffffffffffffffffffffffffffffffffffffffff\n      and\n        /* \"ProductContract.sol\":256:266  msg.sender */\n      caller\n        /* \"ProductContract.sol\":256:275  msg.sender == owner */\n      0xffffffffffffffffffffffffffffffffffffffff\n      and\n      eq\n        /* \"ProductContract.sol\":248:326  require(msg.sender == owner, \"Only contract owner can perform this operation\") */\n      tag_114\n      jumpi\n      mload(0x40)\n      0x08c379a000000000000000000000000000000000000000000000000000000000\n      dup2\n      mstore\n      0x04\n      add\n      tag_115\n      swap1\n      tag_108\n      jump\t// in\n    tag_115:\n      mload(0x40)\n      dup1\n      swap2\n      sub\n      swap1\n      revert\n    tag_114:\n        /* \"ProductContract.sol\":2595:2604  suppliers */\n      0x02\n        /* \"ProductContract.sol\":2595:2609  suppliers[_id] */\n      0x00\n        /* \"ProductContract.sol\":2605:2608  _id */\n      dup3\n        /* \"ProductContract.sol\":2595:2609  suppliers[_id] */\n      dup2\n      mstore\n      0x20\n      add\n      swap1\n      dup2\n      mstore\n      0x20\n      add\n      0x00\n      keccak256\n        /* \"ProductContract.sol\":2595:2620  suppliers[_id].is_deleted */\n      0x02\n      add\n      0x00\n      swap1\n      sload\n      swap1\n      0x0100\n      exp\n      swap1\n      div\n      0xff\n      and\n        /* \"ProductContract.sol\":2594:2620  !suppliers[_id].is_deleted */\n      iszero\n        /* \"ProductContract.sol\":2586:2670  require(!suppliers[_id].is_deleted, \"Supplier does not exist or is already deleted\") */\n      tag_117\n      jumpi\n      mload(0x40)\n      0x08c379a000000000000000000000000000000000000000000000000000000000\n      dup2\n      mstore\n      0x04\n      add\n      tag_118\n      swap1\n      tag_119\n      jump\t// in\n    tag_118:\n      mload(0x40)\n      dup1\n      swap2\n      sub\n      swap1\n      revert\n    tag_117:\n        /* \"ProductContract.sol\":2708:2712  true */\n      0x01\n        /* \"ProductContract.sol\":2680:2689  suppliers */\n      0x02\n        /* \"ProductContract.sol\":2680:2694  suppliers[_id] */\n      0x00\n        /* \"ProductContract.sol\":2690:2693  _id */\n      dup4\n        /* \"ProductContract.sol\":2680:2694  suppliers[_id] */\n      dup2\n      mstore\n      0x20\n      add\n      swap1\n      dup2\n      mstore\n      0x20\n      add\n      0x00\n      keccak256\n        /* \"ProductContract.sol\":2680:2705  suppliers[_id].is_deleted */\n      0x02\n      add\n      0x00\n        /* \"ProductContract.sol\":2680:2712  suppliers[_id].is_deleted = true */\n      0x0100\n      exp\n      dup2\n      sload\n      dup2\n      0xff\n      mul\n      not\n      and\n      swap1\n      dup4\n      iszero\n      iszero\n      mul\n      or\n      swap1\n      sstore\n      pop\n        /* \"ProductContract.sol\":2525:2719  function deleteSupplier(uint _id) public onlyOwner {... */\n      pop\n      jump\t// out\n        /* \"ProductContract.sol\":3855:4384  function updateTransaction(uint _product_id, uint _transaction_id, string memory _transaction_type, string memory _hash) public onlyOwner {... */\n    tag_36:\n        /* \"ProductContract.sol\":270:275  owner */\n      0x00\n      dup1\n      sload\n      swap1\n      0x0100\n      exp\n      swap1\n      div\n      0xffffffffffffffffffffffffffffffffffffffff\n      and\n        /* \"ProductContract.sol\":256:275  msg.sender == owner */\n      0xffffffffffffffffffffffffffffffffffffffff\n      and\n        /* \"ProductContract.sol\":256:266  msg.sender */\n      caller\n        /* \"ProductContract.sol\":256:275  msg.sender == owner */\n      0xffffffffffffffffffffffffffffffffffffffff\n      and\n      eq\n        /* \"ProductContract.sol\":248:326  require(msg.sender == owner, \"Only contract owner can perform this operation\") */\n      tag_121\n      jumpi\n      mload(0x40)\n      0x08c379a000000000000000000000000000000000000000000000000000000000\n      dup2\n      mstore\n      0x04\n      add\n      tag_122\n      swap1\n      tag_108\n      jump\t// in\n    tag_122:\n      mload(0x40)\n      dup1\n      swap2\n      sub\n      swap1\n      revert\n    tag_121:\n        /* \"ProductContract.sol\":4012:4020  products */\n      0x01\n        /* \"ProductContract.sol\":4012:4033  products[_product_id] */\n      0x00\n        /* \"ProductContract.sol\":4021:4032  _product_id */\n      dup6\n        /* \"ProductContract.sol\":4012:4033  products[_product_id] */\n      dup2\n      mstore\n      0x20\n      add\n      swap1\n      dup2\n      mstore\n      0x20\n      add\n      0x00\n      keccak256\n        /* \"ProductContract.sol\":4012:4044  products[_product_id].is_deleted */\n      0x04\n      add\n      0x00\n      swap1\n      sload\n      swap1\n      0x0100\n      exp\n      swap1\n      div\n      0xff\n      and\n        /* \"ProductContract.sol\":4011:4044  !products[_product_id].is_deleted */\n      iszero\n        /* \"ProductContract.sol\":4003:4085  require(!products[_product_id].is_deleted, \"Product does not exist or is deleted\") */\n      tag_124\n      jumpi\n      mload(0x40)\n      0x08c379a000000000000000000000000000000000000000000000000000000000\n      dup2\n      mstore\n      0x04\n      add\n      tag_125\n      swap1\n      tag_126\n      jump\t// in\n    tag_125:\n      mload(0x40)\n      dup1\n      swap2\n      sub\n      swap1\n      revert\n    tag_124:\n        /* \"ProductContract.sol\":4104:4123  productTransactions */\n      0x04\n        /* \"ProductContract.sol\":4104:4136  productTransactions[_product_id] */\n      0x00\n        /* \"ProductContract.sol\":4124:4135  _product_id */\n      dup6\n        /* \"ProductContract.sol\":4104:4136  productTransactions[_product_id] */\n      dup2\n      mstore\n      0x20\n      add\n      swap1\n      dup2\n      mstore\n      0x20\n      add\n      0x00\n      keccak256\n        /* \"ProductContract.sol\":4104:4153  productTransactions[_product_id][_transaction_id] */\n      0x00\n        /* \"ProductContract.sol\":4137:4152  _transaction_id */\n      dup5\n        /* \"ProductContract.sol\":4104:4153  productTransactions[_product_id][_transaction_id] */\n      dup2\n      mstore\n      0x20\n      add\n      swap1\n      dup2\n      mstore\n      0x20\n      add\n      0x00\n      keccak256\n        /* \"ProductContract.sol\":4104:4164  productTransactions[_product_id][_transaction_id].is_deleted */\n      0x02\n      add\n      0x00\n      swap1\n      sload\n      swap1\n      0x0100\n      exp\n      swap1\n      div\n      0xff\n      and\n        /* \"ProductContract.sol\":4103:4164  !productTransactions[_product_id][_transaction_id].is_deleted */\n      iszero\n        /* \"ProductContract.sol\":4095:4209  require(!productTransactions[_product_id][_transaction_id].is_deleted, \"Transaction does not exist or is deleted\") */\n      tag_127\n      jumpi\n      mload(0x40)\n      0x08c379a000000000000000000000000000000000000000000000000000000000\n      dup2\n      mstore\n      0x04\n      add\n      tag_128\n      swap1\n      tag_129\n      jump\t// in\n    tag_128:\n      mload(0x40)\n      dup1\n      swap2\n      sub\n      swap1\n      revert\n    tag_127:\n        /* \"ProductContract.sol\":4288:4305  _transaction_type */\n      dup2\n        /* \"ProductContract.sol\":4219:4238  productTransactions */\n      0x04\n        /* \"ProductContract.sol\":4219:4251  productTransactions[_product_id] */\n      0x00\n        /* \"ProductContract.sol\":4239:4250  _product_id */\n      dup7\n        /* \"ProductContract.sol\":4219:4251  productTransactions[_product_id] */\n      dup2\n      mstore\n      0x20\n      add\n      swap1\n      dup2\n      mstore\n      0x20\n      add\n      0x00\n      keccak256\n        /* \"ProductContract.sol\":4219:4268  productTransactions[_product_id][_transaction_id] */\n      0x00\n        /* \"ProductContract.sol\":4252:4267  _transaction_id */\n      dup6\n        /* \"ProductContract.sol\":4219:4268  productTransactions[_product_id][_transaction_id] */\n      dup2\n      mstore\n      0x20\n      add\n      swap1\n      dup2\n      mstore\n      0x20\n      add\n      0x00\n      keccak256\n        /* \"ProductContract.sol\":4219:4285  productTransactions[_product_id][_transaction_id].transaction_type */\n      0x01\n      add\n        /* \"ProductContract.sol\":4219:4305  productTransactions[_product_id][_transaction_id].transaction_type = _transaction_type */\n      swap1\n      dup2\n      tag_130\n      swap2\n      swap1\n      tag_131\n      jump\t// in\n    tag_130:\n      pop\n        /* \"ProductContract.sol\":4372:4377  _hash */\n      dup1\n        /* \"ProductContract.sol\":4315:4334  productTransactions */\n      0x04\n        /* \"ProductContract.sol\":4315:4347  productTransactions[_product_id] */\n      0x00\n        /* \"ProductContract.sol\":4335:4346  _product_id */\n      dup7\n        /* \"ProductContract.sol\":4315:4347  productTransactions[_product_id] */\n      dup2\n      mstore\n      0x20\n      add\n      swap1\n      dup2\n      mstore\n      0x20\n      add\n      0x00\n      keccak256\n        /* \"ProductContract.sol\":4315:4364  productTransactions[_product_id][_transaction_id] */\n      0x00\n        /* \"ProductContract.sol\":4348:4363  _transaction_id */\n      dup6\n        /* \"ProductContract.sol\":4315:4364  productTransactions[_product_id][_transaction_id] */\n      dup2\n      mstore\n      0x20\n      add\n      swap1\n      dup2\n      mstore\n      0x20\n      add\n      0x00\n      keccak256\n        /* \"ProductContract.sol\":4315:4369  productTransactions[_product_id][_transaction_id].hash */\n      0x03\n      add\n        /* \"ProductContract.sol\":4315:4377  productTransactions[_product_id][_transaction_id].hash = _hash */\n      swap1\n      dup2\n      tag_132\n      swap2\n      swap1\n      tag_131\n      jump\t// in\n    tag_132:\n      pop\n        /* \"ProductContract.sol\":3855:4384  function updateTransaction(uint _product_id, uint _transaction_id, string memory _transaction_type, string memory _hash) public onlyOwner {... */\n      pop\n      pop\n      pop\n      pop\n      jump\t// out\n        /* \"ProductContract.sol\":3488:3845  function addTransaction(uint _product_id, uint _transaction_id, string memory _transaction_type, string memory _hash) public onlyOwner {... */\n    tag_39:\n        /* \"ProductContract.sol\":270:275  owner */\n      0x00\n      dup1\n      sload\n      swap1\n      0x0100\n      exp\n      swap1\n      div\n      0xffffffffffffffffffffffffffffffffffffffff\n      and\n        /* \"ProductContract.sol\":256:275  msg.sender == owner */\n      0xffffffffffffffffffffffffffffffffffffffff\n      and\n        /* \"ProductContract.sol\":256:266  msg.sender */\n      caller\n        /* \"ProductContract.sol\":256:275  msg.sender == owner */\n      0xffffffffffffffffffffffffffffffffffffffff\n      and\n      eq\n        /* \"ProductContract.sol\":248:326  require(msg.sender == owner, \"Only contract owner can perform this operation\") */\n      tag_134\n      jumpi\n      mload(0x40)\n      0x08c379a000000000000000000000000000000000000000000000000000000000\n      dup2\n      mstore\n      0x04\n      add\n      tag_135\n      swap1\n      tag_108\n      jump\t// in\n    tag_135:\n      mload(0x40)\n      dup1\n      swap2\n      sub\n      swap1\n      revert\n    tag_134:\n        /* \"ProductContract.sol\":3642:3650  products */\n      0x01\n        /* \"ProductContract.sol\":3642:3663  products[_product_id] */\n      0x00\n        /* \"ProductContract.sol\":3651:3662  _product_id */\n      dup6\n        /* \"ProductContract.sol\":3642:3663  products[_product_id] */\n      dup2\n      mstore\n      0x20\n      add\n      swap1\n      dup2\n      mstore\n      0x20\n      add\n      0x00\n      keccak256\n        /* \"ProductContract.sol\":3642:3674  products[_product_id].is_deleted */\n      0x04\n      add\n      0x00\n      swap1\n      sload\n      swap1\n      0x0100\n      exp\n      swap1\n      div\n      0xff\n      and\n        /* \"ProductContract.sol\":3641:3674  !products[_product_id].is_deleted */\n      iszero\n        /* \"ProductContract.sol\":3633:3715  require(!products[_product_id].is_deleted, \"Product does not exist or is deleted\") */\n      tag_137\n      jumpi\n      mload(0x40)\n      0x08c379a000000000000000000000000000000000000000000000000000000000\n      dup2\n      mstore\n      0x04\n      add\n      tag_138\n      swap1\n      tag_126\n      jump\t// in\n    tag_138:\n      mload(0x40)\n      dup1\n      swap2\n      sub\n      swap1\n      revert\n    tag_137:\n        /* \"ProductContract.sol\":3777:3838  Transaction(_transaction_id, _transaction_type, false, _hash) */\n      mload(0x40)\n      dup1\n      0x80\n      add\n      0x40\n      mstore\n      dup1\n        /* \"ProductContract.sol\":3789:3804  _transaction_id */\n      dup5\n        /* \"ProductContract.sol\":3777:3838  Transaction(_transaction_id, _transaction_type, false, _hash) */\n      dup2\n      mstore\n      0x20\n      add\n        /* \"ProductContract.sol\":3806:3823  _transaction_type */\n      dup4\n        /* \"ProductContract.sol\":3777:3838  Transaction(_transaction_id, _transaction_type, false, _hash) */\n      dup2\n      mstore\n      0x20\n      add\n        /* \"ProductContract.sol\":3825:3830  false */\n      0x00\n        /* \"ProductContract.sol\":3777:3838  Transaction(_transaction_id, _transaction_type, false, _hash) */\n      iszero\n      iszero\n      dup2\n      mstore\n      0x20\n      add\n        /* \"ProductContract.sol\":3832:3837  _hash */\n      dup3\n        /* \"ProductContract.sol\":3777:3838  Transaction(_transaction_id, _transaction_type, false, _hash) */\n      dup2\n      mstore\n      pop\n        /* \"ProductContract.sol\":3725:3744  productTransactions */\n      0x04\n        /* \"ProductContract.sol\":3725:3757  productTransactions[_product_id] */\n      0x00\n        /* \"ProductContract.sol\":3745:3756  _product_id */\n      dup7\n        /* \"ProductContract.sol\":3725:3757  productTransactions[_product_id] */\n      dup2\n      mstore\n      0x20\n      add\n      swap1\n      dup2\n      mstore\n      0x20\n      add\n      0x00\n      keccak256\n        /* \"ProductContract.sol\":3725:3774  productTransactions[_product_id][_transaction_id] */\n      0x00\n        /* \"ProductContract.sol\":3758:3773  _transaction_id */\n      dup6\n        /* \"ProductContract.sol\":3725:3774  productTransactions[_product_id][_transaction_id] */\n      dup2\n      mstore\n      0x20\n      add\n      swap1\n      dup2\n      mstore\n      0x20\n      add\n      0x00\n      keccak256\n        /* \"ProductContract.sol\":3725:3838  productTransactions[_product_id][_transaction_id] = Transaction(_transaction_id, _transaction_type, false, _hash) */\n      0x00\n      dup3\n      add\n      mload\n      dup2\n      0x00\n      add\n      sstore\n      0x20\n      dup3\n      add\n      mload\n      dup2\n      0x01\n      add\n      swap1\n      dup2\n      tag_139\n      swap2\n      swap1\n      tag_131\n      jump\t// in\n    tag_139:\n      pop\n      0x40\n      dup3\n      add\n      mload\n      dup2\n      0x02\n      add\n      exp(0x0100, 0x00)\n      dup2\n      sload\n      dup2\n      0xff\n      mul\n      not\n      and\n      swap1\n      dup4\n      iszero\n      iszero\n      mul\n      or\n      swap1\n      sstore\n      pop\n      0x60\n      dup3\n      add\n      mload\n      dup2\n      0x03\n      add\n      swap1\n      dup2\n      tag_140\n      swap2\n      swap1\n      tag_131\n      jump\t// in\n    tag_140:\n      pop\n      swap1\n      pop\n      pop\n        /* \"ProductContract.sol\":3488:3845  function addTransaction(uint _product_id, uint _transaction_id, string memory _transaction_type, string memory _hash) public onlyOwner {... */\n      pop\n      pop\n      pop\n      pop\n      jump\t// out\n        /* \"ProductContract.sol\":2944:3224  function updateManufacturer(uint _id, string memory _name, string memory _hash) public onlyOwner {... */\n    tag_43:\n        /* \"ProductContract.sol\":270:275  owner */\n      0x00\n      dup1\n      sload\n      swap1\n      0x0100\n      exp\n      swap1\n      div\n      0xffffffffffffffffffffffffffffffffffffffff\n      and\n        /* \"ProductContract.sol\":256:275  msg.sender == owner */\n      0xffffffffffffffffffffffffffffffffffffffff\n      and\n        /* \"ProductContract.sol\":256:266  msg.sender */\n      caller\n        /* \"ProductContract.sol\":256:275  msg.sender == owner */\n      0xffffffffffffffffffffffffffffffffffffffff\n      and\n      eq\n        /* \"ProductContract.sol\":248:326  require(msg.sender == owner, \"Only contract owner can perform this operation\") */\n      tag_142\n      jumpi\n      mload(0x40)\n      0x08c379a000000000000000000000000000000000000000000000000000000000\n      dup2\n      mstore\n      0x04\n      add\n      tag_143\n      swap1\n      tag_108\n      jump\t// in\n    tag_143:\n      mload(0x40)\n      dup1\n      swap2\n      sub\n      swap1\n      revert\n    tag_142:\n        /* \"ProductContract.sol\":3060:3073  manufacturers */\n      0x03\n        /* \"ProductContract.sol\":3060:3078  manufacturers[_id] */\n      0x00\n        /* \"ProductContract.sol\":3074:3077  _id */\n      dup5\n        /* \"ProductContract.sol\":3060:3078  manufacturers[_id] */\n      dup2\n      mstore\n      0x20\n      add\n      swap1\n      dup2\n      mstore\n      0x20\n      add\n      0x00\n      keccak256\n        /* \"ProductContract.sol\":3060:3089  manufacturers[_id].is_deleted */\n      0x02\n      add\n      0x00\n      swap1\n      sload\n      swap1\n      0x0100\n      exp\n      swap1\n      div\n      0xff\n      and\n        /* \"ProductContract.sol\":3059:3089  !manufacturers[_id].is_deleted */\n      iszero\n        /* \"ProductContract.sol\":3051:3135  require(!manufacturers[_id].is_deleted, \"Manufacturer does not exist or is deleted\") */\n      tag_145\n      jumpi\n      mload(0x40)\n      0x08c379a000000000000000000000000000000000000000000000000000000000\n      dup2\n      mstore\n      0x04\n      add\n      tag_146\n      swap1\n      tag_147\n      jump\t// in\n    tag_146:\n      mload(0x40)\n      dup1\n      swap2\n      sub\n      swap1\n      revert\n    tag_145:\n        /* \"ProductContract.sol\":3171:3176  _name */\n      dup2\n        /* \"ProductContract.sol\":3145:3158  manufacturers */\n      0x03\n        /* \"ProductContract.sol\":3145:3163  manufacturers[_id] */\n      0x00\n        /* \"ProductContract.sol\":3159:3162  _id */\n      dup6\n        /* \"ProductContract.sol\":3145:3163  manufacturers[_id] */\n      dup2\n      mstore\n      0x20\n      add\n      swap1\n      dup2\n      mstore\n      0x20\n      add\n      0x00\n      keccak256\n        /* \"ProductContract.sol\":3145:3168  manufacturers[_id].name */\n      0x01\n      add\n        /* \"ProductContract.sol\":3145:3176  manufacturers[_id].name = _name */\n      swap1\n      dup2\n      tag_148\n      swap2\n      swap1\n      tag_131\n      jump\t// in\n    tag_148:\n      pop\n        /* \"ProductContract.sol\":3212:3217  _hash */\n      dup1\n        /* \"ProductContract.sol\":3186:3199  manufacturers */\n      0x03\n        /* \"ProductContract.sol\":3186:3204  manufacturers[_id] */\n      0x00\n        /* \"ProductContract.sol\":3200:3203  _id */\n      dup6\n        /* \"ProductContract.sol\":3186:3204  manufacturers[_id] */\n      dup2\n      mstore\n      0x20\n      add\n      swap1\n      dup2\n      mstore\n      0x20\n      add\n      0x00\n      keccak256\n        /* \"ProductContract.sol\":3186:3209  manufacturers[_id].hash */\n      0x03\n      add\n        /* \"ProductContract.sol\":3186:3217  manufacturers[_id].hash = _hash */\n      swap1\n      dup2\n      tag_149\n      swap2\n      swap1\n      tag_131\n      jump\t// in\n    tag_149:\n      pop\n        /* \"ProductContract.sol\":2944:3224  function updateManufacturer(uint _id, string memory _name, string memory _hash) public onlyOwner {... */\n      pop\n      pop\n      pop\n      jump\t// out\n        /* \"ProductContract.sol\":5245:5411  function getTransaction(uint _product_id, uint _trans_id) public view returns (Transaction memory) {... */\n    tag_47:\n        /* \"ProductContract.sol\":5324:5342  Transaction memory */\n      tag_150\n      tag_151\n      jump\t// in\n    tag_150:\n        /* \"ProductContract.sol\":5361:5380  productTransactions */\n      0x04\n        /* \"ProductContract.sol\":5361:5393  productTransactions[_product_id] */\n      0x00\n        /* \"ProductContract.sol\":5381:5392  _product_id */\n      dup5\n        /* \"ProductContract.sol\":5361:5393  productTransactions[_product_id] */\n      dup2\n      mstore\n      0x20\n      add\n      swap1\n      dup2\n      mstore\n      0x20\n      add\n      0x00\n      keccak256\n        /* \"ProductContract.sol\":5361:5404  productTransactions[_product_id][_trans_id] */\n      0x00\n        /* \"ProductContract.sol\":5394:5403  _trans_id */\n      dup4\n        /* \"ProductContract.sol\":5361:5404  productTransactions[_product_id][_trans_id] */\n      dup2\n      mstore\n      0x20\n      add\n      swap1\n      dup2\n      mstore\n      0x20\n      add\n      0x00\n      keccak256\n        /* \"ProductContract.sol\":5354:5404  return productTransactions[_product_id][_trans_id] */\n      mload(0x40)\n      dup1\n      0x80\n      add\n      0x40\n      mstore\n      swap1\n      dup2\n      0x00\n      dup3\n      add\n      sload\n      dup2\n      mstore\n      0x20\n      add\n      0x01\n      dup3\n      add\n      dup1\n      sload\n      tag_153\n      swap1\n      tag_154\n      jump\t// in\n    tag_153:\n      dup1\n      0x1f\n      add\n      0x20\n      dup1\n      swap2\n      div\n      mul\n      0x20\n      add\n      mload(0x40)\n      swap1\n      dup2\n      add\n      0x40\n      mstore\n      dup1\n      swap3\n      swap2\n      swap1\n      dup2\n      dup2\n      mstore\n      0x20\n      add\n      dup3\n      dup1\n      sload\n      tag_155\n      swap1\n      tag_154\n      jump\t// in\n    tag_155:\n      dup1\n      iszero\n      tag_156\n      jumpi\n      dup1\n      0x1f\n      lt\n      tag_157\n      jumpi\n      0x0100\n      dup1\n      dup4\n      sload\n      div\n      mul\n      dup4\n      mstore\n      swap2\n      0x20\n      add\n      swap2\n      jump(tag_156)\n    tag_157:\n      dup3\n      add\n      swap2\n      swap1\n      0x00\n      mstore\n      keccak256(0x00, 0x20)\n      swap1\n    tag_158:\n      dup2\n      sload\n      dup2\n      mstore\n      swap1\n      0x01\n      add\n      swap1\n      0x20\n      add\n      dup1\n      dup4\n      gt\n      tag_158\n      jumpi\n      dup3\n      swap1\n      sub\n      0x1f\n      and\n      dup3\n      add\n      swap2\n    tag_156:\n      pop\n      pop\n      pop\n      pop\n      pop\n      dup2\n      mstore\n      0x20\n      add\n      0x02\n      dup3\n      add\n      0x00\n      swap1\n      sload\n      swap1\n      0x0100\n      exp\n      swap1\n      div\n      0xff\n      and\n      iszero\n      iszero\n      iszero\n      iszero\n      dup2\n      mstore\n      0x20\n      add\n      0x03\n      dup3\n      add\n      dup1\n      sload\n      tag_159\n      swap1\n      tag_154\n      jump\t// in\n    tag_159:\n      dup1\n      0x1f\n      add\n      0x20\n      dup1\n      swap2\n      div\n      mul\n      0x20\n      add\n      mload(0x40)\n      swap1\n      dup2\n      add\n      0x40\n      mstore\n      dup1\n      swap3\n      swap2\n      swap1\n      dup2\n      dup2\n      mstore\n      0x20\n      add\n      dup3\n      dup1\n      sload\n      tag_160\n      swap1\n      tag_154\n      jump\t// in\n    tag_160:\n      dup1\n      iszero\n      tag_161\n      jumpi\n      dup1\n      0x1f\n      lt\n      tag_162\n      jumpi\n      0x0100\n      dup1\n      dup4\n      sload\n      div\n      mul\n      dup4\n      mstore\n      swap2\n      0x20\n      add\n      swap2\n      jump(tag_161)\n    tag_162:\n      dup3\n      add\n      swap2\n      swap1\n      0x00\n      mstore\n      keccak256(0x00, 0x20)\n      swap1\n    tag_163:\n      dup2\n      sload\n      dup2\n      mstore\n      swap1\n      0x01\n      add\n      swap1\n      0x20\n      add\n      dup1\n      dup4\n      gt\n      tag_163\n      jumpi\n      dup3\n      swap1\n      sub\n      0x1f\n      and\n      dup3\n      add\n      swap2\n    tag_161:\n      pop\n      pop\n      pop\n      pop\n      pop\n      dup2\n      mstore\n      pop\n      pop\n      swap1\n      pop\n        /* \"ProductContract.sol\":5245:5411  function getTransaction(uint _product_id, uint _trans_id) public view returns (Transaction memory) {... */\n      swap3\n      swap2\n      pop\n      pop\n      jump\t// out\n        /* \"ProductContract.sol\":896:936  mapping(uint => Product) public products */\n    tag_52:\n      mstore(0x20, 0x01)\n      dup1\n      0x00\n      mstore\n      keccak256(0x00, 0x40)\n      0x00\n      swap2\n      pop\n      swap1\n      pop\n      dup1\n      0x00\n      add\n      sload\n      swap1\n      dup1\n      0x01\n      add\n      dup1\n      sload\n      tag_164\n      swap1\n      tag_154\n      jump\t// in\n    tag_164:\n      dup1\n      0x1f\n      add\n      0x20\n      dup1\n      swap2\n      div\n      mul\n      0x20\n      add\n      mload(0x40)\n      swap1\n      dup2\n      add\n      0x40\n      mstore\n      dup1\n      swap3\n      swap2\n      swap1\n      dup2\n      dup2\n      mstore\n      0x20\n      add\n      dup3\n      dup1\n      sload\n      tag_165\n      swap1\n      tag_154\n      jump\t// in\n    tag_165:\n      dup1\n      iszero\n      tag_166\n      jumpi\n      dup1\n      0x1f\n      lt\n      tag_167\n      jumpi\n      0x0100\n      dup1\n      dup4\n      sload\n      div\n      mul\n      dup4\n      mstore\n      swap2\n      0x20\n      add\n      swap2\n      jump(tag_166)\n    tag_167:\n      dup3\n      add\n      swap2\n      swap1\n      0x00\n      mstore\n      keccak256(0x00, 0x20)\n      swap1\n    tag_168:\n      dup2\n      sload\n      dup2\n      mstore\n      swap1\n      0x01\n      add\n      swap1\n      0x20\n      add\n      dup1\n      dup4\n      gt\n      tag_168\n      jumpi\n      dup3\n      swap1\n      sub\n      0x1f\n      and\n      dup3\n      add\n      swap2\n    tag_166:\n      pop\n      pop\n      pop\n      pop\n      pop\n      swap1\n      dup1\n      0x02\n      add\n      sload\n      swap1\n      dup1\n      0x03\n      add\n      sload\n      swap1\n      dup1\n      0x04\n      add\n      0x00\n      swap1\n      sload\n      swap1\n      0x0100\n      exp\n      swap1\n      div\n      0xff\n      and\n      swap1\n      dup1\n      0x05\n      add\n      dup1\n      sload\n      tag_169\n      swap1\n      tag_154\n      jump\t// in\n    tag_169:\n      dup1\n      0x1f\n      add\n      0x20\n      dup1\n      swap2\n      div\n      mul\n      0x20\n      add\n      mload(0x40)\n      swap1\n      dup2\n      add\n      0x40\n      mstore\n      dup1\n      swap3\n      swap2\n      swap1\n      dup2\n      dup2\n      mstore\n      0x20\n      add\n      dup3\n      dup1\n      sload\n      tag_170\n      swap1\n      tag_154\n      jump\t// in\n    tag_170:\n      dup1\n      iszero\n      tag_171\n      jumpi\n      dup1\n      0x1f\n      lt\n      tag_172\n      jumpi\n      0x0100\n      dup1\n      dup4\n      sload\n      div\n      mul\n      dup4\n      mstore\n      swap2\n      0x20\n      add\n      swap2\n      jump(tag_171)\n    tag_172:\n      dup3\n      add\n      swap2\n      swap1\n      0x00\n      mstore\n      keccak256(0x00, 0x20)\n      swap1\n    tag_173:\n      dup2\n      sload\n      dup2\n      mstore\n      swap1\n      0x01\n      add\n      swap1\n      0x20\n      add\n      dup1\n      dup4\n      gt\n      tag_173\n      jumpi\n      dup3\n      swap1\n      sub\n      0x1f\n      and\n      dup3\n      add\n      swap2\n    tag_171:\n      pop\n      pop\n      pop\n      pop\n      pop\n      swap1\n      pop\n      dup7\n      jump\t// out\n        /* \"ProductContract.sol\":2764:2934  function addManufacturer(uint _id, string memory _name, string memory _hash) public onlyOwner {... */\n    tag_57:\n        /* \"ProductContract.sol\":270:275  owner */\n      0x00\n      dup1\n      sload\n      swap1\n      0x0100\n      exp\n      swap1\n      div\n      0xffffffffffffffffffffffffffffffffffffffff\n      and\n        /* \"ProductContract.sol\":256:275  msg.sender == owner */\n      0xffffffffffffffffffffffffffffffffffffffff\n      and\n        /* \"ProductContract.sol\":256:266  msg.sender */\n      caller\n        /* \"ProductContract.sol\":256:275  msg.sender == owner */\n      0xffffffffffffffffffffffffffffffffffffffff\n      and\n      eq\n        /* \"ProductContract.sol\":248:326  require(msg.sender == owner, \"Only contract owner can perform this operation\") */\n      tag_175\n      jumpi\n      mload(0x40)\n      0x08c379a000000000000000000000000000000000000000000000000000000000\n      dup2\n      mstore\n      0x04\n      add\n      tag_176\n      swap1\n      tag_108\n      jump\t// in\n    tag_176:\n      mload(0x40)\n      dup1\n      swap2\n      sub\n      swap1\n      revert\n    tag_175:\n        /* \"ProductContract.sol\":2889:2927  Manufacturer(_id, _name, false, _hash) */\n      mload(0x40)\n      dup1\n      0x80\n      add\n      0x40\n      mstore\n      dup1\n        /* \"ProductContract.sol\":2902:2905  _id */\n      dup5\n        /* \"ProductContract.sol\":2889:2927  Manufacturer(_id, _name, false, _hash) */\n      dup2\n      mstore\n      0x20\n      add\n        /* \"ProductContract.sol\":2907:2912  _name */\n      dup4\n        /* \"ProductContract.sol\":2889:2927  Manufacturer(_id, _name, false, _hash) */\n      dup2\n      mstore\n      0x20\n      add\n        /* \"ProductContract.sol\":2914:2919  false */\n      0x00\n        /* \"ProductContract.sol\":2889:2927  Manufacturer(_id, _name, false, _hash) */\n      iszero\n      iszero\n      dup2\n      mstore\n      0x20\n      add\n        /* \"ProductContract.sol\":2921:2926  _hash */\n      dup3\n        /* \"ProductContract.sol\":2889:2927  Manufacturer(_id, _name, false, _hash) */\n      dup2\n      mstore\n      pop\n        /* \"ProductContract.sol\":2868:2881  manufacturers */\n      0x03\n        /* \"ProductContract.sol\":2868:2886  manufacturers[_id] */\n      0x00\n        /* \"ProductContract.sol\":2882:2885  _id */\n      dup6\n        /* \"ProductContract.sol\":2868:2886  manufacturers[_id] */\n      dup2\n      mstore\n      0x20\n      add\n      swap1\n      dup2\n      mstore\n      0x20\n      add\n      0x00\n      keccak256\n        /* \"ProductContract.sol\":2868:2927  manufacturers[_id] = Manufacturer(_id, _name, false, _hash) */\n      0x00\n      dup3\n      add\n      mload\n      dup2\n      0x00\n      add\n      sstore\n      0x20\n      dup3\n      add\n      mload\n      dup2\n      0x01\n      add\n      swap1\n      dup2\n      tag_178\n      swap2\n      swap1\n      tag_131\n      jump\t// in\n    tag_178:\n      pop\n      0x40\n      dup3\n      add\n      mload\n      dup2\n      0x02\n      add\n      exp(0x0100, 0x00)\n      dup2\n      sload\n      dup2\n      0xff\n      mul\n      not\n      and\n      swap1\n      dup4\n      iszero\n      iszero\n      mul\n      or\n      swap1\n      sstore\n      pop\n      0x60\n      dup3\n      add\n      mload\n      dup2\n      0x03\n      add\n      swap1\n      dup2\n      tag_179\n      swap2\n      swap1\n      tag_131\n      jump\t// in\n    tag_179:\n      pop\n      swap1\n      pop\n      pop\n        /* \"ProductContract.sol\":2764:2934  function addManufacturer(uint _id, string memory _name, string memory _hash) public onlyOwner {... */\n      pop\n      pop\n      pop\n      jump\t// out\n        /* \"ProductContract.sol\":93:158  address public owner = 0xa6AE3FA7c22FecC80ebbFADA388808B0aAF707c9 */\n    tag_59:\n      0x00\n      dup1\n      sload\n      swap1\n      0x0100\n      exp\n      swap1\n      div\n      0xffffffffffffffffffffffffffffffffffffffff\n      and\n      dup2\n      jump\t// out\n        /* \"ProductContract.sol\":990:1040  mapping(uint => Manufacturer) public manufacturers */\n    tag_64:\n      mstore(0x20, 0x03)\n      dup1\n      0x00\n      mstore\n      keccak256(0x00, 0x40)\n      0x00\n      swap2\n      pop\n      swap1\n      pop\n      dup1\n      0x00\n      add\n      sload\n      swap1\n      dup1\n      0x01\n      add\n      dup1\n      sload\n      tag_180\n      swap1\n      tag_154\n      jump\t// in\n    tag_180:\n      dup1\n      0x1f\n      add\n      0x20\n      dup1\n      swap2\n      div\n      mul\n      0x20\n      add\n      mload(0x40)\n      swap1\n      dup2\n      add\n      0x40\n      mstore\n      dup1\n      swap3\n      swap2\n      swap1\n      dup2\n      dup2\n      mstore\n      0x20\n      add\n      dup3\n      dup1\n      sload\n      tag_181\n      swap1\n      tag_154\n      jump\t// in\n    tag_181:\n      dup1\n      iszero\n      tag_182\n      jumpi\n      dup1\n      0x1f\n      lt\n      tag_183\n      jumpi\n      0x0100\n      dup1\n      dup4\n      sload\n      div\n      mul\n      dup4\n      mstore\n      swap2\n      0x20\n      add\n      swap2\n      jump(tag_182)\n    tag_183:\n      dup3\n      add\n      swap2\n      swap1\n      0x00\n      mstore\n      keccak256(0x00, 0x20)\n      swap1\n    tag_184:\n      dup2\n      sload\n      dup2\n      mstore\n      swap1\n      0x01\n      add\n      swap1\n      0x20\n      add\n      dup1\n      dup4\n      gt\n      tag_184\n      jumpi\n      dup3\n      swap1\n      sub\n      0x1f\n      and\n      dup3\n      add\n      swap2\n    tag_182:\n      pop\n      pop\n      pop\n      pop\n      pop\n      swap1\n      dup1\n      0x02\n      add\n      0x00\n      swap1\n      sload\n      swap1\n      0x0100\n      exp\n      swap1\n      div\n      0xff\n      and\n      swap1\n      dup1\n      0x03\n      add\n      dup1\n      sload\n      tag_185\n      swap1\n      tag_154\n      jump\t// in\n    tag_185:\n      dup1\n      0x1f\n      add\n      0x20\n      dup1\n      swap2\n      div\n      mul\n      0x20\n      add\n      mload(0x40)\n      swap1\n      dup2\n      add\n      0x40\n      mstore\n      dup1\n      swap3\n      swap2\n      swap1\n      dup2\n      dup2\n      mstore\n      0x20\n      add\n      dup3\n      dup1\n      sload\n      tag_186\n      swap1\n      tag_154\n      jump\t// in\n    tag_186:\n      dup1\n      iszero\n      tag_187\n      jumpi\n      dup1\n      0x1f\n      lt\n      tag_188\n      jumpi\n      0x0100\n      dup1\n      dup4\n      sload\n      div\n      mul\n      dup4\n      mstore\n      swap2\n      0x20\n      add\n      swap2\n      jump(tag_187)\n    tag_188:\n      dup3\n      add\n      swap2\n      swap1\n      0x00\n      mstore\n      keccak256(0x00, 0x20)\n      swap1\n    tag_189:\n      dup2\n      sload\n      dup2\n      mstore\n      swap1\n      0x01\n      add\n      swap1\n      0x20\n      add\n      dup1\n      dup4\n      gt\n      tag_189\n      jumpi\n      dup3\n      swap1\n      sub\n      0x1f\n      and\n      dup3\n      add\n      swap2\n    tag_187:\n      pop\n      pop\n      pop\n      pop\n      pop\n      swap1\n      pop\n      dup5\n      jump\t// out\n        /* \"ProductContract.sol\":5081:5200  function getManufacturer(uint _id) public view returns (Manufacturer memory) {... */\n    tag_69:\n        /* \"ProductContract.sol\":5137:5156  Manufacturer memory */\n      tag_190\n      tag_191\n      jump\t// in\n    tag_190:\n        /* \"ProductContract.sol\":5175:5188  manufacturers */\n      0x03\n        /* \"ProductContract.sol\":5175:5193  manufacturers[_id] */\n      0x00\n        /* \"ProductContract.sol\":5189:5192  _id */\n      dup4\n        /* \"ProductContract.sol\":5175:5193  manufacturers[_id] */\n      dup2\n      mstore\n      0x20\n      add\n      swap1\n      dup2\n      mstore\n      0x20\n      add\n      0x00\n      keccak256\n        /* \"ProductContract.sol\":5168:5193  return manufacturers[_id] */\n      mload(0x40)\n      dup1\n      0x80\n      add\n      0x40\n      mstore\n      swap1\n      dup2\n      0x00\n      dup3\n      add\n      sload\n      dup2\n      mstore\n      0x20\n      add\n      0x01\n      dup3\n      add\n      dup1\n      sload\n      tag_193\n      swap1\n      tag_154\n      jump\t// in\n    tag_193:\n      dup1\n      0x1f\n      add\n      0x20\n      dup1\n      swap2\n      div\n      mul\n      0x20\n      add\n      mload(0x40)\n      swap1\n      dup2\n      add\n      0x40\n      mstore\n      dup1\n      swap3\n      swap2\n      swap1\n      dup2\n      dup2\n      mstore\n      0x20\n      add\n      dup3\n      dup1\n      sload\n      tag_194\n      swap1\n      tag_154\n      jump\t// in\n    tag_194:\n      dup1\n      iszero\n      tag_195\n      jumpi\n      dup1\n      0x1f\n      lt\n      tag_196\n      jumpi\n      0x0100\n      dup1\n      dup4\n      sload\n      div\n      mul\n      dup4\n      mstore\n      swap2\n      0x20\n      add\n      swap2\n      jump(tag_195)\n    tag_196:\n      dup3\n      add\n      swap2\n      swap1\n      0x00\n      mstore\n      keccak256(0x00, 0x20)\n      swap1\n    tag_197:\n      dup2\n      sload\n      dup2\n      mstore\n      swap1\n      0x01\n      add\n      swap1\n      0x20\n      add\n      dup1\n      dup4\n      gt\n      tag_197\n      jumpi\n      dup3\n      swap1\n      sub\n      0x1f\n      and\n      dup3\n      add\n      swap2\n    tag_195:\n      pop\n      pop\n      pop\n      pop\n      pop\n      dup2\n      mstore\n      0x20\n      add\n      0x02\n      dup3\n      add\n      0x00\n      swap1\n      sload\n      swap1\n      0x0100\n      exp\n      swap1\n      div\n      0xff\n      and\n      iszero\n      iszero\n      iszero\n      iszero\n      dup2\n      mstore\n      0x20\n      add\n      0x03\n      dup3\n      add\n      dup1\n      sload\n      tag_198\n      swap1\n      tag_154\n      jump\t// in\n    tag_198:\n      dup1\n      0x1f\n      add\n      0x20\n      dup1\n      swap2\n      div\n      mul\n      0x20\n      add\n      mload(0x40)\n      swap1\n      dup2\n      add\n      0x40\n      mstore\n      dup1\n      swap3\n      swap2\n      swap1\n      dup2\n      dup2\n      mstore\n      0x20\n      add\n      dup3\n      dup1\n      sload\n      tag_199\n      swap1\n      tag_154\n      jump\t// in\n    tag_199:\n      dup1\n      iszero\n      tag_200\n      jumpi\n      dup1\n      0x1f\n      lt\n      tag_201\n      jumpi\n      0x0100\n      dup1\n      dup4\n      sload\n      div\n      mul\n      dup4\n      mstore\n      swap2\n      0x20\n      add\n      swap2\n      jump(tag_200)\n    tag_201:\n      dup3\n      add\n      swap2\n      swap1\n      0x00\n      mstore\n      keccak256(0x00, 0x20)\n      swap1\n    tag_202:\n      dup2\n      sload\n      dup2\n      mstore\n      swap1\n      0x01\n      add\n      swap1\n      0x20\n      add\n      dup1\n      dup4\n      gt\n      tag_202\n      jumpi\n      dup3\n      swap1\n      sub\n      0x1f\n      and\n      dup3\n      add\n      swap2\n    tag_200:\n      pop\n      pop\n      pop\n      pop\n      pop\n      dup2\n      mstore\n      pop\n      pop\n      swap1\n      pop\n        /* \"ProductContract.sol\":5081:5200  function getManufacturer(uint _id) public view returns (Manufacturer memory) {... */\n      swap2\n      swap1\n      pop\n      jump\t// out\n        /* \"ProductContract.sol\":4850:4954  function getProduct(uint _id) public view returns (Product memory) {... */\n    tag_74:\n        /* \"ProductContract.sol\":4901:4915  Product memory */\n      tag_203\n      tag_204\n      jump\t// in\n    tag_203:\n        /* \"ProductContract.sol\":4934:4942  products */\n      0x01\n        /* \"ProductContract.sol\":4934:4947  products[_id] */\n      0x00\n        /* \"ProductContract.sol\":4943:4946  _id */\n      dup4\n        /* \"ProductContract.sol\":4934:4947  products[_id] */\n      dup2\n      mstore\n      0x20\n      add\n      swap1\n      dup2\n      mstore\n      0x20\n      add\n      0x00\n      keccak256\n        /* \"ProductContract.sol\":4927:4947  return products[_id] */\n      mload(0x40)\n      dup1\n      0xc0\n      add\n      0x40\n      mstore\n      swap1\n      dup2\n      0x00\n      dup3\n      add\n      sload\n      dup2\n      mstore\n      0x20\n      add\n      0x01\n      dup3\n      add\n      dup1\n      sload\n      tag_206\n      swap1\n      tag_154\n      jump\t// in\n    tag_206:\n      dup1\n      0x1f\n      add\n      0x20\n      dup1\n      swap2\n      div\n      mul\n      0x20\n      add\n      mload(0x40)\n      swap1\n      dup2\n      add\n      0x40\n      mstore\n      dup1\n      swap3\n      swap2\n      swap1\n      dup2\n      dup2\n      mstore\n      0x20\n      add\n      dup3\n      dup1\n      sload\n      tag_207\n      swap1\n      tag_154\n      jump\t// in\n    tag_207:\n      dup1\n      iszero\n      tag_208\n      jumpi\n      dup1\n      0x1f\n      lt\n      tag_209\n      jumpi\n      0x0100\n      dup1\n      dup4\n      sload\n      div\n      mul\n      dup4\n      mstore\n      swap2\n      0x20\n      add\n      swap2\n      jump(tag_208)\n    tag_209:\n      dup3\n      add\n      swap2\n      swap1\n      0x00\n      mstore\n      keccak256(0x00, 0x20)\n      swap1\n    tag_210:\n      dup2\n      sload\n      dup2\n      mstore\n      swap1\n      0x01\n      add\n      swap1\n      0x20\n      add\n      dup1\n      dup4\n      gt\n      tag_210\n      jumpi\n      dup3\n      swap1\n      sub\n      0x1f\n      and\n      dup3\n      add\n      swap2\n    tag_208:\n      pop\n      pop\n      pop\n      pop\n      pop\n      dup2\n      mstore\n      0x20\n      add\n      0x02\n      dup3\n      add\n      sload\n      dup2\n      mstore\n      0x20\n      add\n      0x03\n      dup3\n      add\n      sload\n      dup2\n      mstore\n      0x20\n      add\n      0x04\n      dup3\n      add\n      0x00\n      swap1\n      sload\n      swap1\n      0x0100\n      exp\n      swap1\n      div\n      0xff\n      and\n      iszero\n      iszero\n      iszero\n      iszero\n      dup2\n      mstore\n      0x20\n      add\n      0x05\n      dup3\n      add\n      dup1\n      sload\n      tag_211\n      swap1\n      tag_154\n      jump\t// in\n    tag_211:\n      dup1\n      0x1f\n      add\n      0x20\n      dup1\n      swap2\n      div\n      mul\n      0x20\n      add\n      mload(0x40)\n      swap1\n      dup2\n      add\n      0x40\n      mstore\n      dup1\n      swap3\n      swap2\n      swap1\n      dup2\n      dup2\n      mstore\n      0x20\n      add\n      dup3\n      dup1\n      sload\n      tag_212\n      swap1\n      tag_154\n      jump\t// in\n    tag_212:\n      dup1\n      iszero\n      tag_213\n      jumpi\n      dup1\n      0x1f\n      lt\n      tag_214\n      jumpi\n      0x0100\n      dup1\n      dup4\n      sload\n      div\n      mul\n      dup4\n      mstore\n      swap2\n      0x20\n      add\n      swap2\n      jump(tag_213)\n    tag_214:\n      dup3\n      add\n      swap2\n      swap1\n      0x00\n      mstore\n      keccak256(0x00, 0x20)\n      swap1\n    tag_215:\n      dup2\n      sload\n      dup2\n      mstore\n      swap1\n      0x01\n      add\n      swap1\n      0x20\n      add\n      dup1\n      dup4\n      gt\n      tag_215\n      jumpi\n      dup3\n      swap1\n      sub\n      0x1f\n      and\n      dup3\n      add\n      swap2\n    tag_213:\n      pop\n      pop\n      pop\n      pop\n      pop\n      dup2\n      mstore\n      pop\n      pop\n      swap1\n      pop\n        /* \"ProductContract.sol\":4850:4954  function getProduct(uint _id) public view returns (Product memory) {... */\n      swap2\n      swap1\n      pop\n      jump\t// out\n        /* \"ProductContract.sol\":2255:2515  function updateSupplier(uint _id, string memory _name, string memory _hash) public onlyOwner {... */\n    tag_79:\n        /* \"ProductContract.sol\":270:275  owner */\n      0x00\n      dup1\n      sload\n      swap1\n      0x0100\n      exp\n      swap1\n      div\n      0xffffffffffffffffffffffffffffffffffffffff\n      and\n        /* \"ProductContract.sol\":256:275  msg.sender == owner */\n      0xffffffffffffffffffffffffffffffffffffffff\n      and\n        /* \"ProductContract.sol\":256:266  msg.sender */\n      caller\n        /* \"ProductContract.sol\":256:275  msg.sender == owner */\n      0xffffffffffffffffffffffffffffffffffffffff\n      and\n      eq\n        /* \"ProductContract.sol\":248:326  require(msg.sender == owner, \"Only contract owner can perform this operation\") */\n      tag_217\n      jumpi\n      mload(0x40)\n      0x08c379a000000000000000000000000000000000000000000000000000000000\n      dup2\n      mstore\n      0x04\n      add\n      tag_218\n      swap1\n      tag_108\n      jump\t// in\n    tag_218:\n      mload(0x40)\n      dup1\n      swap2\n      sub\n      swap1\n      revert\n    tag_217:\n        /* \"ProductContract.sol\":2367:2376  suppliers */\n      0x02\n        /* \"ProductContract.sol\":2367:2381  suppliers[_id] */\n      0x00\n        /* \"ProductContract.sol\":2377:2380  _id */\n      dup5\n        /* \"ProductContract.sol\":2367:2381  suppliers[_id] */\n      dup2\n      mstore\n      0x20\n      add\n      swap1\n      dup2\n      mstore\n      0x20\n      add\n      0x00\n      keccak256\n        /* \"ProductContract.sol\":2367:2392  suppliers[_id].is_deleted */\n      0x02\n      add\n      0x00\n      swap1\n      sload\n      swap1\n      0x0100\n      exp\n      swap1\n      div\n      0xff\n      and\n        /* \"ProductContract.sol\":2366:2392  !suppliers[_id].is_deleted */\n      iszero\n        /* \"ProductContract.sol\":2358:2434  require(!suppliers[_id].is_deleted, \"Supplier does not exist or is deleted\") */\n      tag_220\n      jumpi\n      mload(0x40)\n      0x08c379a000000000000000000000000000000000000000000000000000000000\n      dup2\n      mstore\n      0x04\n      add\n      tag_221\n      swap1\n      tag_222\n      jump\t// in\n    tag_221:\n      mload(0x40)\n      dup1\n      swap2\n      sub\n      swap1\n      revert\n    tag_220:\n        /* \"ProductContract.sol\":2466:2471  _name */\n      dup2\n        /* \"ProductContract.sol\":2444:2453  suppliers */\n      0x02\n        /* \"ProductContract.sol\":2444:2458  suppliers[_id] */\n      0x00\n        /* \"ProductContract.sol\":2454:2457  _id */\n      dup6\n        /* \"ProductContract.sol\":2444:2458  suppliers[_id] */\n      dup2\n      mstore\n      0x20\n      add\n      swap1\n      dup2\n      mstore\n      0x20\n      add\n      0x00\n      keccak256\n        /* \"ProductContract.sol\":2444:2463  suppliers[_id].name */\n      0x01\n      add\n        /* \"ProductContract.sol\":2444:2471  suppliers[_id].name = _name */\n      swap1\n      dup2\n      tag_223\n      swap2\n      swap1\n      tag_131\n      jump\t// in\n    tag_223:\n      pop\n        /* \"ProductContract.sol\":2503:2508  _hash */\n      dup1\n        /* \"ProductContract.sol\":2481:2490  suppliers */\n      0x02\n        /* \"ProductContract.sol\":2481:2495  suppliers[_id] */\n      0x00\n        /* \"ProductContract.sol\":2491:2494  _id */\n      dup6\n        /* \"ProductContract.sol\":2481:2495  suppliers[_id] */\n      dup2\n      mstore\n      0x20\n      add\n      swap1\n      dup2\n      mstore\n      0x20\n      add\n      0x00\n      keccak256\n        /* \"ProductContract.sol\":2481:2500  suppliers[_id].hash */\n      0x03\n      add\n        /* \"ProductContract.sol\":2481:2508  suppliers[_id].hash = _hash */\n      swap1\n      dup2\n      tag_224\n      swap2\n      swap1\n      tag_131\n      jump\t// in\n    tag_224:\n      pop\n        /* \"ProductContract.sol\":2255:2515  function updateSupplier(uint _id, string memory _name, string memory _hash) public onlyOwner {... */\n      pop\n      pop\n      pop\n      jump\t// out\n        /* \"ProductContract.sol\":942:984  mapping(uint => Supplier) public suppliers */\n    tag_82:\n      mstore(0x20, 0x02)\n      dup1\n      0x00\n      mstore\n      keccak256(0x00, 0x40)\n      0x00\n      swap2\n      pop\n      swap1\n      pop\n      dup1\n      0x00\n      add\n      sload\n      swap1\n      dup1\n      0x01\n      add\n      dup1\n      sload\n      tag_225\n      swap1\n      tag_154\n      jump\t// in\n    tag_225:\n      dup1\n      0x1f\n      add\n      0x20\n      dup1\n      swap2\n      div\n      mul\n      0x20\n      add\n      mload(0x40)\n      swap1\n      dup2\n      add\n      0x40\n      mstore\n      dup1\n      swap3\n      swap2\n      swap1\n      dup2\n      dup2\n      mstore\n      0x20\n      add\n      dup3\n      dup1\n      sload\n      tag_226\n      swap1\n      tag_154\n      jump\t// in\n    tag_226:\n      dup1\n      iszero\n      tag_227\n      jumpi\n      dup1\n      0x1f\n      lt\n      tag_228\n      jumpi\n      0x0100\n      dup1\n      dup4\n      sload\n      div\n      mul\n      dup4\n      mstore\n      swap2\n      0x20\n      add\n      swap2\n      jump(tag_227)\n    tag_228:\n      dup3\n      add\n      swap2\n      swap1\n      0x00\n      mstore\n      keccak256(0x00, 0x20)\n      swap1\n    tag_229:\n      dup2\n      sload\n      dup2\n      mstore\n      swap1\n      0x01\n      add\n      swap1\n      0x20\n      add\n      dup1\n      dup4\n      gt\n      tag_229\n      jumpi\n      dup3\n      swap1\n      sub\n      0x1f\n      and\n      dup3\n      add\n      swap2\n    tag_227:\n      pop\n      pop\n      pop\n      pop\n      pop\n      swap1\n      dup1\n      0x02\n      add\n      0x00\n      swap1\n      sload\n      swap1\n      0x0100\n      exp\n      swap1\n      div\n      0xff\n      and\n      swap1\n      dup1\n      0x03\n      add\n      dup1\n      sload\n      tag_230\n      swap1\n      tag_154\n      jump\t// in\n    tag_230:\n      dup1\n      0x1f\n      add\n      0x20\n      dup1\n      swap2\n      div\n      mul\n      0x20\n      add\n      mload(0x40)\n      swap1\n      dup2\n      add\n      0x40\n      mstore\n      dup1\n      swap3\n      swap2\n      swap1\n      dup2\n      dup2\n      mstore\n      0x20\n      add\n      dup3\n      dup1\n      sload\n      tag_231\n      swap1\n      tag_154\n      jump\t// in\n    tag_231:\n      dup1\n      iszero\n      tag_232\n      jumpi\n      dup1\n      0x1f\n      lt\n      tag_233\n      jumpi\n      0x0100\n      dup1\n      dup4\n      sload\n      div\n      mul\n      dup4\n      mstore\n      swap2\n      0x20\n      add\n      swap2\n      jump(tag_232)\n    tag_233:\n      dup3\n      add\n      swap2\n      swap1\n      0x00\n      mstore\n      keccak256(0x00, 0x20)\n      swap1\n    tag_234:\n      dup2\n      sload\n      dup2\n      mstore\n      swap1\n      0x01\n      add\n      swap1\n      0x20\n      add\n      dup1\n      dup4\n      gt\n      tag_234\n      jumpi\n      dup3\n      swap1\n      sub\n      0x1f\n      and\n      dup3\n      add\n      swap2\n    tag_232:\n      pop\n      pop\n      pop\n      pop\n      pop\n      swap1\n      pop\n      dup5\n      jump\t// out\n        /* \"ProductContract.sol\":4964:5071  function getSupplier(uint _id) public view returns (Supplier memory) {... */\n    tag_86:\n        /* \"ProductContract.sol\":5016:5031  Supplier memory */\n      tag_235\n      tag_236\n      jump\t// in\n    tag_235:\n        /* \"ProductContract.sol\":5050:5059  suppliers */\n      0x02\n        /* \"ProductContract.sol\":5050:5064  suppliers[_id] */\n      0x00\n        /* \"ProductContract.sol\":5060:5063  _id */\n      dup4\n        /* \"ProductContract.sol\":5050:5064  suppliers[_id] */\n      dup2\n      mstore\n      0x20\n      add\n      swap1\n      dup2\n      mstore\n      0x20\n      add\n      0x00\n      keccak256\n        /* \"ProductContract.sol\":5043:5064  return suppliers[_id] */\n      mload(0x40)\n      dup1\n      0x80\n      add\n      0x40\n      mstore\n      swap1\n      dup2\n      0x00\n      dup3\n      add\n      sload\n      dup2\n      mstore\n      0x20\n      add\n      0x01\n      dup3\n      add\n      dup1\n      sload\n      tag_238\n      swap1\n      tag_154\n      jump\t// in\n    tag_238:\n      dup1\n      0x1f\n      add\n      0x20\n      dup1\n      swap2\n      div\n      mul\n      0x20\n      add\n      mload(0x40)\n      swap1\n      dup2\n      add\n      0x40\n      mstore\n      dup1\n      swap3\n      swap2\n      swap1\n      dup2\n      dup2\n      mstore\n      0x20\n      add\n      dup3\n      dup1\n      sload\n      tag_239\n      swap1\n      tag_154\n      jump\t// in\n    tag_239:\n      dup1\n      iszero\n      tag_240\n      jumpi\n      dup1\n      0x1f\n      lt\n      tag_241\n      jumpi\n      0x0100\n      dup1\n      dup4\n      sload\n      div\n      mul\n      dup4\n      mstore\n      swap2\n      0x20\n      add\n      swap2\n      jump(tag_240)\n    tag_241:\n      dup3\n      add\n      swap2\n      swap1\n      0x00\n      mstore\n      keccak256(0x00, 0x20)\n      swap1\n    tag_242:\n      dup2\n      sload\n      dup2\n      mstore\n      swap1\n      0x01\n      add\n      swap1\n      0x20\n      add\n      dup1\n      dup4\n      gt\n      tag_242\n      jumpi\n      dup3\n      swap1\n      sub\n      0x1f\n      and\n      dup3\n      add\n      swap2\n    tag_240:\n      pop\n      pop\n      pop\n      pop\n      pop\n      dup2\n      mstore\n      0x20\n      add\n      0x02\n      dup3\n      add\n      0x00\n      swap1\n      sload\n      swap1\n      0x0100\n      exp\n      swap1\n      div\n      0xff\n      and\n      iszero\n      iszero\n      iszero\n      iszero\n      dup2\n      mstore\n      0x20\n      add\n      0x03\n      dup3\n      add\n      dup1\n      sload\n      tag_243\n      swap1\n      tag_154\n      jump\t// in\n    tag_243:\n      dup1\n      0x1f\n      add\n      0x20\n      dup1\n      swap2\n      div\n      mul\n      0x20\n      add\n      mload(0x40)\n      swap1\n      dup2\n      add\n      0x40\n      mstore\n      dup1\n      swap3\n      swap2\n      swap1\n      dup2\n      dup2\n      mstore\n      0x20\n      add\n      dup3\n      dup1\n      sload\n      tag_244\n      swap1\n      tag_154\n      jump\t// in\n    tag_244:\n      dup1\n      iszero\n      tag_245\n      jumpi\n      dup1\n      0x1f\n      lt\n      tag_246\n      jumpi\n      0x0100\n      dup1\n      dup4\n      sload\n      div\n      mul\n      dup4\n      mstore\n      swap2\n      0x20\n      add\n      swap2\n      jump(tag_245)\n    tag_246:\n      dup3\n      add\n      swap2\n      swap1\n      0x00\n      mstore\n      keccak256(0x00, 0x20)\n      swap1\n    tag_247:\n      dup2\n      sload\n      dup2\n      mstore\n      swap1\n      0x01\n      add\n      swap1\n      0x20\n      add\n      dup1\n      dup4\n      gt\n      tag_247\n      jumpi\n      dup3\n      swap1\n      sub\n      0x1f\n      and\n      dup3\n      add\n      swap2\n    tag_245:\n      pop\n      pop\n      pop\n      pop\n      pop\n      dup2\n      mstore\n      pop\n      pop\n      swap1\n      pop\n        /* \"ProductContract.sol\":4964:5071  function getSupplier(uint _id) public view returns (Supplier memory) {... */\n      swap2\n      swap1\n      pop\n      jump\t// out\n        /* \"ProductContract.sol\":1202:1431  function addProduct(uint _id, string memory _name, uint _manufacturer_id, uint _supplier_id, string memory _hash) public onlyOwner {... */\n    tag_92:\n        /* \"ProductContract.sol\":270:275  owner */\n      0x00\n      dup1\n      sload\n      swap1\n      0x0100\n      exp\n      swap1\n      div\n      0xffffffffffffffffffffffffffffffffffffffff\n      and\n        /* \"ProductContract.sol\":256:275  msg.sender == owner */\n      0xffffffffffffffffffffffffffffffffffffffff\n      and\n        /* \"ProductContract.sol\":256:266  msg.sender */\n      caller\n        /* \"ProductContract.sol\":256:275  msg.sender == owner */\n      0xffffffffffffffffffffffffffffffffffffffff\n      and\n      eq\n        /* \"ProductContract.sol\":248:326  require(msg.sender == owner, \"Only contract owner can perform this operation\") */\n      tag_249\n      jumpi\n      mload(0x40)\n      0x08c379a000000000000000000000000000000000000000000000000000000000\n      dup2\n      mstore\n      0x04\n      add\n      tag_250\n      swap1\n      tag_108\n      jump\t// in\n    tag_250:\n      mload(0x40)\n      dup1\n      swap2\n      sub\n      swap1\n      revert\n    tag_249:\n        /* \"ProductContract.sol\":1359:1424  Product(_id, _name, _manufacturer_id, _supplier_id, false, _hash) */\n      mload(0x40)\n      dup1\n      0xc0\n      add\n      0x40\n      mstore\n      dup1\n        /* \"ProductContract.sol\":1367:1370  _id */\n      dup7\n        /* \"ProductContract.sol\":1359:1424  Product(_id, _name, _manufacturer_id, _supplier_id, false, _hash) */\n      dup2\n      mstore\n      0x20\n      add\n        /* \"ProductContract.sol\":1372:1377  _name */\n      dup6\n        /* \"ProductContract.sol\":1359:1424  Product(_id, _name, _manufacturer_id, _supplier_id, false, _hash) */\n      dup2\n      mstore\n      0x20\n      add\n        /* \"ProductContract.sol\":1379:1395  _manufacturer_id */\n      dup5\n        /* \"ProductContract.sol\":1359:1424  Product(_id, _name, _manufacturer_id, _supplier_id, false, _hash) */\n      dup2\n      mstore\n      0x20\n      add\n        /* \"ProductContract.sol\":1397:1409  _supplier_id */\n      dup4\n        /* \"ProductContract.sol\":1359:1424  Product(_id, _name, _manufacturer_id, _supplier_id, false, _hash) */\n      dup2\n      mstore\n      0x20\n      add\n        /* \"ProductContract.sol\":1411:1416  false */\n      0x00\n        /* \"ProductContract.sol\":1359:1424  Product(_id, _name, _manufacturer_id, _supplier_id, false, _hash) */\n      iszero\n      iszero\n      dup2\n      mstore\n      0x20\n      add\n        /* \"ProductContract.sol\":1418:1423  _hash */\n      dup3\n        /* \"ProductContract.sol\":1359:1424  Product(_id, _name, _manufacturer_id, _supplier_id, false, _hash) */\n      dup2\n      mstore\n      pop\n        /* \"ProductContract.sol\":1343:1351  products */\n      0x01\n        /* \"ProductContract.sol\":1343:1356  products[_id] */\n      0x00\n        /* \"ProductContract.sol\":1352:1355  _id */\n      dup8\n        /* \"ProductContract.sol\":1343:1356  products[_id] */\n      dup2\n      mstore\n      0x20\n      add\n      swap1\n      dup2\n      mstore\n      0x20\n      add\n      0x00\n      keccak256\n        /* \"ProductContract.sol\":1343:1424  products[_id] = Product(_id, _name, _manufacturer_id, _supplier_id, false, _hash) */\n      0x00\n      dup3\n      add\n      mload\n      dup2\n      0x00\n      add\n      sstore\n      0x20\n      dup3\n      add\n      mload\n      dup2\n      0x01\n      add\n      swap1\n      dup2\n      tag_252\n      swap2\n      swap1\n      tag_131\n      jump\t// in\n    tag_252:\n      pop\n      0x40\n      dup3\n      add\n      mload\n      dup2\n      0x02\n      add\n      sstore\n      0x60\n      dup3\n      add\n      mload\n      dup2\n      0x03\n      add\n      sstore\n      0x80\n      dup3\n      add\n      mload\n      dup2\n      0x04\n      add\n      exp(0x0100, 0x00)\n      dup2\n      sload\n      dup2\n      0xff\n      mul\n      not\n      and\n      swap1\n      dup4\n      iszero\n      iszero\n      mul\n      or\n      swap1\n      sstore\n      pop\n      0xa0\n      dup3\n      add\n      mload\n      dup2\n      0x05\n      add\n      swap1\n      dup2\n      tag_253\n      swap2\n      swap1\n      tag_131\n      jump\t// in\n    tag_253:\n      pop\n      swap1\n      pop\n      pop\n        /* \"ProductContract.sol\":1202:1431  function addProduct(uint _id, string memory _name, uint _manufacturer_id, uint _supplier_id, string memory _hash) public onlyOwner {... */\n      pop\n      pop\n      pop\n      pop\n      pop\n      jump\t// out\n        /* \"ProductContract.sol\":1441:1846  function updateProduct(uint _id, string memory _name, uint _manufacturer_id, uint _supplier_id, string memory _hash) public onlyOwner {... */\n    tag_95:\n        /* \"ProductContract.sol\":270:275  owner */\n      0x00\n      dup1\n      sload\n      swap1\n      0x0100\n      exp\n      swap1\n      div\n      0xffffffffffffffffffffffffffffffffffffffff\n      and\n        /* \"ProductContract.sol\":256:275  msg.sender == owner */\n      0xffffffffffffffffffffffffffffffffffffffff\n      and\n        /* \"ProductContract.sol\":256:266  msg.sender */\n      caller\n        /* \"ProductContract.sol\":256:275  msg.sender == owner */\n      0xffffffffffffffffffffffffffffffffffffffff\n      and\n      eq\n        /* \"ProductContract.sol\":248:326  require(msg.sender == owner, \"Only contract owner can perform this operation\") */\n      tag_255\n      jumpi\n      mload(0x40)\n      0x08c379a000000000000000000000000000000000000000000000000000000000\n      dup2\n      mstore\n      0x04\n      add\n      tag_256\n      swap1\n      tag_108\n      jump\t// in\n    tag_256:\n      mload(0x40)\n      dup1\n      swap2\n      sub\n      swap1\n      revert\n    tag_255:\n        /* \"ProductContract.sol\":1594:1602  products */\n      0x01\n        /* \"ProductContract.sol\":1594:1607  products[_id] */\n      0x00\n        /* \"ProductContract.sol\":1603:1606  _id */\n      dup7\n        /* \"ProductContract.sol\":1594:1607  products[_id] */\n      dup2\n      mstore\n      0x20\n      add\n      swap1\n      dup2\n      mstore\n      0x20\n      add\n      0x00\n      keccak256\n        /* \"ProductContract.sol\":1594:1618  products[_id].is_deleted */\n      0x04\n      add\n      0x00\n      swap1\n      sload\n      swap1\n      0x0100\n      exp\n      swap1\n      div\n      0xff\n      and\n        /* \"ProductContract.sol\":1593:1618  !products[_id].is_deleted */\n      iszero\n        /* \"ProductContract.sol\":1585:1659  require(!products[_id].is_deleted, \"Product does not exist or is deleted\") */\n      tag_258\n      jumpi\n      mload(0x40)\n      0x08c379a000000000000000000000000000000000000000000000000000000000\n      dup2\n      mstore\n      0x04\n      add\n      tag_259\n      swap1\n      tag_126\n      jump\t// in\n    tag_259:\n      mload(0x40)\n      dup1\n      swap2\n      sub\n      swap1\n      revert\n    tag_258:\n        /* \"ProductContract.sol\":1690:1695  _name */\n      dup4\n        /* \"ProductContract.sol\":1669:1677  products */\n      0x01\n        /* \"ProductContract.sol\":1669:1682  products[_id] */\n      0x00\n        /* \"ProductContract.sol\":1678:1681  _id */\n      dup8\n        /* \"ProductContract.sol\":1669:1682  products[_id] */\n      dup2\n      mstore\n      0x20\n      add\n      swap1\n      dup2\n      mstore\n      0x20\n      add\n      0x00\n      keccak256\n        /* \"ProductContract.sol\":1669:1687  products[_id].name */\n      0x01\n      add\n        /* \"ProductContract.sol\":1669:1695  products[_id].name = _name */\n      swap1\n      dup2\n      tag_260\n      swap2\n      swap1\n      tag_131\n      jump\t// in\n    tag_260:\n      pop\n        /* \"ProductContract.sol\":1737:1753  _manufacturer_id */\n      dup3\n        /* \"ProductContract.sol\":1705:1713  products */\n      0x01\n        /* \"ProductContract.sol\":1705:1718  products[_id] */\n      0x00\n        /* \"ProductContract.sol\":1714:1717  _id */\n      dup8\n        /* \"ProductContract.sol\":1705:1718  products[_id] */\n      dup2\n      mstore\n      0x20\n      add\n      swap1\n      dup2\n      mstore\n      0x20\n      add\n      0x00\n      keccak256\n        /* \"ProductContract.sol\":1705:1734  products[_id].manufacturer_id */\n      0x02\n      add\n        /* \"ProductContract.sol\":1705:1753  products[_id].manufacturer_id = _manufacturer_id */\n      dup2\n      swap1\n      sstore\n      pop\n        /* \"ProductContract.sol\":1791:1803  _supplier_id */\n      dup2\n        /* \"ProductContract.sol\":1763:1771  products */\n      0x01\n        /* \"ProductContract.sol\":1763:1776  products[_id] */\n      0x00\n        /* \"ProductContract.sol\":1772:1775  _id */\n      dup8\n        /* \"ProductContract.sol\":1763:1776  products[_id] */\n      dup2\n      mstore\n      0x20\n      add\n      swap1\n      dup2\n      mstore\n      0x20\n      add\n      0x00\n      keccak256\n        /* \"ProductContract.sol\":1763:1788  products[_id].supplier_id */\n      0x03\n      add\n        /* \"ProductContract.sol\":1763:1803  products[_id].supplier_id = _supplier_id */\n      dup2\n      swap1\n      sstore\n      pop\n        /* \"ProductContract.sol\":1834:1839  _hash */\n      dup1\n        /* \"ProductContract.sol\":1813:1821  products */\n      0x01\n        /* \"ProductContract.sol\":1813:1826  products[_id] */\n      0x00\n        /* \"ProductContract.sol\":1822:1825  _id */\n      dup8\n        /* \"ProductContract.sol\":1813:1826  products[_id] */\n      dup2\n      mstore\n      0x20\n      add\n      swap1\n      dup2\n      mstore\n      0x20\n      add\n      0x00\n      keccak256\n        /* \"ProductContract.sol\":1813:1831  products[_id].hash */\n      0x05\n      add\n        /* \"ProductContract.sol\":1813:1839  products[_id].hash = _hash */\n      swap1\n      dup2\n      tag_261\n      swap2\n      swap1\n      tag_131\n      jump\t// in\n    tag_261:\n      pop\n        /* \"ProductContract.sol\":1441:1846  function updateProduct(uint _id, string memory _name, uint _manufacturer_id, uint _supplier_id, string memory _hash) public onlyOwner {... */\n      pop\n      pop\n      pop\n      pop\n      pop\n      jump\t// out\n        /* \"ProductContract.sol\":1856:2046  function deleteProduct(uint _id) public onlyOwner {... */\n    tag_98:\n        /* \"ProductContract.sol\":270:275  owner */\n      0x00\n      dup1\n      sload\n      swap1\n      0x0100\n      exp\n      swap1\n      div\n      0xffffffffffffffffffffffffffffffffffffffff\n      and\n        /* \"ProductContract.sol\":256:275  msg.sender == owner */\n      0xffffffffffffffffffffffffffffffffffffffff\n      and\n        /* \"ProductContract.sol\":256:266  msg.sender */\n      caller\n        /* \"ProductContract.sol\":256:275  msg.sender == owner */\n      0xffffffffffffffffffffffffffffffffffffffff\n      and\n      eq\n        /* \"ProductContract.sol\":248:326  require(msg.sender == owner, \"Only contract owner can perform this operation\") */\n      tag_263\n      jumpi\n      mload(0x40)\n      0x08c379a000000000000000000000000000000000000000000000000000000000\n      dup2\n      mstore\n      0x04\n      add\n      tag_264\n      swap1\n      tag_108\n      jump\t// in\n    tag_264:\n      mload(0x40)\n      dup1\n      swap2\n      sub\n      swap1\n      revert\n    tag_263:\n        /* \"ProductContract.sol\":1925:1933  products */\n      0x01\n        /* \"ProductContract.sol\":1925:1938  products[_id] */\n      0x00\n        /* \"ProductContract.sol\":1934:1937  _id */\n      dup3\n        /* \"ProductContract.sol\":1925:1938  products[_id] */\n      dup2\n      mstore\n      0x20\n      add\n      swap1\n      dup2\n      mstore\n      0x20\n      add\n      0x00\n      keccak256\n        /* \"ProductContract.sol\":1925:1949  products[_id].is_deleted */\n      0x04\n      add\n      0x00\n      swap1\n      sload\n      swap1\n      0x0100\n      exp\n      swap1\n      div\n      0xff\n      and\n        /* \"ProductContract.sol\":1924:1949  !products[_id].is_deleted */\n      iszero\n        /* \"ProductContract.sol\":1916:1998  require(!products[_id].is_deleted, \"Product does not exist or is already deleted\") */\n      tag_266\n      jumpi\n      mload(0x40)\n      0x08c379a000000000000000000000000000000000000000000000000000000000\n      dup2\n      mstore\n      0x04\n      add\n      tag_267\n      swap1\n      tag_268\n      jump\t// in\n    tag_267:\n      mload(0x40)\n      dup1\n      swap2\n      sub\n      swap1\n      revert\n    tag_266:\n        /* \"ProductContract.sol\":2035:2039  true */\n      0x01\n        /* \"ProductContract.sol\":2008:2016  products */\n      dup1\n        /* \"ProductContract.sol\":2008:2021  products[_id] */\n      0x00\n        /* \"ProductContract.sol\":2017:2020  _id */\n      dup4\n        /* \"ProductContract.sol\":2008:2021  products[_id] */\n      dup2\n      mstore\n      0x20\n      add\n      swap1\n      dup2\n      mstore\n      0x20\n      add\n      0x00\n      keccak256\n        /* \"ProductContract.sol\":2008:2032  products[_id].is_deleted */\n      0x04\n      add\n      0x00\n        /* \"ProductContract.sol\":2008:2039  products[_id].is_deleted = true */\n      0x0100\n      exp\n      dup2\n      sload\n      dup2\n      0xff\n      mul\n      not\n      and\n      swap1\n      dup4\n      iszero\n      iszero\n      mul\n      or\n      swap1\n      sstore\n      pop\n        /* \"ProductContract.sol\":1856:2046  function deleteProduct(uint _id) public onlyOwner {... */\n      pop\n      jump\t// out\n        /* \"ProductContract.sol\":4394:4778  function deleteTransaction(uint _product_id, uint _transaction_id) public onlyOwner {... */\n    tag_101:\n        /* \"ProductContract.sol\":270:275  owner */\n      0x00\n      dup1\n      sload\n      swap1\n      0x0100\n      exp\n      swap1\n      div\n      0xffffffffffffffffffffffffffffffffffffffff\n      and\n        /* \"ProductContract.sol\":256:275  msg.sender == owner */\n      0xffffffffffffffffffffffffffffffffffffffff\n      and\n        /* \"ProductContract.sol\":256:266  msg.sender */\n      caller\n        /* \"ProductContract.sol\":256:275  msg.sender == owner */\n      0xffffffffffffffffffffffffffffffffffffffff\n      and\n      eq\n        /* \"ProductContract.sol\":248:326  require(msg.sender == owner, \"Only contract owner can perform this operation\") */\n      tag_270\n      jumpi\n      mload(0x40)\n      0x08c379a000000000000000000000000000000000000000000000000000000000\n      dup2\n      mstore\n      0x04\n      add\n      tag_271\n      swap1\n      tag_108\n      jump\t// in\n    tag_271:\n      mload(0x40)\n      dup1\n      swap2\n      sub\n      swap1\n      revert\n    tag_270:\n        /* \"ProductContract.sol\":4497:4505  products */\n      0x01\n        /* \"ProductContract.sol\":4497:4518  products[_product_id] */\n      0x00\n        /* \"ProductContract.sol\":4506:4517  _product_id */\n      dup4\n        /* \"ProductContract.sol\":4497:4518  products[_product_id] */\n      dup2\n      mstore\n      0x20\n      add\n      swap1\n      dup2\n      mstore\n      0x20\n      add\n      0x00\n      keccak256\n        /* \"ProductContract.sol\":4497:4529  products[_product_id].is_deleted */\n      0x04\n      add\n      0x00\n      swap1\n      sload\n      swap1\n      0x0100\n      exp\n      swap1\n      div\n      0xff\n      and\n        /* \"ProductContract.sol\":4496:4529  !products[_product_id].is_deleted */\n      iszero\n        /* \"ProductContract.sol\":4488:4570  require(!products[_product_id].is_deleted, \"Product does not exist or is deleted\") */\n      tag_273\n      jumpi\n      mload(0x40)\n      0x08c379a000000000000000000000000000000000000000000000000000000000\n      dup2\n      mstore\n      0x04\n      add\n      tag_274\n      swap1\n      tag_126\n      jump\t// in\n    tag_274:\n      mload(0x40)\n      dup1\n      swap2\n      sub\n      swap1\n      revert\n    tag_273:\n        /* \"ProductContract.sol\":4589:4608  productTransactions */\n      0x04\n        /* \"ProductContract.sol\":4589:4621  productTransactions[_product_id] */\n      0x00\n        /* \"ProductContract.sol\":4609:4620  _product_id */\n      dup4\n        /* \"ProductContract.sol\":4589:4621  productTransactions[_product_id] */\n      dup2\n      mstore\n      0x20\n      add\n      swap1\n      dup2\n      mstore\n      0x20\n      add\n      0x00\n      keccak256\n        /* \"ProductContract.sol\":4589:4638  productTransactions[_product_id][_transaction_id] */\n      0x00\n        /* \"ProductContract.sol\":4622:4637  _transaction_id */\n      dup3\n        /* \"ProductContract.sol\":4589:4638  productTransactions[_product_id][_transaction_id] */\n      dup2\n      mstore\n      0x20\n      add\n      swap1\n      dup2\n      mstore\n      0x20\n      add\n      0x00\n      keccak256\n        /* \"ProductContract.sol\":4589:4649  productTransactions[_product_id][_transaction_id].is_deleted */\n      0x02\n      add\n      0x00\n      swap1\n      sload\n      swap1\n      0x0100\n      exp\n      swap1\n      div\n      0xff\n      and\n        /* \"ProductContract.sol\":4588:4649  !productTransactions[_product_id][_transaction_id].is_deleted */\n      iszero\n        /* \"ProductContract.sol\":4580:4694  require(!productTransactions[_product_id][_transaction_id].is_deleted, \"Transaction does not exist or is deleted\") */\n      tag_275\n      jumpi\n      mload(0x40)\n      0x08c379a000000000000000000000000000000000000000000000000000000000\n      dup2\n      mstore\n      0x04\n      add\n      tag_276\n      swap1\n      tag_129\n      jump\t// in\n    tag_276:\n      mload(0x40)\n      dup1\n      swap2\n      sub\n      swap1\n      revert\n    tag_275:\n        /* \"ProductContract.sol\":4767:4771  true */\n      0x01\n        /* \"ProductContract.sol\":4704:4723  productTransactions */\n      0x04\n        /* \"ProductContract.sol\":4704:4736  productTransactions[_product_id] */\n      0x00\n        /* \"ProductContract.sol\":4724:4735  _product_id */\n      dup5\n        /* \"ProductContract.sol\":4704:4736  productTransactions[_product_id] */\n      dup2\n      mstore\n      0x20\n      add\n      swap1\n      dup2\n      mstore\n      0x20\n      add\n      0x00\n      keccak256\n        /* \"ProductContract.sol\":4704:4753  productTransactions[_product_id][_transaction_id] */\n      0x00\n        /* \"ProductContract.sol\":4737:4752  _transaction_id */\n      dup4\n        /* \"ProductContract.sol\":4704:4753  productTransactions[_product_id][_transaction_id] */\n      dup2\n      mstore\n      0x20\n      add\n      swap1\n      dup2\n      mstore\n      0x20\n      add\n      0x00\n      keccak256\n        /* \"ProductContract.sol\":4704:4764  productTransactions[_product_id][_transaction_id].is_deleted */\n      0x02\n      add\n      0x00\n        /* \"ProductContract.sol\":4704:4771  productTransactions[_product_id][_transaction_id].is_deleted = true */\n      0x0100\n      exp\n      dup2\n      sload\n      dup2\n      0xff\n      mul\n      not\n      and\n      swap1\n      dup4\n      iszero\n      iszero\n      mul\n      or\n      swap1\n      sstore\n      pop\n        /* \"ProductContract.sol\":4394:4778  function deleteTransaction(uint _product_id, uint _transaction_id) public onlyOwner {... */\n      pop\n      pop\n      jump\t// out\n        /* \"ProductContract.sol\":2087:2245  function addSupplier(uint _id, string memory _name, string memory _hash) public onlyOwner {... */\n    tag_104:\n        /* \"ProductContract.sol\":270:275  owner */\n      0x00\n      dup1\n      sload\n      swap1\n      0x0100\n      exp\n      swap1\n      div\n      0xffffffffffffffffffffffffffffffffffffffff\n      and\n        /* \"ProductContract.sol\":256:275  msg.sender == owner */\n      0xffffffffffffffffffffffffffffffffffffffff\n      and\n        /* \"ProductContract.sol\":256:266  msg.sender */\n      caller\n        /* \"ProductContract.sol\":256:275  msg.sender == owner */\n      0xffffffffffffffffffffffffffffffffffffffff\n      and\n      eq\n        /* \"ProductContract.sol\":248:326  require(msg.sender == owner, \"Only contract owner can perform this operation\") */\n      tag_278\n      jumpi\n      mload(0x40)\n      0x08c379a000000000000000000000000000000000000000000000000000000000\n      dup2\n      mstore\n      0x04\n      add\n      tag_279\n      swap1\n      tag_108\n      jump\t// in\n    tag_279:\n      mload(0x40)\n      dup1\n      swap2\n      sub\n      swap1\n      revert\n    tag_278:\n        /* \"ProductContract.sol\":2204:2238  Supplier(_id, _name, false, _hash) */\n      mload(0x40)\n      dup1\n      0x80\n      add\n      0x40\n      mstore\n      dup1\n        /* \"ProductContract.sol\":2213:2216  _id */\n      dup5\n        /* \"ProductContract.sol\":2204:2238  Supplier(_id, _name, false, _hash) */\n      dup2\n      mstore\n      0x20\n      add\n        /* \"ProductContract.sol\":2218:2223  _name */\n      dup4\n        /* \"ProductContract.sol\":2204:2238  Supplier(_id, _name, false, _hash) */\n      dup2\n      mstore\n      0x20\n      add\n        /* \"ProductContract.sol\":2225:2230  false */\n      0x00\n        /* \"ProductContract.sol\":2204:2238  Supplier(_id, _name, false, _hash) */\n      iszero\n      iszero\n      dup2\n      mstore\n      0x20\n      add\n        /* \"ProductContract.sol\":2232:2237  _hash */\n      dup3\n        /* \"ProductContract.sol\":2204:2238  Supplier(_id, _name, false, _hash) */\n      dup2\n      mstore\n      pop\n        /* \"ProductContract.sol\":2187:2196  suppliers */\n      0x02\n        /* \"ProductContract.sol\":2187:2201  suppliers[_id] */\n      0x00\n        /* \"ProductContract.sol\":2197:2200  _id */\n      dup6\n        /* \"ProductContract.sol\":2187:2201  suppliers[_id] */\n      dup2\n      mstore\n      0x20\n      add\n      swap1\n      dup2\n      mstore\n      0x20\n      add\n      0x00\n      keccak256\n        /* \"ProductContract.sol\":2187:2238  suppliers[_id] = Supplier(_id, _name, false, _hash) */\n      0x00\n      dup3\n      add\n      mload\n      dup2\n      0x00\n      add\n      sstore\n      0x20\n      dup3\n      add\n      mload\n      dup2\n      0x01\n      add\n      swap1\n      dup2\n      tag_281\n      swap2\n      swap1\n      tag_131\n      jump\t// in\n    tag_281:\n      pop\n      0x40\n      dup3\n      add\n      mload\n      dup2\n      0x02\n      add\n      exp(0x0100, 0x00)\n      dup2\n      sload\n      dup2\n      0xff\n      mul\n      not\n      and\n      swap1\n      dup4\n      iszero\n      iszero\n      mul\n      or\n      swap1\n      sstore\n      pop\n      0x60\n      dup3\n      add\n      mload\n      dup2\n      0x03\n      add\n      swap1\n      dup2\n      tag_282\n      swap2\n      swap1\n      tag_131\n      jump\t// in\n    tag_282:\n      pop\n      swap1\n      pop\n      pop\n        /* \"ProductContract.sol\":2087:2245  function addSupplier(uint _id, string memory _name, string memory _hash) public onlyOwner {... */\n      pop\n      pop\n      pop\n      jump\t// out\n    tag_151:\n      mload(0x40)\n      dup1\n      0x80\n      add\n      0x40\n      mstore\n      dup1\n      0x00\n      dup2\n      mstore\n      0x20\n      add\n      0x60\n      dup2\n      mstore\n      0x20\n      add\n      iszero(iszero(0x00))\n      dup2\n      mstore\n      0x20\n      add\n      0x60\n      dup2\n      mstore\n      pop\n      swap1\n      jump\t// out\n    tag_191:\n      mload(0x40)\n      dup1\n      0x80\n      add\n      0x40\n      mstore\n      dup1\n      0x00\n      dup2\n      mstore\n      0x20\n      add\n      0x60\n      dup2\n      mstore\n      0x20\n      add\n      iszero(iszero(0x00))\n      dup2\n      mstore\n      0x20\n      add\n      0x60\n      dup2\n      mstore\n      pop\n      swap1\n      jump\t// out\n    tag_204:\n      mload(0x40)\n      dup1\n      0xc0\n      add\n      0x40\n      mstore\n      dup1\n      0x00\n      dup2\n      mstore\n      0x20\n      add\n      0x60\n      dup2\n      mstore\n      0x20\n      add\n      0x00\n      dup2\n      mstore\n      0x20\n      add\n      0x00\n      dup2\n      mstore\n      0x20\n      add\n      iszero(iszero(0x00))\n      dup2\n      mstore\n      0x20\n      add\n      0x60\n      dup2\n      mstore\n      pop\n      swap1\n      jump\t// out\n    tag_236:\n      mload(0x40)\n      dup1\n      0x80\n      add\n      0x40\n      mstore\n      dup1\n      0x00\n      dup2\n      mstore\n      0x20\n      add\n      0x60\n      dup2\n      mstore\n      0x20\n      add\n      iszero(iszero(0x00))\n      dup2\n      mstore\n      0x20\n      add\n      0x60\n      dup2\n      mstore\n      pop\n      swap1\n      jump\t// out\n        /* \"#utility.yul\":7:82   */\n    tag_283:\n        /* \"#utility.yul\":40:46   */\n      0x00\n        /* \"#utility.yul\":73:75   */\n      0x40\n        /* \"#utility.yul\":67:76   */\n      mload\n        /* \"#utility.yul\":57:76   */\n      swap1\n      pop\n        /* \"#utility.yul\":7:82   */\n      swap1\n      jump\t// out\n        /* \"#utility.yul\":88:205   */\n    tag_284:\n        /* \"#utility.yul\":197:198   */\n      0x00\n        /* \"#utility.yul\":194:195   */\n      dup1\n        /* \"#utility.yul\":187:199   */\n      revert\n        /* \"#utility.yul\":211:328   */\n    tag_285:\n        /* \"#utility.yul\":320:321   */\n      0x00\n        /* \"#utility.yul\":317:318   */\n      dup1\n        /* \"#utility.yul\":310:322   */\n      revert\n        /* \"#utility.yul\":334:411   */\n    tag_286:\n        /* \"#utility.yul\":371:378   */\n      0x00\n        /* \"#utility.yul\":400:405   */\n      dup2\n        /* \"#utility.yul\":389:405   */\n      swap1\n      pop\n        /* \"#utility.yul\":334:411   */\n      swap2\n      swap1\n      pop\n      jump\t// out\n        /* \"#utility.yul\":417:539   */\n    tag_287:\n        /* \"#utility.yul\":490:514   */\n      tag_355\n        /* \"#utility.yul\":508:513   */\n      dup2\n        /* \"#utility.yul\":490:514   */\n      tag_286\n      jump\t// in\n    tag_355:\n        /* \"#utility.yul\":483:488   */\n      dup2\n        /* \"#utility.yul\":480:515   */\n      eq\n        /* \"#utility.yul\":470:533   */\n      tag_356\n      jumpi\n        /* \"#utility.yul\":529:530   */\n      0x00\n        /* \"#utility.yul\":526:527   */\n      dup1\n        /* \"#utility.yul\":519:531   */\n      revert\n        /* \"#utility.yul\":470:533   */\n    tag_356:\n        /* \"#utility.yul\":417:539   */\n      pop\n      jump\t// out\n        /* \"#utility.yul\":545:684   */\n    tag_288:\n        /* \"#utility.yul\":591:596   */\n      0x00\n        /* \"#utility.yul\":629:635   */\n      dup2\n        /* \"#utility.yul\":616:636   */\n      calldataload\n        /* \"#utility.yul\":607:636   */\n      swap1\n      pop\n        /* \"#utility.yul\":645:678   */\n      tag_358\n        /* \"#utility.yul\":672:677   */\n      dup2\n        /* \"#utility.yul\":645:678   */\n      tag_287\n      jump\t// in\n    tag_358:\n        /* \"#utility.yul\":545:684   */\n      swap3\n      swap2\n      pop\n      pop\n      jump\t// out\n        /* \"#utility.yul\":690:1019   */\n    tag_28:\n        /* \"#utility.yul\":749:755   */\n      0x00\n        /* \"#utility.yul\":798:800   */\n      0x20\n        /* \"#utility.yul\":786:795   */\n      dup3\n        /* \"#utility.yul\":777:784   */\n      dup5\n        /* \"#utility.yul\":773:796   */\n      sub\n        /* \"#utility.yul\":769:801   */\n      slt\n        /* \"#utility.yul\":766:885   */\n      iszero\n      tag_360\n      jumpi\n        /* \"#utility.yul\":804:883   */\n      tag_361\n      tag_284\n      jump\t// in\n    tag_361:\n        /* \"#utility.yul\":766:885   */\n    tag_360:\n        /* \"#utility.yul\":924:925   */\n      0x00\n        /* \"#utility.yul\":949:1002   */\n      tag_362\n        /* \"#utility.yul\":994:1001   */\n      dup5\n        /* \"#utility.yul\":985:991   */\n      dup3\n        /* \"#utility.yul\":974:983   */\n      dup6\n        /* \"#utility.yul\":970:992   */\n      add\n        /* \"#utility.yul\":949:1002   */\n      tag_288\n      jump\t// in\n    tag_362:\n        /* \"#utility.yul\":939:1002   */\n      swap2\n      pop\n        /* \"#utility.yul\":895:1012   */\n      pop\n        /* \"#utility.yul\":690:1019   */\n      swap3\n      swap2\n      pop\n      pop\n      jump\t// out\n        /* \"#utility.yul\":1025:1142   */\n    tag_289:\n        /* \"#utility.yul\":1134:1135   */\n      0x00\n        /* \"#utility.yul\":1131:1132   */\n      dup1\n        /* \"#utility.yul\":1124:1136   */\n      revert\n        /* \"#utility.yul\":1148:1265   */\n    tag_290:\n        /* \"#utility.yul\":1257:1258   */\n      0x00\n        /* \"#utility.yul\":1254:1255   */\n      dup1\n        /* \"#utility.yul\":1247:1259   */\n      revert\n        /* \"#utility.yul\":1271:1373   */\n    tag_291:\n        /* \"#utility.yul\":1312:1318   */\n      0x00\n        /* \"#utility.yul\":1363:1365   */\n      0x1f\n        /* \"#utility.yul\":1359:1366   */\n      not\n        /* \"#utility.yul\":1354:1356   */\n      0x1f\n        /* \"#utility.yul\":1347:1352   */\n      dup4\n        /* \"#utility.yul\":1343:1357   */\n      add\n        /* \"#utility.yul\":1339:1367   */\n      and\n        /* \"#utility.yul\":1329:1367   */\n      swap1\n      pop\n        /* \"#utility.yul\":1271:1373   */\n      swap2\n      swap1\n      pop\n      jump\t// out\n        /* \"#utility.yul\":1379:1559   */\n    tag_292:\n        /* \"#utility.yul\":1427:1504   */\n      0x4e487b7100000000000000000000000000000000000000000000000000000000\n        /* \"#utility.yul\":1424:1425   */\n      0x00\n        /* \"#utility.yul\":1417:1505   */\n      mstore\n        /* \"#utility.yul\":1524:1528   */\n      0x41\n        /* \"#utility.yul\":1521:1522   */\n      0x04\n        /* \"#utility.yul\":1514:1529   */\n      mstore\n        /* \"#utility.yul\":1548:1552   */\n      0x24\n        /* \"#utility.yul\":1545:1546   */\n      0x00\n        /* \"#utility.yul\":1538:1553   */\n      revert\n        /* \"#utility.yul\":1565:1846   */\n    tag_293:\n        /* \"#utility.yul\":1648:1675   */\n      tag_368\n        /* \"#utility.yul\":1670:1674   */\n      dup3\n        /* \"#utility.yul\":1648:1675   */\n      tag_291\n      jump\t// in\n    tag_368:\n        /* \"#utility.yul\":1640:1646   */\n      dup2\n        /* \"#utility.yul\":1636:1676   */\n      add\n        /* \"#utility.yul\":1778:1784   */\n      dup2\n        /* \"#utility.yul\":1766:1776   */\n      dup2\n        /* \"#utility.yul\":1763:1785   */\n      lt\n        /* \"#utility.yul\":1742:1760   */\n      0xffffffffffffffff\n        /* \"#utility.yul\":1730:1740   */\n      dup3\n        /* \"#utility.yul\":1727:1761   */\n      gt\n        /* \"#utility.yul\":1724:1786   */\n      or\n        /* \"#utility.yul\":1721:1809   */\n      iszero\n      tag_369\n      jumpi\n        /* \"#utility.yul\":1789:1807   */\n      tag_370\n      tag_292\n      jump\t// in\n    tag_370:\n        /* \"#utility.yul\":1721:1809   */\n    tag_369:\n        /* \"#utility.yul\":1829:1839   */\n      dup1\n        /* \"#utility.yul\":1825:1827   */\n      0x40\n        /* \"#utility.yul\":1818:1840   */\n      mstore\n        /* \"#utility.yul\":1608:1846   */\n      pop\n        /* \"#utility.yul\":1565:1846   */\n      pop\n      pop\n      jump\t// out\n        /* \"#utility.yul\":1852:1981   */\n    tag_294:\n        /* \"#utility.yul\":1886:1892   */\n      0x00\n        /* \"#utility.yul\":1913:1933   */\n      tag_372\n      tag_283\n      jump\t// in\n    tag_372:\n        /* \"#utility.yul\":1903:1933   */\n      swap1\n      pop\n        /* \"#utility.yul\":1942:1975   */\n      tag_373\n        /* \"#utility.yul\":1970:1974   */\n      dup3\n        /* \"#utility.yul\":1962:1968   */\n      dup3\n        /* \"#utility.yul\":1942:1975   */\n      tag_293\n      jump\t// in\n    tag_373:\n        /* \"#utility.yul\":1852:1981   */\n      swap2\n      swap1\n      pop\n      jump\t// out\n        /* \"#utility.yul\":1987:2295   */\n    tag_295:\n        /* \"#utility.yul\":2049:2053   */\n      0x00\n        /* \"#utility.yul\":2139:2157   */\n      0xffffffffffffffff\n        /* \"#utility.yul\":2131:2137   */\n      dup3\n        /* \"#utility.yul\":2128:2158   */\n      gt\n        /* \"#utility.yul\":2125:2181   */\n      iszero\n      tag_375\n      jumpi\n        /* \"#utility.yul\":2161:2179   */\n      tag_376\n      tag_292\n      jump\t// in\n    tag_376:\n        /* \"#utility.yul\":2125:2181   */\n    tag_375:\n        /* \"#utility.yul\":2199:2228   */\n      tag_377\n        /* \"#utility.yul\":2221:2227   */\n      dup3\n        /* \"#utility.yul\":2199:2228   */\n      tag_291\n      jump\t// in\n    tag_377:\n        /* \"#utility.yul\":2191:2228   */\n      swap1\n      pop\n        /* \"#utility.yul\":2283:2287   */\n      0x20\n        /* \"#utility.yul\":2277:2281   */\n      dup2\n        /* \"#utility.yul\":2273:2288   */\n      add\n        /* \"#utility.yul\":2265:2288   */\n      swap1\n      pop\n        /* \"#utility.yul\":1987:2295   */\n      swap2\n      swap1\n      pop\n      jump\t// out\n        /* \"#utility.yul\":2301:2447   */\n    tag_296:\n        /* \"#utility.yul\":2398:2404   */\n      dup3\n        /* \"#utility.yul\":2393:2396   */\n      dup2\n        /* \"#utility.yul\":2388:2391   */\n      dup4\n        /* \"#utility.yul\":2375:2405   */\n      calldatacopy\n        /* \"#utility.yul\":2439:2440   */\n      0x00\n        /* \"#utility.yul\":2430:2436   */\n      dup4\n        /* \"#utility.yul\":2425:2428   */\n      dup4\n        /* \"#utility.yul\":2421:2437   */\n      add\n        /* \"#utility.yul\":2414:2441   */\n      mstore\n        /* \"#utility.yul\":2301:2447   */\n      pop\n      pop\n      pop\n      jump\t// out\n        /* \"#utility.yul\":2453:2878   */\n    tag_297:\n        /* \"#utility.yul\":2531:2536   */\n      0x00\n        /* \"#utility.yul\":2556:2622   */\n      tag_380\n        /* \"#utility.yul\":2572:2621   */\n      tag_381\n        /* \"#utility.yul\":2614:2620   */\n      dup5\n        /* \"#utility.yul\":2572:2621   */\n      tag_295\n      jump\t// in\n    tag_381:\n        /* \"#utility.yul\":2556:2622   */\n      tag_294\n      jump\t// in\n    tag_380:\n        /* \"#utility.yul\":2547:2622   */\n      swap1\n      pop\n        /* \"#utility.yul\":2645:2651   */\n      dup3\n        /* \"#utility.yul\":2638:2643   */\n      dup2\n        /* \"#utility.yul\":2631:2652   */\n      mstore\n        /* \"#utility.yul\":2683:2687   */\n      0x20\n        /* \"#utility.yul\":2676:2681   */\n      dup2\n        /* \"#utility.yul\":2672:2688   */\n      add\n        /* \"#utility.yul\":2721:2724   */\n      dup5\n        /* \"#utility.yul\":2712:2718   */\n      dup5\n        /* \"#utility.yul\":2707:2710   */\n      dup5\n        /* \"#utility.yul\":2703:2719   */\n      add\n        /* \"#utility.yul\":2700:2725   */\n      gt\n        /* \"#utility.yul\":2697:2809   */\n      iszero\n      tag_382\n      jumpi\n        /* \"#utility.yul\":2728:2807   */\n      tag_383\n      tag_290\n      jump\t// in\n    tag_383:\n        /* \"#utility.yul\":2697:2809   */\n    tag_382:\n        /* \"#utility.yul\":2818:2872   */\n      tag_384\n        /* \"#utility.yul\":2865:2871   */\n      dup5\n        /* \"#utility.yul\":2860:2863   */\n      dup3\n        /* \"#utility.yul\":2855:2858   */\n      dup6\n        /* \"#utility.yul\":2818:2872   */\n      tag_296\n      jump\t// in\n    tag_384:\n        /* \"#utility.yul\":2537:2878   */\n      pop\n        /* \"#utility.yul\":2453:2878   */\n      swap4\n      swap3\n      pop\n      pop\n      pop\n      jump\t// out\n        /* \"#utility.yul\":2898:3238   */\n    tag_298:\n        /* \"#utility.yul\":2954:2959   */\n      0x00\n        /* \"#utility.yul\":3003:3006   */\n      dup3\n        /* \"#utility.yul\":2996:3000   */\n      0x1f\n        /* \"#utility.yul\":2988:2994   */\n      dup4\n        /* \"#utility.yul\":2984:3001   */\n      add\n        /* \"#utility.yul\":2980:3007   */\n      slt\n        /* \"#utility.yul\":2970:3092   */\n      tag_386\n      jumpi\n        /* \"#utility.yul\":3011:3090   */\n      tag_387\n      tag_289\n      jump\t// in\n    tag_387:\n        /* \"#utility.yul\":2970:3092   */\n    tag_386:\n        /* \"#utility.yul\":3128:3134   */\n      dup2\n        /* \"#utility.yul\":3115:3135   */\n      calldataload\n        /* \"#utility.yul\":3153:3232   */\n      tag_388\n        /* \"#utility.yul\":3228:3231   */\n      dup5\n        /* \"#utility.yul\":3220:3226   */\n      dup3\n        /* \"#utility.yul\":3213:3217   */\n      0x20\n        /* \"#utility.yul\":3205:3211   */\n      dup7\n        /* \"#utility.yul\":3201:3218   */\n      add\n        /* \"#utility.yul\":3153:3232   */\n      tag_297\n      jump\t// in\n    tag_388:\n        /* \"#utility.yul\":3144:3232   */\n      swap2\n      pop\n        /* \"#utility.yul\":2960:3238   */\n      pop\n        /* \"#utility.yul\":2898:3238   */\n      swap3\n      swap2\n      pop\n      pop\n      jump\t// out\n        /* \"#utility.yul\":3244:4369   */\n    tag_35:\n        /* \"#utility.yul\":3350:3356   */\n      0x00\n        /* \"#utility.yul\":3358:3364   */\n      dup1\n        /* \"#utility.yul\":3366:3372   */\n      0x00\n        /* \"#utility.yul\":3374:3380   */\n      dup1\n        /* \"#utility.yul\":3423:3426   */\n      0x80\n        /* \"#utility.yul\":3411:3420   */\n      dup6\n        /* \"#utility.yul\":3402:3409   */\n      dup8\n        /* \"#utility.yul\":3398:3421   */\n      sub\n        /* \"#utility.yul\":3394:3427   */\n      slt\n        /* \"#utility.yul\":3391:3511   */\n      iszero\n      tag_390\n      jumpi\n        /* \"#utility.yul\":3430:3509   */\n      tag_391\n      tag_284\n      jump\t// in\n    tag_391:\n        /* \"#utility.yul\":3391:3511   */\n    tag_390:\n        /* \"#utility.yul\":3550:3551   */\n      0x00\n        /* \"#utility.yul\":3575:3628   */\n      tag_392\n        /* \"#utility.yul\":3620:3627   */\n      dup8\n        /* \"#utility.yul\":3611:3617   */\n      dup3\n        /* \"#utility.yul\":3600:3609   */\n      dup9\n        /* \"#utility.yul\":3596:3618   */\n      add\n        /* \"#utility.yul\":3575:3628   */\n      tag_288\n      jump\t// in\n    tag_392:\n        /* \"#utility.yul\":3565:3628   */\n      swap5\n      pop\n        /* \"#utility.yul\":3521:3638   */\n      pop\n        /* \"#utility.yul\":3677:3679   */\n      0x20\n        /* \"#utility.yul\":3703:3756   */\n      tag_393\n        /* \"#utility.yul\":3748:3755   */\n      dup8\n        /* \"#utility.yul\":3739:3745   */\n      dup3\n        /* \"#utility.yul\":3728:3737   */\n      dup9\n        /* \"#utility.yul\":3724:3746   */\n      add\n        /* \"#utility.yul\":3703:3756   */\n      tag_288\n      jump\t// in\n    tag_393:\n        /* \"#utility.yul\":3693:3756   */\n      swap4\n      pop\n        /* \"#utility.yul\":3648:3766   */\n      pop\n        /* \"#utility.yul\":3833:3835   */\n      0x40\n        /* \"#utility.yul\":3822:3831   */\n      dup6\n        /* \"#utility.yul\":3818:3836   */\n      add\n        /* \"#utility.yul\":3805:3837   */\n      calldataload\n        /* \"#utility.yul\":3864:3882   */\n      0xffffffffffffffff\n        /* \"#utility.yul\":3856:3862   */\n      dup2\n        /* \"#utility.yul\":3853:3883   */\n      gt\n        /* \"#utility.yul\":3850:3967   */\n      iszero\n      tag_394\n      jumpi\n        /* \"#utility.yul\":3886:3965   */\n      tag_395\n      tag_285\n      jump\t// in\n    tag_395:\n        /* \"#utility.yul\":3850:3967   */\n    tag_394:\n        /* \"#utility.yul\":3991:4054   */\n      tag_396\n        /* \"#utility.yul\":4046:4053   */\n      dup8\n        /* \"#utility.yul\":4037:4043   */\n      dup3\n        /* \"#utility.yul\":4026:4035   */\n      dup9\n        /* \"#utility.yul\":4022:4044   */\n      add\n        /* \"#utility.yul\":3991:4054   */\n      tag_298\n      jump\t// in\n    tag_396:\n        /* \"#utility.yul\":3981:4054   */\n      swap3\n      pop\n        /* \"#utility.yul\":3776:4064   */\n      pop\n        /* \"#utility.yul\":4131:4133   */\n      0x60\n        /* \"#utility.yul\":4120:4129   */\n      dup6\n        /* \"#utility.yul\":4116:4134   */\n      add\n        /* \"#utility.yul\":4103:4135   */\n      calldataload\n        /* \"#utility.yul\":4162:4180   */\n      0xffffffffffffffff\n        /* \"#utility.yul\":4154:4160   */\n      dup2\n        /* \"#utility.yul\":4151:4181   */\n      gt\n        /* \"#utility.yul\":4148:4265   */\n      iszero\n      tag_397\n      jumpi\n        /* \"#utility.yul\":4184:4263   */\n      tag_398\n      tag_285\n      jump\t// in\n    tag_398:\n        /* \"#utility.yul\":4148:4265   */\n    tag_397:\n        /* \"#utility.yul\":4289:4352   */\n      tag_399\n        /* \"#utility.yul\":4344:4351   */\n      dup8\n        /* \"#utility.yul\":4335:4341   */\n      dup3\n        /* \"#utility.yul\":4324:4333   */\n      dup9\n        /* \"#utility.yul\":4320:4342   */\n      add\n        /* \"#utility.yul\":4289:4352   */\n      tag_298\n      jump\t// in\n    tag_399:\n        /* \"#utility.yul\":4279:4352   */\n      swap2\n      pop\n        /* \"#utility.yul\":4074:4362   */\n      pop\n        /* \"#utility.yul\":3244:4369   */\n      swap3\n      swap6\n      swap2\n      swap5\n      pop\n      swap3\n      pop\n      jump\t// out\n        /* \"#utility.yul\":4375:5354   */\n    tag_42:\n        /* \"#utility.yul\":4472:4478   */\n      0x00\n        /* \"#utility.yul\":4480:4486   */\n      dup1\n        /* \"#utility.yul\":4488:4494   */\n      0x00\n        /* \"#utility.yul\":4537:4539   */\n      0x60\n        /* \"#utility.yul\":4525:4534   */\n      dup5\n        /* \"#utility.yul\":4516:4523   */\n      dup7\n        /* \"#utility.yul\":4512:4535   */\n      sub\n        /* \"#utility.yul\":4508:4540   */\n      slt\n        /* \"#utility.yul\":4505:4624   */\n      iszero\n      tag_401\n      jumpi\n        /* \"#utility.yul\":4543:4622   */\n      tag_402\n      tag_284\n      jump\t// in\n    tag_402:\n        /* \"#utility.yul\":4505:4624   */\n    tag_401:\n        /* \"#utility.yul\":4663:4664   */\n      0x00\n        /* \"#utility.yul\":4688:4741   */\n      tag_403\n        /* \"#utility.yul\":4733:4740   */\n      dup7\n        /* \"#utility.yul\":4724:4730   */\n      dup3\n        /* \"#utility.yul\":4713:4722   */\n      dup8\n        /* \"#utility.yul\":4709:4731   */\n      add\n        /* \"#utility.yul\":4688:4741   */\n      tag_288\n      jump\t// in\n    tag_403:\n        /* \"#utility.yul\":4678:4741   */\n      swap4\n      pop\n        /* \"#utility.yul\":4634:4751   */\n      pop\n        /* \"#utility.yul\":4818:4820   */\n      0x20\n        /* \"#utility.yul\":4807:4816   */\n      dup5\n        /* \"#utility.yul\":4803:4821   */\n      add\n        /* \"#utility.yul\":4790:4822   */\n      calldataload\n        /* \"#utility.yul\":4849:4867   */\n      0xffffffffffffffff\n        /* \"#utility.yul\":4841:4847   */\n      dup2\n        /* \"#utility.yul\":4838:4868   */\n      gt\n        /* \"#utility.yul\":4835:4952   */\n      iszero\n      tag_404\n      jumpi\n        /* \"#utility.yul\":4871:4950   */\n      tag_405\n      tag_285\n      jump\t// in\n    tag_405:\n        /* \"#utility.yul\":4835:4952   */\n    tag_404:\n        /* \"#utility.yul\":4976:5039   */\n      tag_406\n        /* \"#utility.yul\":5031:5038   */\n      dup7\n        /* \"#utility.yul\":5022:5028   */\n      dup3\n        /* \"#utility.yul\":5011:5020   */\n      dup8\n        /* \"#utility.yul\":5007:5029   */\n      add\n        /* \"#utility.yul\":4976:5039   */\n      tag_298\n      jump\t// in\n    tag_406:\n        /* \"#utility.yul\":4966:5039   */\n      swap3\n      pop\n        /* \"#utility.yul\":4761:5049   */\n      pop\n        /* \"#utility.yul\":5116:5118   */\n      0x40\n        /* \"#utility.yul\":5105:5114   */\n      dup5\n        /* \"#utility.yul\":5101:5119   */\n      add\n        /* \"#utility.yul\":5088:5120   */\n      calldataload\n        /* \"#utility.yul\":5147:5165   */\n      0xffffffffffffffff\n        /* \"#utility.yul\":5139:5145   */\n      dup2\n        /* \"#utility.yul\":5136:5166   */\n      gt\n        /* \"#utility.yul\":5133:5250   */\n      iszero\n      tag_407\n      jumpi\n        /* \"#utility.yul\":5169:5248   */\n      tag_408\n      tag_285\n      jump\t// in\n    tag_408:\n        /* \"#utility.yul\":5133:5250   */\n    tag_407:\n        /* \"#utility.yul\":5274:5337   */\n      tag_409\n        /* \"#utility.yul\":5329:5336   */\n      dup7\n        /* \"#utility.yul\":5320:5326   */\n      dup3\n        /* \"#utility.yul\":5309:5318   */\n      dup8\n        /* \"#utility.yul\":5305:5327   */\n      add\n        /* \"#utility.yul\":5274:5337   */\n      tag_298\n      jump\t// in\n    tag_409:\n        /* \"#utility.yul\":5264:5337   */\n      swap2\n      pop\n        /* \"#utility.yul\":5059:5347   */\n      pop\n        /* \"#utility.yul\":4375:5354   */\n      swap3\n      pop\n      swap3\n      pop\n      swap3\n      jump\t// out\n        /* \"#utility.yul\":5360:5834   */\n    tag_46:\n        /* \"#utility.yul\":5428:5434   */\n      0x00\n        /* \"#utility.yul\":5436:5442   */\n      dup1\n        /* \"#utility.yul\":5485:5487   */\n      0x40\n        /* \"#utility.yul\":5473:5482   */\n      dup4\n        /* \"#utility.yul\":5464:5471   */\n      dup6\n        /* \"#utility.yul\":5460:5483   */\n      sub\n        /* \"#utility.yul\":5456:5488   */\n      slt\n        /* \"#utility.yul\":5453:5572   */\n      iszero\n      tag_411\n      jumpi\n        /* \"#utility.yul\":5491:5570   */\n      tag_412\n      tag_284\n      jump\t// in\n    tag_412:\n        /* \"#utility.yul\":5453:5572   */\n    tag_411:\n        /* \"#utility.yul\":5611:5612   */\n      0x00\n        /* \"#utility.yul\":5636:5689   */\n      tag_413\n        /* \"#utility.yul\":5681:5688   */\n      dup6\n        /* \"#utility.yul\":5672:5678   */\n      dup3\n        /* \"#utility.yul\":5661:5670   */\n      dup7\n        /* \"#utility.yul\":5657:5679   */\n      add\n        /* \"#utility.yul\":5636:5689   */\n      tag_288\n      jump\t// in\n    tag_413:\n        /* \"#utility.yul\":5626:5689   */\n      swap3\n      pop\n        /* \"#utility.yul\":5582:5699   */\n      pop\n        /* \"#utility.yul\":5738:5740   */\n      0x20\n        /* \"#utility.yul\":5764:5817   */\n      tag_414\n        /* \"#utility.yul\":5809:5816   */\n      dup6\n        /* \"#utility.yul\":5800:5806   */\n      dup3\n        /* \"#utility.yul\":5789:5798   */\n      dup7\n        /* \"#utility.yul\":5785:5807   */\n      add\n        /* \"#utility.yul\":5764:5817   */\n      tag_288\n      jump\t// in\n    tag_414:\n        /* \"#utility.yul\":5754:5817   */\n      swap2\n      pop\n        /* \"#utility.yul\":5709:5827   */\n      pop\n        /* \"#utility.yul\":5360:5834   */\n      swap3\n      pop\n      swap3\n      swap1\n      pop\n      jump\t// out\n        /* \"#utility.yul\":5840:5948   */\n    tag_299:\n        /* \"#utility.yul\":5917:5941   */\n      tag_416\n        /* \"#utility.yul\":5935:5940   */\n      dup2\n        /* \"#utility.yul\":5917:5941   */\n      tag_286\n      jump\t// in\n    tag_416:\n        /* \"#utility.yul\":5912:5915   */\n      dup3\n        /* \"#utility.yul\":5905:5942   */\n      mstore\n        /* \"#utility.yul\":5840:5948   */\n      pop\n      pop\n      jump\t// out\n        /* \"#utility.yul\":5954:6053   */\n    tag_300:\n        /* \"#utility.yul\":6006:6012   */\n      0x00\n        /* \"#utility.yul\":6040:6045   */\n      dup2\n        /* \"#utility.yul\":6034:6046   */\n      mload\n        /* \"#utility.yul\":6024:6046   */\n      swap1\n      pop\n        /* \"#utility.yul\":5954:6053   */\n      swap2\n      swap1\n      pop\n      jump\t// out\n        /* \"#utility.yul\":6059:6218   */\n    tag_301:\n        /* \"#utility.yul\":6133:6144   */\n      0x00\n        /* \"#utility.yul\":6167:6173   */\n      dup3\n        /* \"#utility.yul\":6162:6165   */\n      dup3\n        /* \"#utility.yul\":6155:6174   */\n      mstore\n        /* \"#utility.yul\":6207:6211   */\n      0x20\n        /* \"#utility.yul\":6202:6205   */\n      dup3\n        /* \"#utility.yul\":6198:6212   */\n      add\n        /* \"#utility.yul\":6183:6212   */\n      swap1\n      pop\n        /* \"#utility.yul\":6059:6218   */\n      swap3\n      swap2\n      pop\n      pop\n      jump\t// out\n        /* \"#utility.yul\":6224:6470   */\n    tag_302:\n        /* \"#utility.yul\":6305:6306   */\n      0x00\n        /* \"#utility.yul\":6315:6428   */\n    tag_420:\n        /* \"#utility.yul\":6329:6335   */\n      dup4\n        /* \"#utility.yul\":6326:6327   */\n      dup2\n        /* \"#utility.yul\":6323:6336   */\n      lt\n        /* \"#utility.yul\":6315:6428   */\n      iszero\n      tag_422\n      jumpi\n        /* \"#utility.yul\":6414:6415   */\n      dup1\n        /* \"#utility.yul\":6409:6412   */\n      dup3\n        /* \"#utility.yul\":6405:6416   */\n      add\n        /* \"#utility.yul\":6399:6417   */\n      mload\n        /* \"#utility.yul\":6395:6396   */\n      dup2\n        /* \"#utility.yul\":6390:6393   */\n      dup5\n        /* \"#utility.yul\":6386:6397   */\n      add\n        /* \"#utility.yul\":6379:6418   */\n      mstore\n        /* \"#utility.yul\":6351:6353   */\n      0x20\n        /* \"#utility.yul\":6348:6349   */\n      dup2\n        /* \"#utility.yul\":6344:6354   */\n      add\n        /* \"#utility.yul\":6339:6354   */\n      swap1\n      pop\n        /* \"#utility.yul\":6315:6428   */\n      jump(tag_420)\n    tag_422:\n        /* \"#utility.yul\":6462:6463   */\n      0x00\n        /* \"#utility.yul\":6453:6459   */\n      dup5\n        /* \"#utility.yul\":6448:6451   */\n      dup5\n        /* \"#utility.yul\":6444:6460   */\n      add\n        /* \"#utility.yul\":6437:6464   */\n      mstore\n        /* \"#utility.yul\":6286:6470   */\n      pop\n        /* \"#utility.yul\":6224:6470   */\n      pop\n      pop\n      pop\n      jump\t// out\n        /* \"#utility.yul\":6476:6833   */\n    tag_303:\n        /* \"#utility.yul\":6554:6557   */\n      0x00\n        /* \"#utility.yul\":6582:6621   */\n      tag_424\n        /* \"#utility.yul\":6615:6620   */\n      dup3\n        /* \"#utility.yul\":6582:6621   */\n      tag_300\n      jump\t// in\n    tag_424:\n        /* \"#utility.yul\":6637:6698   */\n      tag_425\n        /* \"#utility.yul\":6691:6697   */\n      dup2\n        /* \"#utility.yul\":6686:6689   */\n      dup6\n        /* \"#utility.yul\":6637:6698   */\n      tag_301\n      jump\t// in\n    tag_425:\n        /* \"#utility.yul\":6630:6698   */\n      swap4\n      pop\n        /* \"#utility.yul\":6707:6772   */\n      tag_426\n        /* \"#utility.yul\":6765:6771   */\n      dup2\n        /* \"#utility.yul\":6760:6763   */\n      dup6\n        /* \"#utility.yul\":6753:6757   */\n      0x20\n        /* \"#utility.yul\":6746:6751   */\n      dup7\n        /* \"#utility.yul\":6742:6758   */\n      add\n        /* \"#utility.yul\":6707:6772   */\n      tag_302\n      jump\t// in\n    tag_426:\n        /* \"#utility.yul\":6797:6826   */\n      tag_427\n        /* \"#utility.yul\":6819:6825   */\n      dup2\n        /* \"#utility.yul\":6797:6826   */\n      tag_291\n      jump\t// in\n    tag_427:\n        /* \"#utility.yul\":6792:6795   */\n      dup5\n        /* \"#utility.yul\":6788:6827   */\n      add\n        /* \"#utility.yul\":6781:6827   */\n      swap2\n      pop\n        /* \"#utility.yul\":6558:6833   */\n      pop\n        /* \"#utility.yul\":6476:6833   */\n      swap3\n      swap2\n      pop\n      pop\n      jump\t// out\n        /* \"#utility.yul\":6839:6929   */\n    tag_304:\n        /* \"#utility.yul\":6873:6880   */\n      0x00\n        /* \"#utility.yul\":6916:6921   */\n      dup2\n        /* \"#utility.yul\":6909:6922   */\n      iszero\n        /* \"#utility.yul\":6902:6923   */\n      iszero\n        /* \"#utility.yul\":6891:6923   */\n      swap1\n      pop\n        /* \"#utility.yul\":6839:6929   */\n      swap2\n      swap1\n      pop\n      jump\t// out\n        /* \"#utility.yul\":6935:7034   */\n    tag_305:\n        /* \"#utility.yul\":7006:7027   */\n      tag_430\n        /* \"#utility.yul\":7021:7026   */\n      dup2\n        /* \"#utility.yul\":7006:7027   */\n      tag_304\n      jump\t// in\n    tag_430:\n        /* \"#utility.yul\":7001:7004   */\n      dup3\n        /* \"#utility.yul\":6994:7028   */\n      mstore\n        /* \"#utility.yul\":6935:7034   */\n      pop\n      pop\n      jump\t// out\n        /* \"#utility.yul\":7120:8159   */\n    tag_306:\n        /* \"#utility.yul\":7243:7246   */\n      0x00\n        /* \"#utility.yul\":7279:7283   */\n      0x80\n        /* \"#utility.yul\":7274:7277   */\n      dup4\n        /* \"#utility.yul\":7270:7284   */\n      add\n        /* \"#utility.yul\":7364:7368   */\n      0x00\n        /* \"#utility.yul\":7357:7362   */\n      dup4\n        /* \"#utility.yul\":7353:7369   */\n      add\n        /* \"#utility.yul\":7347:7370   */\n      mload\n        /* \"#utility.yul\":7383:7446   */\n      tag_432\n        /* \"#utility.yul\":7440:7444   */\n      0x00\n        /* \"#utility.yul\":7435:7438   */\n      dup7\n        /* \"#utility.yul\":7431:7445   */\n      add\n        /* \"#utility.yul\":7417:7429   */\n      dup3\n        /* \"#utility.yul\":7383:7446   */\n      tag_299\n      jump\t// in\n    tag_432:\n        /* \"#utility.yul\":7294:7456   */\n      pop\n        /* \"#utility.yul\":7550:7554   */\n      0x20\n        /* \"#utility.yul\":7543:7548   */\n      dup4\n        /* \"#utility.yul\":7539:7555   */\n      add\n        /* \"#utility.yul\":7533:7556   */\n      mload\n        /* \"#utility.yul\":7603:7606   */\n      dup5\n        /* \"#utility.yul\":7597:7601   */\n      dup3\n        /* \"#utility.yul\":7593:7607   */\n      sub\n        /* \"#utility.yul\":7586:7590   */\n      0x20\n        /* \"#utility.yul\":7581:7584   */\n      dup7\n        /* \"#utility.yul\":7577:7591   */\n      add\n        /* \"#utility.yul\":7570:7608   */\n      mstore\n        /* \"#utility.yul\":7629:7702   */\n      tag_433\n        /* \"#utility.yul\":7697:7701   */\n      dup3\n        /* \"#utility.yul\":7683:7695   */\n      dup3\n        /* \"#utility.yul\":7629:7702   */\n      tag_303\n      jump\t// in\n    tag_433:\n        /* \"#utility.yul\":7621:7702   */\n      swap2\n      pop\n        /* \"#utility.yul\":7466:7713   */\n      pop\n        /* \"#utility.yul\":7801:7805   */\n      0x40\n        /* \"#utility.yul\":7794:7799   */\n      dup4\n        /* \"#utility.yul\":7790:7806   */\n      add\n        /* \"#utility.yul\":7784:7807   */\n      mload\n        /* \"#utility.yul\":7820:7877   */\n      tag_434\n        /* \"#utility.yul\":7871:7875   */\n      0x40\n        /* \"#utility.yul\":7866:7869   */\n      dup7\n        /* \"#utility.yul\":7862:7876   */\n      add\n        /* \"#utility.yul\":7848:7860   */\n      dup3\n        /* \"#utility.yul\":7820:7877   */\n      tag_305\n      jump\t// in\n    tag_434:\n        /* \"#utility.yul\":7723:7887   */\n      pop\n        /* \"#utility.yul\":7969:7973   */\n      0x60\n        /* \"#utility.yul\":7962:7967   */\n      dup4\n        /* \"#utility.yul\":7958:7974   */\n      add\n        /* \"#utility.yul\":7952:7975   */\n      mload\n        /* \"#utility.yul\":8022:8025   */\n      dup5\n        /* \"#utility.yul\":8016:8020   */\n      dup3\n        /* \"#utility.yul\":8012:8026   */\n      sub\n        /* \"#utility.yul\":8005:8009   */\n      0x60\n        /* \"#utility.yul\":8000:8003   */\n      dup7\n        /* \"#utility.yul\":7996:8010   */\n      add\n        /* \"#utility.yul\":7989:8027   */\n      mstore\n        /* \"#utility.yul\":8048:8121   */\n      tag_435\n        /* \"#utility.yul\":8116:8120   */\n      dup3\n        /* \"#utility.yul\":8102:8114   */\n      dup3\n        /* \"#utility.yul\":8048:8121   */\n      tag_303\n      jump\t// in\n    tag_435:\n        /* \"#utility.yul\":8040:8121   */\n      swap2\n      pop\n        /* \"#utility.yul\":7897:8132   */\n      pop\n        /* \"#utility.yul\":8149:8153   */\n      dup1\n        /* \"#utility.yul\":8142:8153   */\n      swap2\n      pop\n        /* \"#utility.yul\":7248:8159   */\n      pop\n        /* \"#utility.yul\":7120:8159   */\n      swap3\n      swap2\n      pop\n      pop\n      jump\t// out\n        /* \"#utility.yul\":8165:8546   */\n    tag_49:\n        /* \"#utility.yul\":8312:8316   */\n      0x00\n        /* \"#utility.yul\":8350:8352   */\n      0x20\n        /* \"#utility.yul\":8339:8348   */\n      dup3\n        /* \"#utility.yul\":8335:8353   */\n      add\n        /* \"#utility.yul\":8327:8353   */\n      swap1\n      pop\n        /* \"#utility.yul\":8399:8408   */\n      dup2\n        /* \"#utility.yul\":8393:8397   */\n      dup2\n        /* \"#utility.yul\":8389:8409   */\n      sub\n        /* \"#utility.yul\":8385:8386   */\n      0x00\n        /* \"#utility.yul\":8374:8383   */\n      dup4\n        /* \"#utility.yul\":8370:8387   */\n      add\n        /* \"#utility.yul\":8363:8410   */\n      mstore\n        /* \"#utility.yul\":8427:8539   */\n      tag_437\n        /* \"#utility.yul\":8534:8538   */\n      dup2\n        /* \"#utility.yul\":8525:8531   */\n      dup5\n        /* \"#utility.yul\":8427:8539   */\n      tag_306\n      jump\t// in\n    tag_437:\n        /* \"#utility.yul\":8419:8539   */\n      swap1\n      pop\n        /* \"#utility.yul\":8165:8546   */\n      swap3\n      swap2\n      pop\n      pop\n      jump\t// out\n        /* \"#utility.yul\":8552:8670   */\n    tag_307:\n        /* \"#utility.yul\":8639:8663   */\n      tag_439\n        /* \"#utility.yul\":8657:8662   */\n      dup2\n        /* \"#utility.yul\":8639:8663   */\n      tag_286\n      jump\t// in\n    tag_439:\n        /* \"#utility.yul\":8634:8637   */\n      dup3\n        /* \"#utility.yul\":8627:8664   */\n      mstore\n        /* \"#utility.yul\":8552:8670   */\n      pop\n      pop\n      jump\t// out\n        /* \"#utility.yul\":8676:8845   */\n    tag_308:\n        /* \"#utility.yul\":8760:8771   */\n      0x00\n        /* \"#utility.yul\":8794:8800   */\n      dup3\n        /* \"#utility.yul\":8789:8792   */\n      dup3\n        /* \"#utility.yul\":8782:8801   */\n      mstore\n        /* \"#utility.yul\":8834:8838   */\n      0x20\n        /* \"#utility.yul\":8829:8832   */\n      dup3\n        /* \"#utility.yul\":8825:8839   */\n      add\n        /* \"#utility.yul\":8810:8839   */\n      swap1\n      pop\n        /* \"#utility.yul\":8676:8845   */\n      swap3\n      swap2\n      pop\n      pop\n      jump\t// out\n        /* \"#utility.yul\":8851:9228   */\n    tag_309:\n        /* \"#utility.yul\":8939:8942   */\n      0x00\n        /* \"#utility.yul\":8967:9006   */\n      tag_442\n        /* \"#utility.yul\":9000:9005   */\n      dup3\n        /* \"#utility.yul\":8967:9006   */\n      tag_300\n      jump\t// in\n    tag_442:\n        /* \"#utility.yul\":9022:9093   */\n      tag_443\n        /* \"#utility.yul\":9086:9092   */\n      dup2\n        /* \"#utility.yul\":9081:9084   */\n      dup6\n        /* \"#utility.yul\":9022:9093   */\n      tag_308\n      jump\t// in\n    tag_443:\n        /* \"#utility.yul\":9015:9093   */\n      swap4\n      pop\n        /* \"#utility.yul\":9102:9167   */\n      tag_444\n        /* \"#utility.yul\":9160:9166   */\n      dup2\n        /* \"#utility.yul\":9155:9158   */\n      dup6\n        /* \"#utility.yul\":9148:9152   */\n      0x20\n        /* \"#utility.yul\":9141:9146   */\n      dup7\n        /* \"#utility.yul\":9137:9153   */\n      add\n        /* \"#utility.yul\":9102:9167   */\n      tag_302\n      jump\t// in\n    tag_444:\n        /* \"#utility.yul\":9192:9221   */\n      tag_445\n        /* \"#utility.yul\":9214:9220   */\n      dup2\n        /* \"#utility.yul\":9192:9221   */\n      tag_291\n      jump\t// in\n    tag_445:\n        /* \"#utility.yul\":9187:9190   */\n      dup5\n        /* \"#utility.yul\":9183:9222   */\n      add\n        /* \"#utility.yul\":9176:9222   */\n      swap2\n      pop\n        /* \"#utility.yul\":8943:9228   */\n      pop\n        /* \"#utility.yul\":8851:9228   */\n      swap3\n      swap2\n      pop\n      pop\n      jump\t// out\n        /* \"#utility.yul\":9234:9343   */\n    tag_310:\n        /* \"#utility.yul\":9315:9336   */\n      tag_447\n        /* \"#utility.yul\":9330:9335   */\n      dup2\n        /* \"#utility.yul\":9315:9336   */\n      tag_304\n      jump\t// in\n    tag_447:\n        /* \"#utility.yul\":9310:9313   */\n      dup3\n        /* \"#utility.yul\":9303:9337   */\n      mstore\n        /* \"#utility.yul\":9234:9343   */\n      pop\n      pop\n      jump\t// out\n        /* \"#utility.yul\":9349:10294   */\n    tag_54:\n        /* \"#utility.yul\":9616:9620   */\n      0x00\n        /* \"#utility.yul\":9654:9657   */\n      0xc0\n        /* \"#utility.yul\":9643:9652   */\n      dup3\n        /* \"#utility.yul\":9639:9658   */\n      add\n        /* \"#utility.yul\":9631:9658   */\n      swap1\n      pop\n        /* \"#utility.yul\":9668:9739   */\n      tag_449\n        /* \"#utility.yul\":9736:9737   */\n      0x00\n        /* \"#utility.yul\":9725:9734   */\n      dup4\n        /* \"#utility.yul\":9721:9738   */\n      add\n        /* \"#utility.yul\":9712:9718   */\n      dup10\n        /* \"#utility.yul\":9668:9739   */\n      tag_307\n      jump\t// in\n    tag_449:\n        /* \"#utility.yul\":9786:9795   */\n      dup2\n        /* \"#utility.yul\":9780:9784   */\n      dup2\n        /* \"#utility.yul\":9776:9796   */\n      sub\n        /* \"#utility.yul\":9771:9773   */\n      0x20\n        /* \"#utility.yul\":9760:9769   */\n      dup4\n        /* \"#utility.yul\":9756:9774   */\n      add\n        /* \"#utility.yul\":9749:9797   */\n      mstore\n        /* \"#utility.yul\":9814:9892   */\n      tag_450\n        /* \"#utility.yul\":9887:9891   */\n      dup2\n        /* \"#utility.yul\":9878:9884   */\n      dup9\n        /* \"#utility.yul\":9814:9892   */\n      tag_309\n      jump\t// in\n    tag_450:\n        /* \"#utility.yul\":9806:9892   */\n      swap1\n      pop\n        /* \"#utility.yul\":9902:9974   */\n      tag_451\n        /* \"#utility.yul\":9970:9972   */\n      0x40\n        /* \"#utility.yul\":9959:9968   */\n      dup4\n        /* \"#utility.yul\":9955:9973   */\n      add\n        /* \"#utility.yul\":9946:9952   */\n      dup8\n        /* \"#utility.yul\":9902:9974   */\n      tag_307\n      jump\t// in\n    tag_451:\n        /* \"#utility.yul\":9984:10056   */\n      tag_452\n        /* \"#utility.yul\":10052:10054   */\n      0x60\n        /* \"#utility.yul\":10041:10050   */\n      dup4\n        /* \"#utility.yul\":10037:10055   */\n      add\n        /* \"#utility.yul\":10028:10034   */\n      dup7\n        /* \"#utility.yul\":9984:10056   */\n      tag_307\n      jump\t// in\n    tag_452:\n        /* \"#utility.yul\":10066:10133   */\n      tag_453\n        /* \"#utility.yul\":10128:10131   */\n      0x80\n        /* \"#utility.yul\":10117:10126   */\n      dup4\n        /* \"#utility.yul\":10113:10132   */\n      add\n        /* \"#utility.yul\":10104:10110   */\n      dup6\n        /* \"#utility.yul\":10066:10133   */\n      tag_310\n      jump\t// in\n    tag_453:\n        /* \"#utility.yul\":10181:10190   */\n      dup2\n        /* \"#utility.yul\":10175:10179   */\n      dup2\n        /* \"#utility.yul\":10171:10191   */\n      sub\n        /* \"#utility.yul\":10165:10168   */\n      0xa0\n        /* \"#utility.yul\":10154:10163   */\n      dup4\n        /* \"#utility.yul\":10150:10169   */\n      add\n        /* \"#utility.yul\":10143:10192   */\n      mstore\n        /* \"#utility.yul\":10209:10287   */\n      tag_454\n        /* \"#utility.yul\":10282:10286   */\n      dup2\n        /* \"#utility.yul\":10273:10279   */\n      dup5\n        /* \"#utility.yul\":10209:10287   */\n      tag_309\n      jump\t// in\n    tag_454:\n        /* \"#utility.yul\":10201:10287   */\n      swap1\n      pop\n        /* \"#utility.yul\":9349:10294   */\n      swap8\n      swap7\n      pop\n      pop\n      pop\n      pop\n      pop\n      pop\n      pop\n      jump\t// out\n        /* \"#utility.yul\":10300:10426   */\n    tag_311:\n        /* \"#utility.yul\":10337:10344   */\n      0x00\n        /* \"#utility.yul\":10377:10419   */\n      0xffffffffffffffffffffffffffffffffffffffff\n        /* \"#utility.yul\":10370:10375   */\n      dup3\n        /* \"#utility.yul\":10366:10420   */\n      and\n        /* \"#utility.yul\":10355:10420   */\n      swap1\n      pop\n        /* \"#utility.yul\":10300:10426   */\n      swap2\n      swap1\n      pop\n      jump\t// out\n        /* \"#utility.yul\":10432:10528   */\n    tag_312:\n        /* \"#utility.yul\":10469:10476   */\n      0x00\n        /* \"#utility.yul\":10498:10522   */\n      tag_457\n        /* \"#utility.yul\":10516:10521   */\n      dup3\n        /* \"#utility.yul\":10498:10522   */\n      tag_311\n      jump\t// in\n    tag_457:\n        /* \"#utility.yul\":10487:10522   */\n      swap1\n      pop\n        /* \"#utility.yul\":10432:10528   */\n      swap2\n      swap1\n      pop\n      jump\t// out\n        /* \"#utility.yul\":10534:10652   */\n    tag_313:\n        /* \"#utility.yul\":10621:10645   */\n      tag_459\n        /* \"#utility.yul\":10639:10644   */\n      dup2\n        /* \"#utility.yul\":10621:10645   */\n      tag_312\n      jump\t// in\n    tag_459:\n        /* \"#utility.yul\":10616:10619   */\n      dup3\n        /* \"#utility.yul\":10609:10646   */\n      mstore\n        /* \"#utility.yul\":10534:10652   */\n      pop\n      pop\n      jump\t// out\n        /* \"#utility.yul\":10658:10880   */\n    tag_61:\n        /* \"#utility.yul\":10751:10755   */\n      0x00\n        /* \"#utility.yul\":10789:10791   */\n      0x20\n        /* \"#utility.yul\":10778:10787   */\n      dup3\n        /* \"#utility.yul\":10774:10792   */\n      add\n        /* \"#utility.yul\":10766:10792   */\n      swap1\n      pop\n        /* \"#utility.yul\":10802:10873   */\n      tag_461\n        /* \"#utility.yul\":10870:10871   */\n      0x00\n        /* \"#utility.yul\":10859:10868   */\n      dup4\n        /* \"#utility.yul\":10855:10872   */\n      add\n        /* \"#utility.yul\":10846:10852   */\n      dup5\n        /* \"#utility.yul\":10802:10873   */\n      tag_313\n      jump\t// in\n    tag_461:\n        /* \"#utility.yul\":10658:10880   */\n      swap3\n      swap2\n      pop\n      pop\n      jump\t// out\n        /* \"#utility.yul\":10886:11609   */\n    tag_66:\n        /* \"#utility.yul\":11097:11101   */\n      0x00\n        /* \"#utility.yul\":11135:11138   */\n      0x80\n        /* \"#utility.yul\":11124:11133   */\n      dup3\n        /* \"#utility.yul\":11120:11139   */\n      add\n        /* \"#utility.yul\":11112:11139   */\n      swap1\n      pop\n        /* \"#utility.yul\":11149:11220   */\n      tag_463\n        /* \"#utility.yul\":11217:11218   */\n      0x00\n        /* \"#utility.yul\":11206:11215   */\n      dup4\n        /* \"#utility.yul\":11202:11219   */\n      add\n        /* \"#utility.yul\":11193:11199   */\n      dup8\n        /* \"#utility.yul\":11149:11220   */\n      tag_307\n      jump\t// in\n    tag_463:\n        /* \"#utility.yul\":11267:11276   */\n      dup2\n        /* \"#utility.yul\":11261:11265   */\n      dup2\n        /* \"#utility.yul\":11257:11277   */\n      sub\n        /* \"#utility.yul\":11252:11254   */\n      0x20\n        /* \"#utility.yul\":11241:11250   */\n      dup4\n        /* \"#utility.yul\":11237:11255   */\n      add\n        /* \"#utility.yul\":11230:11278   */\n      mstore\n        /* \"#utility.yul\":11295:11373   */\n      tag_464\n        /* \"#utility.yul\":11368:11372   */\n      dup2\n        /* \"#utility.yul\":11359:11365   */\n      dup7\n        /* \"#utility.yul\":11295:11373   */\n      tag_309\n      jump\t// in\n    tag_464:\n        /* \"#utility.yul\":11287:11373   */\n      swap1\n      pop\n        /* \"#utility.yul\":11383:11449   */\n      tag_465\n        /* \"#utility.yul\":11445:11447   */\n      0x40\n        /* \"#utility.yul\":11434:11443   */\n      dup4\n        /* \"#utility.yul\":11430:11448   */\n      add\n        /* \"#utility.yul\":11421:11427   */\n      dup6\n        /* \"#utility.yul\":11383:11449   */\n      tag_310\n      jump\t// in\n    tag_465:\n        /* \"#utility.yul\":11496:11505   */\n      dup2\n        /* \"#utility.yul\":11490:11494   */\n      dup2\n        /* \"#utility.yul\":11486:11506   */\n      sub\n        /* \"#utility.yul\":11481:11483   */\n      0x60\n        /* \"#utility.yul\":11470:11479   */\n      dup4\n        /* \"#utility.yul\":11466:11484   */\n      add\n        /* \"#utility.yul\":11459:11507   */\n      mstore\n        /* \"#utility.yul\":11524:11602   */\n      tag_466\n        /* \"#utility.yul\":11597:11601   */\n      dup2\n        /* \"#utility.yul\":11588:11594   */\n      dup5\n        /* \"#utility.yul\":11524:11602   */\n      tag_309\n      jump\t// in\n    tag_466:\n        /* \"#utility.yul\":11516:11602   */\n      swap1\n      pop\n        /* \"#utility.yul\":10886:11609   */\n      swap6\n      swap5\n      pop\n      pop\n      pop\n      pop\n      pop\n      jump\t// out\n        /* \"#utility.yul\":11697:12726   */\n    tag_314:\n        /* \"#utility.yul\":11822:11825   */\n      0x00\n        /* \"#utility.yul\":11858:11862   */\n      0x80\n        /* \"#utility.yul\":11853:11856   */\n      dup4\n        /* \"#utility.yul\":11849:11863   */\n      add\n        /* \"#utility.yul\":11943:11947   */\n      0x00\n        /* \"#utility.yul\":11936:11941   */\n      dup4\n        /* \"#utility.yul\":11932:11948   */\n      add\n        /* \"#utility.yul\":11926:11949   */\n      mload\n        /* \"#utility.yul\":11962:12025   */\n      tag_468\n        /* \"#utility.yul\":12019:12023   */\n      0x00\n        /* \"#utility.yul\":12014:12017   */\n      dup7\n        /* \"#utility.yul\":12010:12024   */\n      add\n        /* \"#utility.yul\":11996:12008   */\n      dup3\n        /* \"#utility.yul\":11962:12025   */\n      tag_299\n      jump\t// in\n    tag_468:\n        /* \"#utility.yul\":11873:12035   */\n      pop\n        /* \"#utility.yul\":12117:12121   */\n      0x20\n        /* \"#utility.yul\":12110:12115   */\n      dup4\n        /* \"#utility.yul\":12106:12122   */\n      add\n        /* \"#utility.yul\":12100:12123   */\n      mload\n        /* \"#utility.yul\":12170:12173   */\n      dup5\n        /* \"#utility.yul\":12164:12168   */\n      dup3\n        /* \"#utility.yul\":12160:12174   */\n      sub\n        /* \"#utility.yul\":12153:12157   */\n      0x20\n        /* \"#utility.yul\":12148:12151   */\n      dup7\n        /* \"#utility.yul\":12144:12158   */\n      add\n        /* \"#utility.yul\":12137:12175   */\n      mstore\n        /* \"#utility.yul\":12196:12269   */\n      tag_469\n        /* \"#utility.yul\":12264:12268   */\n      dup3\n        /* \"#utility.yul\":12250:12262   */\n      dup3\n        /* \"#utility.yul\":12196:12269   */\n      tag_303\n      jump\t// in\n    tag_469:\n        /* \"#utility.yul\":12188:12269   */\n      swap2\n      pop\n        /* \"#utility.yul\":12045:12280   */\n      pop\n        /* \"#utility.yul\":12368:12372   */\n      0x40\n        /* \"#utility.yul\":12361:12366   */\n      dup4\n        /* \"#utility.yul\":12357:12373   */\n      add\n        /* \"#utility.yul\":12351:12374   */\n      mload\n        /* \"#utility.yul\":12387:12444   */\n      tag_470\n        /* \"#utility.yul\":12438:12442   */\n      0x40\n        /* \"#utility.yul\":12433:12436   */\n      dup7\n        /* \"#utility.yul\":12429:12443   */\n      add\n        /* \"#utility.yul\":12415:12427   */\n      dup3\n        /* \"#utility.yul\":12387:12444   */\n      tag_305\n      jump\t// in\n    tag_470:\n        /* \"#utility.yul\":12290:12454   */\n      pop\n        /* \"#utility.yul\":12536:12540   */\n      0x60\n        /* \"#utility.yul\":12529:12534   */\n      dup4\n        /* \"#utility.yul\":12525:12541   */\n      add\n        /* \"#utility.yul\":12519:12542   */\n      mload\n        /* \"#utility.yul\":12589:12592   */\n      dup5\n        /* \"#utility.yul\":12583:12587   */\n      dup3\n        /* \"#utility.yul\":12579:12593   */\n      sub\n        /* \"#utility.yul\":12572:12576   */\n      0x60\n        /* \"#utility.yul\":12567:12570   */\n      dup7\n        /* \"#utility.yul\":12563:12577   */\n      add\n        /* \"#utility.yul\":12556:12594   */\n      mstore\n        /* \"#utility.yul\":12615:12688   */\n      tag_471\n        /* \"#utility.yul\":12683:12687   */\n      dup3\n        /* \"#utility.yul\":12669:12681   */\n      dup3\n        /* \"#utility.yul\":12615:12688   */\n      tag_303\n      jump\t// in\n    tag_471:\n        /* \"#utility.yul\":12607:12688   */\n      swap2\n      pop\n        /* \"#utility.yul\":12464:12699   */\n      pop\n        /* \"#utility.yul\":12716:12720   */\n      dup1\n        /* \"#utility.yul\":12709:12720   */\n      swap2\n      pop\n        /* \"#utility.yul\":11827:12726   */\n      pop\n        /* \"#utility.yul\":11697:12726   */\n      swap3\n      swap2\n      pop\n      pop\n      jump\t// out\n        /* \"#utility.yul\":12732:13117   */\n    tag_71:\n        /* \"#utility.yul\":12881:12885   */\n      0x00\n        /* \"#utility.yul\":12919:12921   */\n      0x20\n        /* \"#utility.yul\":12908:12917   */\n      dup3\n        /* \"#utility.yul\":12904:12922   */\n      add\n        /* \"#utility.yul\":12896:12922   */\n      swap1\n      pop\n        /* \"#utility.yul\":12968:12977   */\n      dup2\n        /* \"#utility.yul\":12962:12966   */\n      dup2\n        /* \"#utility.yul\":12958:12978   */\n      sub\n        /* \"#utility.yul\":12954:12955   */\n      0x00\n        /* \"#utility.yul\":12943:12952   */\n      dup4\n        /* \"#utility.yul\":12939:12956   */\n      add\n        /* \"#utility.yul\":12932:12979   */\n      mstore\n        /* \"#utility.yul\":12996:13110   */\n      tag_473\n        /* \"#utility.yul\":13105:13109   */\n      dup2\n        /* \"#utility.yul\":13096:13102   */\n      dup5\n        /* \"#utility.yul\":12996:13110   */\n      tag_314\n      jump\t// in\n    tag_473:\n        /* \"#utility.yul\":12988:13110   */\n      swap1\n      pop\n        /* \"#utility.yul\":12732:13117   */\n      swap3\n      swap2\n      pop\n      pop\n      jump\t// out\n        /* \"#utility.yul\":13195:14580   */\n    tag_315:\n        /* \"#utility.yul\":13310:13313   */\n      0x00\n        /* \"#utility.yul\":13346:13350   */\n      0xc0\n        /* \"#utility.yul\":13341:13344   */\n      dup4\n        /* \"#utility.yul\":13337:13351   */\n      add\n        /* \"#utility.yul\":13431:13435   */\n      0x00\n        /* \"#utility.yul\":13424:13429   */\n      dup4\n        /* \"#utility.yul\":13420:13436   */\n      add\n        /* \"#utility.yul\":13414:13437   */\n      mload\n        /* \"#utility.yul\":13450:13513   */\n      tag_475\n        /* \"#utility.yul\":13507:13511   */\n      0x00\n        /* \"#utility.yul\":13502:13505   */\n      dup7\n        /* \"#utility.yul\":13498:13512   */\n      add\n        /* \"#utility.yul\":13484:13496   */\n      dup3\n        /* \"#utility.yul\":13450:13513   */\n      tag_299\n      jump\t// in\n    tag_475:\n        /* \"#utility.yul\":13361:13523   */\n      pop\n        /* \"#utility.yul\":13605:13609   */\n      0x20\n        /* \"#utility.yul\":13598:13603   */\n      dup4\n        /* \"#utility.yul\":13594:13610   */\n      add\n        /* \"#utility.yul\":13588:13611   */\n      mload\n        /* \"#utility.yul\":13658:13661   */\n      dup5\n        /* \"#utility.yul\":13652:13656   */\n      dup3\n        /* \"#utility.yul\":13648:13662   */\n      sub\n        /* \"#utility.yul\":13641:13645   */\n      0x20\n        /* \"#utility.yul\":13636:13639   */\n      dup7\n        /* \"#utility.yul\":13632:13646   */\n      add\n        /* \"#utility.yul\":13625:13663   */\n      mstore\n        /* \"#utility.yul\":13684:13757   */\n      tag_476\n        /* \"#utility.yul\":13752:13756   */\n      dup3\n        /* \"#utility.yul\":13738:13750   */\n      dup3\n        /* \"#utility.yul\":13684:13757   */\n      tag_303\n      jump\t// in\n    tag_476:\n        /* \"#utility.yul\":13676:13757   */\n      swap2\n      pop\n        /* \"#utility.yul\":13533:13768   */\n      pop\n        /* \"#utility.yul\":13861:13865   */\n      0x40\n        /* \"#utility.yul\":13854:13859   */\n      dup4\n        /* \"#utility.yul\":13850:13866   */\n      add\n        /* \"#utility.yul\":13844:13867   */\n      mload\n        /* \"#utility.yul\":13880:13943   */\n      tag_477\n        /* \"#utility.yul\":13937:13941   */\n      0x40\n        /* \"#utility.yul\":13932:13935   */\n      dup7\n        /* \"#utility.yul\":13928:13942   */\n      add\n        /* \"#utility.yul\":13914:13926   */\n      dup3\n        /* \"#utility.yul\":13880:13943   */\n      tag_299\n      jump\t// in\n    tag_477:\n        /* \"#utility.yul\":13778:13953   */\n      pop\n        /* \"#utility.yul\":14042:14046   */\n      0x60\n        /* \"#utility.yul\":14035:14040   */\n      dup4\n        /* \"#utility.yul\":14031:14047   */\n      add\n        /* \"#utility.yul\":14025:14048   */\n      mload\n        /* \"#utility.yul\":14061:14124   */\n      tag_478\n        /* \"#utility.yul\":14118:14122   */\n      0x60\n        /* \"#utility.yul\":14113:14116   */\n      dup7\n        /* \"#utility.yul\":14109:14123   */\n      add\n        /* \"#utility.yul\":14095:14107   */\n      dup3\n        /* \"#utility.yul\":14061:14124   */\n      tag_299\n      jump\t// in\n    tag_478:\n        /* \"#utility.yul\":13963:14134   */\n      pop\n        /* \"#utility.yul\":14222:14226   */\n      0x80\n        /* \"#utility.yul\":14215:14220   */\n      dup4\n        /* \"#utility.yul\":14211:14227   */\n      add\n        /* \"#utility.yul\":14205:14228   */\n      mload\n        /* \"#utility.yul\":14241:14298   */\n      tag_479\n        /* \"#utility.yul\":14292:14296   */\n      0x80\n        /* \"#utility.yul\":14287:14290   */\n      dup7\n        /* \"#utility.yul\":14283:14297   */\n      add\n        /* \"#utility.yul\":14269:14281   */\n      dup3\n        /* \"#utility.yul\":14241:14298   */\n      tag_305\n      jump\t// in\n    tag_479:\n        /* \"#utility.yul\":14144:14308   */\n      pop\n        /* \"#utility.yul\":14390:14394   */\n      0xa0\n        /* \"#utility.yul\":14383:14388   */\n      dup4\n        /* \"#utility.yul\":14379:14395   */\n      add\n        /* \"#utility.yul\":14373:14396   */\n      mload\n        /* \"#utility.yul\":14443:14446   */\n      dup5\n        /* \"#utility.yul\":14437:14441   */\n      dup3\n        /* \"#utility.yul\":14433:14447   */\n      sub\n        /* \"#utility.yul\":14426:14430   */\n      0xa0\n        /* \"#utility.yul\":14421:14424   */\n      dup7\n        /* \"#utility.yul\":14417:14431   */\n      add\n        /* \"#utility.yul\":14410:14448   */\n      mstore\n        /* \"#utility.yul\":14469:14542   */\n      tag_480\n        /* \"#utility.yul\":14537:14541   */\n      dup3\n        /* \"#utility.yul\":14523:14535   */\n      dup3\n        /* \"#utility.yul\":14469:14542   */\n      tag_303\n      jump\t// in\n    tag_480:\n        /* \"#utility.yul\":14461:14542   */\n      swap2\n      pop\n        /* \"#utility.yul\":14318:14553   */\n      pop\n        /* \"#utility.yul\":14570:14574   */\n      dup1\n        /* \"#utility.yul\":14563:14574   */\n      swap2\n      pop\n        /* \"#utility.yul\":13315:14580   */\n      pop\n        /* \"#utility.yul\":13195:14580   */\n      swap3\n      swap2\n      pop\n      pop\n      jump\t// out\n        /* \"#utility.yul\":14586:14951   */\n    tag_76:\n        /* \"#utility.yul\":14725:14729   */\n      0x00\n        /* \"#utility.yul\":14763:14765   */\n      0x20\n        /* \"#utility.yul\":14752:14761   */\n      dup3\n        /* \"#utility.yul\":14748:14766   */\n      add\n        /* \"#utility.yul\":14740:14766   */\n      swap1\n      pop\n        /* \"#utility.yul\":14812:14821   */\n      dup2\n        /* \"#utility.yul\":14806:14810   */\n      dup2\n        /* \"#utility.yul\":14802:14822   */\n      sub\n        /* \"#utility.yul\":14798:14799   */\n      0x00\n        /* \"#utility.yul\":14787:14796   */\n      dup4\n        /* \"#utility.yul\":14783:14800   */\n      add\n        /* \"#utility.yul\":14776:14823   */\n      mstore\n        /* \"#utility.yul\":14840:14944   */\n      tag_482\n        /* \"#utility.yul\":14939:14943   */\n      dup2\n        /* \"#utility.yul\":14930:14936   */\n      dup5\n        /* \"#utility.yul\":14840:14944   */\n      tag_315\n      jump\t// in\n    tag_482:\n        /* \"#utility.yul\":14832:14944   */\n      swap1\n      pop\n        /* \"#utility.yul\":14586:14951   */\n      swap3\n      swap2\n      pop\n      pop\n      jump\t// out\n        /* \"#utility.yul\":15031:16052   */\n    tag_316:\n        /* \"#utility.yul\":15148:15151   */\n      0x00\n        /* \"#utility.yul\":15184:15188   */\n      0x80\n        /* \"#utility.yul\":15179:15182   */\n      dup4\n        /* \"#utility.yul\":15175:15189   */\n      add\n        /* \"#utility.yul\":15269:15273   */\n      0x00\n        /* \"#utility.yul\":15262:15267   */\n      dup4\n        /* \"#utility.yul\":15258:15274   */\n      add\n        /* \"#utility.yul\":15252:15275   */\n      mload\n        /* \"#utility.yul\":15288:15351   */\n      tag_484\n        /* \"#utility.yul\":15345:15349   */\n      0x00\n        /* \"#utility.yul\":15340:15343   */\n      dup7\n        /* \"#utility.yul\":15336:15350   */\n      add\n        /* \"#utility.yul\":15322:15334   */\n      dup3\n        /* \"#utility.yul\":15288:15351   */\n      tag_299\n      jump\t// in\n    tag_484:\n        /* \"#utility.yul\":15199:15361   */\n      pop\n        /* \"#utility.yul\":15443:15447   */\n      0x20\n        /* \"#utility.yul\":15436:15441   */\n      dup4\n        /* \"#utility.yul\":15432:15448   */\n      add\n        /* \"#utility.yul\":15426:15449   */\n      mload\n        /* \"#utility.yul\":15496:15499   */\n      dup5\n        /* \"#utility.yul\":15490:15494   */\n      dup3\n        /* \"#utility.yul\":15486:15500   */\n      sub\n        /* \"#utility.yul\":15479:15483   */\n      0x20\n        /* \"#utility.yul\":15474:15477   */\n      dup7\n        /* \"#utility.yul\":15470:15484   */\n      add\n        /* \"#utility.yul\":15463:15501   */\n      mstore\n        /* \"#utility.yul\":15522:15595   */\n      tag_485\n        /* \"#utility.yul\":15590:15594   */\n      dup3\n        /* \"#utility.yul\":15576:15588   */\n      dup3\n        /* \"#utility.yul\":15522:15595   */\n      tag_303\n      jump\t// in\n    tag_485:\n        /* \"#utility.yul\":15514:15595   */\n      swap2\n      pop\n        /* \"#utility.yul\":15371:15606   */\n      pop\n        /* \"#utility.yul\":15694:15698   */\n      0x40\n        /* \"#utility.yul\":15687:15692   */\n      dup4\n        /* \"#utility.yul\":15683:15699   */\n      add\n        /* \"#utility.yul\":15677:15700   */\n      mload\n        /* \"#utility.yul\":15713:15770   */\n      tag_486\n        /* \"#utility.yul\":15764:15768   */\n      0x40\n        /* \"#utility.yul\":15759:15762   */\n      dup7\n        /* \"#utility.yul\":15755:15769   */\n      add\n        /* \"#utility.yul\":15741:15753   */\n      dup3\n        /* \"#utility.yul\":15713:15770   */\n      tag_305\n      jump\t// in\n    tag_486:\n        /* \"#utility.yul\":15616:15780   */\n      pop\n        /* \"#utility.yul\":15862:15866   */\n      0x60\n        /* \"#utility.yul\":15855:15860   */\n      dup4\n        /* \"#utility.yul\":15851:15867   */\n      add\n        /* \"#utility.yul\":15845:15868   */\n      mload\n        /* \"#utility.yul\":15915:15918   */\n      dup5\n        /* \"#utility.yul\":15909:15913   */\n      dup3\n        /* \"#utility.yul\":15905:15919   */\n      sub\n        /* \"#utility.yul\":15898:15902   */\n      0x60\n        /* \"#utility.yul\":15893:15896   */\n      dup7\n        /* \"#utility.yul\":15889:15903   */\n      add\n        /* \"#utility.yul\":15882:15920   */\n      mstore\n        /* \"#utility.yul\":15941:16014   */\n      tag_487\n        /* \"#utility.yul\":16009:16013   */\n      dup3\n        /* \"#utility.yul\":15995:16007   */\n      dup3\n        /* \"#utility.yul\":15941:16014   */\n      tag_303\n      jump\t// in\n    tag_487:\n        /* \"#utility.yul\":15933:16014   */\n      swap2\n      pop\n        /* \"#utility.yul\":15790:16025   */\n      pop\n        /* \"#utility.yul\":16042:16046   */\n      dup1\n        /* \"#utility.yul\":16035:16046   */\n      swap2\n      pop\n        /* \"#utility.yul\":15153:16052   */\n      pop\n        /* \"#utility.yul\":15031:16052   */\n      swap3\n      swap2\n      pop\n      pop\n      jump\t// out\n        /* \"#utility.yul\":16058:16427   */\n    tag_88:\n        /* \"#utility.yul\":16199:16203   */\n      0x00\n        /* \"#utility.yul\":16237:16239   */\n      0x20\n        /* \"#utility.yul\":16226:16235   */\n      dup3\n        /* \"#utility.yul\":16222:16240   */\n      add\n        /* \"#utility.yul\":16214:16240   */\n      swap1\n      pop\n        /* \"#utility.yul\":16286:16295   */\n      dup2\n        /* \"#utility.yul\":16280:16284   */\n      dup2\n        /* \"#utility.yul\":16276:16296   */\n      sub\n        /* \"#utility.yul\":16272:16273   */\n      0x00\n        /* \"#utility.yul\":16261:16270   */\n      dup4\n        /* \"#utility.yul\":16257:16274   */\n      add\n        /* \"#utility.yul\":16250:16297   */\n      mstore\n        /* \"#utility.yul\":16314:16420   */\n      tag_489\n        /* \"#utility.yul\":16415:16419   */\n      dup2\n        /* \"#utility.yul\":16406:16412   */\n      dup5\n        /* \"#utility.yul\":16314:16420   */\n      tag_316\n      jump\t// in\n    tag_489:\n        /* \"#utility.yul\":16306:16420   */\n      swap1\n      pop\n        /* \"#utility.yul\":16058:16427   */\n      swap3\n      swap2\n      pop\n      pop\n      jump\t// out\n        /* \"#utility.yul\":16433:17704   */\n    tag_91:\n        /* \"#utility.yul\":16548:16554   */\n      0x00\n        /* \"#utility.yul\":16556:16562   */\n      dup1\n        /* \"#utility.yul\":16564:16570   */\n      0x00\n        /* \"#utility.yul\":16572:16578   */\n      dup1\n        /* \"#utility.yul\":16580:16586   */\n      0x00\n        /* \"#utility.yul\":16629:16632   */\n      0xa0\n        /* \"#utility.yul\":16617:16626   */\n      dup7\n        /* \"#utility.yul\":16608:16615   */\n      dup9\n        /* \"#utility.yul\":16604:16627   */\n      sub\n        /* \"#utility.yul\":16600:16633   */\n      slt\n        /* \"#utility.yul\":16597:16717   */\n      iszero\n      tag_491\n      jumpi\n        /* \"#utility.yul\":16636:16715   */\n      tag_492\n      tag_284\n      jump\t// in\n    tag_492:\n        /* \"#utility.yul\":16597:16717   */\n    tag_491:\n        /* \"#utility.yul\":16756:16757   */\n      0x00\n        /* \"#utility.yul\":16781:16834   */\n      tag_493\n        /* \"#utility.yul\":16826:16833   */\n      dup9\n        /* \"#utility.yul\":16817:16823   */\n      dup3\n        /* \"#utility.yul\":16806:16815   */\n      dup10\n        /* \"#utility.yul\":16802:16824   */\n      add\n        /* \"#utility.yul\":16781:16834   */\n      tag_288\n      jump\t// in\n    tag_493:\n        /* \"#utility.yul\":16771:16834   */\n      swap6\n      pop\n        /* \"#utility.yul\":16727:16844   */\n      pop\n        /* \"#utility.yul\":16911:16913   */\n      0x20\n        /* \"#utility.yul\":16900:16909   */\n      dup7\n        /* \"#utility.yul\":16896:16914   */\n      add\n        /* \"#utility.yul\":16883:16915   */\n      calldataload\n        /* \"#utility.yul\":16942:16960   */\n      0xffffffffffffffff\n        /* \"#utility.yul\":16934:16940   */\n      dup2\n        /* \"#utility.yul\":16931:16961   */\n      gt\n        /* \"#utility.yul\":16928:17045   */\n      iszero\n      tag_494\n      jumpi\n        /* \"#utility.yul\":16964:17043   */\n      tag_495\n      tag_285\n      jump\t// in\n    tag_495:\n        /* \"#utility.yul\":16928:17045   */\n    tag_494:\n        /* \"#utility.yul\":17069:17132   */\n      tag_496\n        /* \"#utility.yul\":17124:17131   */\n      dup9\n        /* \"#utility.yul\":17115:17121   */\n      dup3\n        /* \"#utility.yul\":17104:17113   */\n      dup10\n        /* \"#utility.yul\":17100:17122   */\n      add\n        /* \"#utility.yul\":17069:17132   */\n      tag_298\n      jump\t// in\n    tag_496:\n        /* \"#utility.yul\":17059:17132   */\n      swap5\n      pop\n        /* \"#utility.yul\":16854:17142   */\n      pop\n        /* \"#utility.yul\":17181:17183   */\n      0x40\n        /* \"#utility.yul\":17207:17260   */\n      tag_497\n        /* \"#utility.yul\":17252:17259   */\n      dup9\n        /* \"#utility.yul\":17243:17249   */\n      dup3\n        /* \"#utility.yul\":17232:17241   */\n      dup10\n        /* \"#utility.yul\":17228:17250   */\n      add\n        /* \"#utility.yul\":17207:17260   */\n      tag_288\n      jump\t// in\n    tag_497:\n        /* \"#utility.yul\":17197:17260   */\n      swap4\n      pop\n        /* \"#utility.yul\":17152:17270   */\n      pop\n        /* \"#utility.yul\":17309:17311   */\n      0x60\n        /* \"#utility.yul\":17335:17388   */\n      tag_498\n        /* \"#utility.yul\":17380:17387   */\n      dup9\n        /* \"#utility.yul\":17371:17377   */\n      dup3\n        /* \"#utility.yul\":17360:17369   */\n      dup10\n        /* \"#utility.yul\":17356:17378   */\n      add\n        /* \"#utility.yul\":17335:17388   */\n      tag_288\n      jump\t// in\n    tag_498:\n        /* \"#utility.yul\":17325:17388   */\n      swap3\n      pop\n        /* \"#utility.yul\":17280:17398   */\n      pop\n        /* \"#utility.yul\":17465:17468   */\n      0x80\n        /* \"#utility.yul\":17454:17463   */\n      dup7\n        /* \"#utility.yul\":17450:17469   */\n      add\n        /* \"#utility.yul\":17437:17470   */\n      calldataload\n        /* \"#utility.yul\":17497:17515   */\n      0xffffffffffffffff\n        /* \"#utility.yul\":17489:17495   */\n      dup2\n        /* \"#utility.yul\":17486:17516   */\n      gt\n        /* \"#utility.yul\":17483:17600   */\n      iszero\n      tag_499\n      jumpi\n        /* \"#utility.yul\":17519:17598   */\n      tag_500\n      tag_285\n      jump\t// in\n    tag_500:\n        /* \"#utility.yul\":17483:17600   */\n    tag_499:\n        /* \"#utility.yul\":17624:17687   */\n      tag_501\n        /* \"#utility.yul\":17679:17686   */\n      dup9\n        /* \"#utility.yul\":17670:17676   */\n      dup3\n        /* \"#utility.yul\":17659:17668   */\n      dup10\n        /* \"#utility.yul\":17655:17677   */\n      add\n        /* \"#utility.yul\":17624:17687   */\n      tag_298\n      jump\t// in\n    tag_501:\n        /* \"#utility.yul\":17614:17687   */\n      swap2\n      pop\n        /* \"#utility.yul\":17408:17697   */\n      pop\n        /* \"#utility.yul\":16433:17704   */\n      swap3\n      swap6\n      pop\n      swap3\n      swap6\n      swap1\n      swap4\n      pop\n      jump\t// out\n        /* \"#utility.yul\":17710:17943   */\n    tag_317:\n        /* \"#utility.yul\":17850:17884   */\n      0x4f6e6c7920636f6e7472616374206f776e65722063616e20706572666f726d20\n        /* \"#utility.yul\":17846:17847   */\n      0x00\n        /* \"#utility.yul\":17838:17844   */\n      dup3\n        /* \"#utility.yul\":17834:17848   */\n      add\n        /* \"#utility.yul\":17827:17885   */\n      mstore\n        /* \"#utility.yul\":17919:17935   */\n      0x74686973206f7065726174696f6e000000000000000000000000000000000000\n        /* \"#utility.yul\":17914:17916   */\n      0x20\n        /* \"#utility.yul\":17906:17912   */\n      dup3\n        /* \"#utility.yul\":17902:17917   */\n      add\n        /* \"#utility.yul\":17895:17936   */\n      mstore\n        /* \"#utility.yul\":17710:17943   */\n      pop\n      jump\t// out\n        /* \"#utility.yul\":17949:18315   */\n    tag_318:\n        /* \"#utility.yul\":18091:18094   */\n      0x00\n        /* \"#utility.yul\":18112:18179   */\n      tag_504\n        /* \"#utility.yul\":18176:18178   */\n      0x2e\n        /* \"#utility.yul\":18171:18174   */\n      dup4\n        /* \"#utility.yul\":18112:18179   */\n      tag_308\n      jump\t// in\n    tag_504:\n        /* \"#utility.yul\":18105:18179   */\n      swap2\n      pop\n        /* \"#utility.yul\":18188:18281   */\n      tag_505\n        /* \"#utility.yul\":18277:18280   */\n      dup3\n        /* \"#utility.yul\":18188:18281   */\n      tag_317\n      jump\t// in\n    tag_505:\n        /* \"#utility.yul\":18306:18308   */\n      0x40\n        /* \"#utility.yul\":18301:18304   */\n      dup3\n        /* \"#utility.yul\":18297:18309   */\n      add\n        /* \"#utility.yul\":18290:18309   */\n      swap1\n      pop\n        /* \"#utility.yul\":17949:18315   */\n      swap2\n      swap1\n      pop\n      jump\t// out\n        /* \"#utility.yul\":18321:18740   */\n    tag_108:\n        /* \"#utility.yul\":18487:18491   */\n      0x00\n        /* \"#utility.yul\":18525:18527   */\n      0x20\n        /* \"#utility.yul\":18514:18523   */\n      dup3\n        /* \"#utility.yul\":18510:18528   */\n      add\n        /* \"#utility.yul\":18502:18528   */\n      swap1\n      pop\n        /* \"#utility.yul\":18574:18583   */\n      dup2\n        /* \"#utility.yul\":18568:18572   */\n      dup2\n        /* \"#utility.yul\":18564:18584   */\n      sub\n        /* \"#utility.yul\":18560:18561   */\n      0x00\n        /* \"#utility.yul\":18549:18558   */\n      dup4\n        /* \"#utility.yul\":18545:18562   */\n      add\n        /* \"#utility.yul\":18538:18585   */\n      mstore\n        /* \"#utility.yul\":18602:18733   */\n      tag_507\n        /* \"#utility.yul\":18728:18732   */\n      dup2\n        /* \"#utility.yul\":18602:18733   */\n      tag_318\n      jump\t// in\n    tag_507:\n        /* \"#utility.yul\":18594:18733   */\n      swap1\n      pop\n        /* \"#utility.yul\":18321:18740   */\n      swap2\n      swap1\n      pop\n      jump\t// out\n        /* \"#utility.yul\":18746:18982   */\n    tag_319:\n        /* \"#utility.yul\":18886:18920   */\n      0x4d616e75666163747572657220646f6573206e6f74206578697374206f722069\n        /* \"#utility.yul\":18882:18883   */\n      0x00\n        /* \"#utility.yul\":18874:18880   */\n      dup3\n        /* \"#utility.yul\":18870:18884   */\n      add\n        /* \"#utility.yul\":18863:18921   */\n      mstore\n        /* \"#utility.yul\":18955:18974   */\n      0x7320616c72656164792064656c65746564000000000000000000000000000000\n        /* \"#utility.yul\":18950:18952   */\n      0x20\n        /* \"#utility.yul\":18942:18948   */\n      dup3\n        /* \"#utility.yul\":18938:18953   */\n      add\n        /* \"#utility.yul\":18931:18975   */\n      mstore\n        /* \"#utility.yul\":18746:18982   */\n      pop\n      jump\t// out\n        /* \"#utility.yul\":18988:19354   */\n    tag_320:\n        /* \"#utility.yul\":19130:19133   */\n      0x00\n        /* \"#utility.yul\":19151:19218   */\n      tag_510\n        /* \"#utility.yul\":19215:19217   */\n      0x31\n        /* \"#utility.yul\":19210:19213   */\n      dup4\n        /* \"#utility.yul\":19151:19218   */\n      tag_308\n      jump\t// in\n    tag_510:\n        /* \"#utility.yul\":19144:19218   */\n      swap2\n      pop\n        /* \"#utility.yul\":19227:19320   */\n      tag_511\n        /* \"#utility.yul\":19316:19319   */\n      dup3\n        /* \"#utility.yul\":19227:19320   */\n      tag_319\n      jump\t// in\n    tag_511:\n        /* \"#utility.yul\":19345:19347   */\n      0x40\n        /* \"#utility.yul\":19340:19343   */\n      dup3\n        /* \"#utility.yul\":19336:19348   */\n      add\n        /* \"#utility.yul\":19329:19348   */\n      swap1\n      pop\n        /* \"#utility.yul\":18988:19354   */\n      swap2\n      swap1\n      pop\n      jump\t// out\n        /* \"#utility.yul\":19360:19779   */\n    tag_112:\n        /* \"#utility.yul\":19526:19530   */\n      0x00\n        /* \"#utility.yul\":19564:19566   */\n      0x20\n        /* \"#utility.yul\":19553:19562   */\n      dup3\n        /* \"#utility.yul\":19549:19567   */\n      add\n        /* \"#utility.yul\":19541:19567   */\n      swap1\n      pop\n        /* \"#utility.yul\":19613:19622   */\n      dup2\n        /* \"#utility.yul\":19607:19611   */\n      dup2\n        /* \"#utility.yul\":19603:19623   */\n      sub\n        /* \"#utility.yul\":19599:19600   */\n      0x00\n        /* \"#utility.yul\":19588:19597   */\n      dup4\n        /* \"#utility.yul\":19584:19601   */\n      add\n        /* \"#utility.yul\":19577:19624   */\n      mstore\n        /* \"#utility.yul\":19641:19772   */\n      tag_513\n        /* \"#utility.yul\":19767:19771   */\n      dup2\n        /* \"#utility.yul\":19641:19772   */\n      tag_320\n      jump\t// in\n    tag_513:\n        /* \"#utility.yul\":19633:19772   */\n      swap1\n      pop\n        /* \"#utility.yul\":19360:19779   */\n      swap2\n      swap1\n      pop\n      jump\t// out\n        /* \"#utility.yul\":19785:20017   */\n    tag_321:\n        /* \"#utility.yul\":19925:19959   */\n      0x537570706c69657220646f6573206e6f74206578697374206f7220697320616c\n        /* \"#utility.yul\":19921:19922   */\n      0x00\n        /* \"#utility.yul\":19913:19919   */\n      dup3\n        /* \"#utility.yul\":19909:19923   */\n      add\n        /* \"#utility.yul\":19902:19960   */\n      mstore\n        /* \"#utility.yul\":19994:20009   */\n      0x72656164792064656c6574656400000000000000000000000000000000000000\n        /* \"#utility.yul\":19989:19991   */\n      0x20\n        /* \"#utility.yul\":19981:19987   */\n      dup3\n        /* \"#utility.yul\":19977:19992   */\n      add\n        /* \"#utility.yul\":19970:20010   */\n      mstore\n        /* \"#utility.yul\":19785:20017   */\n      pop\n      jump\t// out\n        /* \"#utility.yul\":20023:20389   */\n    tag_322:\n        /* \"#utility.yul\":20165:20168   */\n      0x00\n        /* \"#utility.yul\":20186:20253   */\n      tag_516\n        /* \"#utility.yul\":20250:20252   */\n      0x2d\n        /* \"#utility.yul\":20245:20248   */\n      dup4\n        /* \"#utility.yul\":20186:20253   */\n      tag_308\n      jump\t// in\n    tag_516:\n        /* \"#utility.yul\":20179:20253   */\n      swap2\n      pop\n        /* \"#utility.yul\":20262:20355   */\n      tag_517\n        /* \"#utility.yul\":20351:20354   */\n      dup3\n        /* \"#utility.yul\":20262:20355   */\n      tag_321\n      jump\t// in\n    tag_517:\n        /* \"#utility.yul\":20380:20382   */\n      0x40\n        /* \"#utility.yul\":20375:20378   */\n      dup3\n        /* \"#utility.yul\":20371:20383   */\n      add\n        /* \"#utility.yul\":20364:20383   */\n      swap1\n      pop\n        /* \"#utility.yul\":20023:20389   */\n      swap2\n      swap1\n      pop\n      jump\t// out\n        /* \"#utility.yul\":20395:20814   */\n    tag_119:\n        /* \"#utility.yul\":20561:20565   */\n      0x00\n        /* \"#utility.yul\":20599:20601   */\n      0x20\n        /* \"#utility.yul\":20588:20597   */\n      dup3\n        /* \"#utility.yul\":20584:20602   */\n      add\n        /* \"#utility.yul\":20576:20602   */\n      swap1\n      pop\n        /* \"#utility.yul\":20648:20657   */\n      dup2\n        /* \"#utility.yul\":20642:20646   */\n      dup2\n        /* \"#utility.yul\":20638:20658   */\n      sub\n        /* \"#utility.yul\":20634:20635   */\n      0x00\n        /* \"#utility.yul\":20623:20632   */\n      dup4\n        /* \"#utility.yul\":20619:20636   */\n      add\n        /* \"#utility.yul\":20612:20659   */\n      mstore\n        /* \"#utility.yul\":20676:20807   */\n      tag_519\n        /* \"#utility.yul\":20802:20806   */\n      dup2\n        /* \"#utility.yul\":20676:20807   */\n      tag_322\n      jump\t// in\n    tag_519:\n        /* \"#utility.yul\":20668:20807   */\n      swap1\n      pop\n        /* \"#utility.yul\":20395:20814   */\n      swap2\n      swap1\n      pop\n      jump\t// out\n        /* \"#utility.yul\":20820:21043   */\n    tag_323:\n        /* \"#utility.yul\":20960:20994   */\n      0x50726f6475637420646f6573206e6f74206578697374206f722069732064656c\n        /* \"#utility.yul\":20956:20957   */\n      0x00\n        /* \"#utility.yul\":20948:20954   */\n      dup3\n        /* \"#utility.yul\":20944:20958   */\n      add\n        /* \"#utility.yul\":20937:20995   */\n      mstore\n        /* \"#utility.yul\":21029:21035   */\n      0x6574656400000000000000000000000000000000000000000000000000000000\n        /* \"#utility.yul\":21024:21026   */\n      0x20\n        /* \"#utility.yul\":21016:21022   */\n      dup3\n        /* \"#utility.yul\":21012:21027   */\n      add\n        /* \"#utility.yul\":21005:21036   */\n      mstore\n        /* \"#utility.yul\":20820:21043   */\n      pop\n      jump\t// out\n        /* \"#utility.yul\":21049:21415   */\n    tag_324:\n        /* \"#utility.yul\":21191:21194   */\n      0x00\n        /* \"#utility.yul\":21212:21279   */\n      tag_522\n        /* \"#utility.yul\":21276:21278   */\n      0x24\n        /* \"#utility.yul\":21271:21274   */\n      dup4\n        /* \"#utility.yul\":21212:21279   */\n      tag_308\n      jump\t// in\n    tag_522:\n        /* \"#utility.yul\":21205:21279   */\n      swap2\n      pop\n        /* \"#utility.yul\":21288:21381   */\n      tag_523\n        /* \"#utility.yul\":21377:21380   */\n      dup3\n        /* \"#utility.yul\":21288:21381   */\n      tag_323\n      jump\t// in\n    tag_523:\n        /* \"#utility.yul\":21406:21408   */\n      0x40\n        /* \"#utility.yul\":21401:21404   */\n      dup3\n        /* \"#utility.yul\":21397:21409   */\n      add\n        /* \"#utility.yul\":21390:21409   */\n      swap1\n      pop\n        /* \"#utility.yul\":21049:21415   */\n      swap2\n      swap1\n      pop\n      jump\t// out\n        /* \"#utility.yul\":21421:21840   */\n    tag_126:\n        /* \"#utility.yul\":21587:21591   */\n      0x00\n        /* \"#utility.yul\":21625:21627   */\n      0x20\n        /* \"#utility.yul\":21614:21623   */\n      dup3\n        /* \"#utility.yul\":21610:21628   */\n      add\n        /* \"#utility.yul\":21602:21628   */\n      swap1\n      pop\n        /* \"#utility.yul\":21674:21683   */\n      dup2\n        /* \"#utility.yul\":21668:21672   */\n      dup2\n        /* \"#utility.yul\":21664:21684   */\n      sub\n        /* \"#utility.yul\":21660:21661   */\n      0x00\n        /* \"#utility.yul\":21649:21658   */\n      dup4\n        /* \"#utility.yul\":21645:21662   */\n      add\n        /* \"#utility.yul\":21638:21685   */\n      mstore\n        /* \"#utility.yul\":21702:21833   */\n      tag_525\n        /* \"#utility.yul\":21828:21832   */\n      dup2\n        /* \"#utility.yul\":21702:21833   */\n      tag_324\n      jump\t// in\n    tag_525:\n        /* \"#utility.yul\":21694:21833   */\n      swap1\n      pop\n        /* \"#utility.yul\":21421:21840   */\n      swap2\n      swap1\n      pop\n      jump\t// out\n        /* \"#utility.yul\":21846:22073   */\n    tag_325:\n        /* \"#utility.yul\":21986:22020   */\n      0x5472616e73616374696f6e20646f6573206e6f74206578697374206f72206973\n        /* \"#utility.yul\":21982:21983   */\n      0x00\n        /* \"#utility.yul\":21974:21980   */\n      dup3\n        /* \"#utility.yul\":21970:21984   */\n      add\n        /* \"#utility.yul\":21963:22021   */\n      mstore\n        /* \"#utility.yul\":22055:22065   */\n      0x2064656c65746564000000000000000000000000000000000000000000000000\n        /* \"#utility.yul\":22050:22052   */\n      0x20\n        /* \"#utility.yul\":22042:22048   */\n      dup3\n        /* \"#utility.yul\":22038:22053   */\n      add\n        /* \"#utility.yul\":22031:22066   */\n      mstore\n        /* \"#utility.yul\":21846:22073   */\n      pop\n      jump\t// out\n        /* \"#utility.yul\":22079:22445   */\n    tag_326:\n        /* \"#utility.yul\":22221:22224   */\n      0x00\n        /* \"#utility.yul\":22242:22309   */\n      tag_528\n        /* \"#utility.yul\":22306:22308   */\n      0x28\n        /* \"#utility.yul\":22301:22304   */\n      dup4\n        /* \"#utility.yul\":22242:22309   */\n      tag_308\n      jump\t// in\n    tag_528:\n        /* \"#utility.yul\":22235:22309   */\n      swap2\n      pop\n        /* \"#utility.yul\":22318:22411   */\n      tag_529\n        /* \"#utility.yul\":22407:22410   */\n      dup3\n        /* \"#utility.yul\":22318:22411   */\n      tag_325\n      jump\t// in\n    tag_529:\n        /* \"#utility.yul\":22436:22438   */\n      0x40\n        /* \"#utility.yul\":22431:22434   */\n      dup3\n        /* \"#utility.yul\":22427:22439   */\n      add\n        /* \"#utility.yul\":22420:22439   */\n      swap1\n      pop\n        /* \"#utility.yul\":22079:22445   */\n      swap2\n      swap1\n      pop\n      jump\t// out\n        /* \"#utility.yul\":22451:22870   */\n    tag_129:\n        /* \"#utility.yul\":22617:22621   */\n      0x00\n        /* \"#utility.yul\":22655:22657   */\n      0x20\n        /* \"#utility.yul\":22644:22653   */\n      dup3\n        /* \"#utility.yul\":22640:22658   */\n      add\n        /* \"#utility.yul\":22632:22658   */\n      swap1\n      pop\n        /* \"#utility.yul\":22704:22713   */\n      dup2\n        /* \"#utility.yul\":22698:22702   */\n      dup2\n        /* \"#utility.yul\":22694:22714   */\n      sub\n        /* \"#utility.yul\":22690:22691   */\n      0x00\n        /* \"#utility.yul\":22679:22688   */\n      dup4\n        /* \"#utility.yul\":22675:22692   */\n      add\n        /* \"#utility.yul\":22668:22715   */\n      mstore\n        /* \"#utility.yul\":22732:22863   */\n      tag_531\n        /* \"#utility.yul\":22858:22862   */\n      dup2\n        /* \"#utility.yul\":22732:22863   */\n      tag_326\n      jump\t// in\n    tag_531:\n        /* \"#utility.yul\":22724:22863   */\n      swap1\n      pop\n        /* \"#utility.yul\":22451:22870   */\n      swap2\n      swap1\n      pop\n      jump\t// out\n        /* \"#utility.yul\":22876:23056   */\n    tag_327:\n        /* \"#utility.yul\":22924:23001   */\n      0x4e487b7100000000000000000000000000000000000000000000000000000000\n        /* \"#utility.yul\":22921:22922   */\n      0x00\n        /* \"#utility.yul\":22914:23002   */\n      mstore\n        /* \"#utility.yul\":23021:23025   */\n      0x22\n        /* \"#utility.yul\":23018:23019   */\n      0x04\n        /* \"#utility.yul\":23011:23026   */\n      mstore\n        /* \"#utility.yul\":23045:23049   */\n      0x24\n        /* \"#utility.yul\":23042:23043   */\n      0x00\n        /* \"#utility.yul\":23035:23050   */\n      revert\n        /* \"#utility.yul\":23062:23382   */\n    tag_154:\n        /* \"#utility.yul\":23106:23112   */\n      0x00\n        /* \"#utility.yul\":23143:23144   */\n      0x02\n        /* \"#utility.yul\":23137:23141   */\n      dup3\n        /* \"#utility.yul\":23133:23145   */\n      div\n        /* \"#utility.yul\":23123:23145   */\n      swap1\n      pop\n        /* \"#utility.yul\":23190:23191   */\n      0x01\n        /* \"#utility.yul\":23184:23188   */\n      dup3\n        /* \"#utility.yul\":23180:23192   */\n      and\n        /* \"#utility.yul\":23211:23229   */\n      dup1\n        /* \"#utility.yul\":23201:23282   */\n      tag_534\n      jumpi\n        /* \"#utility.yul\":23267:23271   */\n      0x7f\n        /* \"#utility.yul\":23259:23265   */\n      dup3\n        /* \"#utility.yul\":23255:23272   */\n      and\n        /* \"#utility.yul\":23245:23272   */\n      swap2\n      pop\n        /* \"#utility.yul\":23201:23282   */\n    tag_534:\n        /* \"#utility.yul\":23329:23331   */\n      0x20\n        /* \"#utility.yul\":23321:23327   */\n      dup3\n        /* \"#utility.yul\":23318:23332   */\n      lt\n        /* \"#utility.yul\":23298:23316   */\n      dup2\n        /* \"#utility.yul\":23295:23333   */\n      sub\n        /* \"#utility.yul\":23292:23376   */\n      tag_535\n      jumpi\n        /* \"#utility.yul\":23348:23366   */\n      tag_536\n      tag_327\n      jump\t// in\n    tag_536:\n        /* \"#utility.yul\":23292:23376   */\n    tag_535:\n        /* \"#utility.yul\":23113:23382   */\n      pop\n        /* \"#utility.yul\":23062:23382   */\n      swap2\n      swap1\n      pop\n      jump\t// out\n        /* \"#utility.yul\":23388:23529   */\n    tag_328:\n        /* \"#utility.yul\":23437:23441   */\n      0x00\n        /* \"#utility.yul\":23460:23463   */\n      dup2\n        /* \"#utility.yul\":23452:23463   */\n      swap1\n      pop\n        /* \"#utility.yul\":23483:23486   */\n      dup2\n        /* \"#utility.yul\":23480:23481   */\n      0x00\n        /* \"#utility.yul\":23473:23487   */\n      mstore\n        /* \"#utility.yul\":23517:23521   */\n      0x20\n        /* \"#utility.yul\":23514:23515   */\n      0x00\n        /* \"#utility.yul\":23504:23522   */\n      keccak256\n        /* \"#utility.yul\":23496:23522   */\n      swap1\n      pop\n        /* \"#utility.yul\":23388:23529   */\n      swap2\n      swap1\n      pop\n      jump\t// out\n        /* \"#utility.yul\":23535:23628   */\n    tag_329:\n        /* \"#utility.yul\":23572:23578   */\n      0x00\n        /* \"#utility.yul\":23619:23621   */\n      0x20\n        /* \"#utility.yul\":23614:23616   */\n      0x1f\n        /* \"#utility.yul\":23607:23612   */\n      dup4\n        /* \"#utility.yul\":23603:23617   */\n      add\n        /* \"#utility.yul\":23599:23622   */\n      div\n        /* \"#utility.yul\":23589:23622   */\n      swap1\n      pop\n        /* \"#utility.yul\":23535:23628   */\n      swap2\n      swap1\n      pop\n      jump\t// out\n        /* \"#utility.yul\":23634:23741   */\n    tag_330:\n        /* \"#utility.yul\":23678:23686   */\n      0x00\n        /* \"#utility.yul\":23728:23733   */\n      dup3\n        /* \"#utility.yul\":23722:23726   */\n      dup3\n        /* \"#utility.yul\":23718:23734   */\n      shl\n        /* \"#utility.yul\":23697:23734   */\n      swap1\n      pop\n        /* \"#utility.yul\":23634:23741   */\n      swap3\n      swap2\n      pop\n      pop\n      jump\t// out\n        /* \"#utility.yul\":23747:24140   */\n    tag_331:\n        /* \"#utility.yul\":23816:23822   */\n      0x00\n        /* \"#utility.yul\":23866:23867   */\n      0x08\n        /* \"#utility.yul\":23854:23864   */\n      dup4\n        /* \"#utility.yul\":23850:23868   */\n      mul\n        /* \"#utility.yul\":23889:23986   */\n      tag_541\n        /* \"#utility.yul\":23919:23985   */\n      0xffffffffffffffffffffffffffffffffffffffffffffffffffffffffffffffff\n        /* \"#utility.yul\":23908:23917   */\n      dup3\n        /* \"#utility.yul\":23889:23986   */\n      tag_330\n      jump\t// in\n    tag_541:\n        /* \"#utility.yul\":24007:24046   */\n      tag_542\n        /* \"#utility.yul\":24037:24045   */\n      dup7\n        /* \"#utility.yul\":24026:24035   */\n      dup4\n        /* \"#utility.yul\":24007:24046   */\n      tag_330\n      jump\t// in\n    tag_542:\n        /* \"#utility.yul\":23995:24046   */\n      swap6\n      pop\n        /* \"#utility.yul\":24079:24083   */\n      dup1\n        /* \"#utility.yul\":24075:24084   */\n      not\n        /* \"#utility.yul\":24068:24073   */\n      dup5\n        /* \"#utility.yul\":24064:24085   */\n      and\n        /* \"#utility.yul\":24055:24085   */\n      swap4\n      pop\n        /* \"#utility.yul\":24128:24132   */\n      dup1\n        /* \"#utility.yul\":24118:24126   */\n      dup7\n        /* \"#utility.yul\":24114:24133   */\n      and\n        /* \"#utility.yul\":24107:24112   */\n      dup5\n        /* \"#utility.yul\":24104:24134   */\n      or\n        /* \"#utility.yul\":24094:24134   */\n      swap3\n      pop\n        /* \"#utility.yul\":23823:24140   */\n      pop\n      pop\n        /* \"#utility.yul\":23747:24140   */\n      swap4\n      swap3\n      pop\n      pop\n      pop\n      jump\t// out\n        /* \"#utility.yul\":24146:24206   */\n    tag_332:\n        /* \"#utility.yul\":24174:24177   */\n      0x00\n        /* \"#utility.yul\":24195:24200   */\n      dup2\n        /* \"#utility.yul\":24188:24200   */\n      swap1\n      pop\n        /* \"#utility.yul\":24146:24206   */\n      swap2\n      swap1\n      pop\n      jump\t// out\n        /* \"#utility.yul\":24212:24354   */\n    tag_333:\n        /* \"#utility.yul\":24262:24271   */\n      0x00\n        /* \"#utility.yul\":24295:24348   */\n      tag_545\n        /* \"#utility.yul\":24313:24347   */\n      tag_546\n        /* \"#utility.yul\":24322:24346   */\n      tag_547\n        /* \"#utility.yul\":24340:24345   */\n      dup5\n        /* \"#utility.yul\":24322:24346   */\n      tag_286\n      jump\t// in\n    tag_547:\n        /* \"#utility.yul\":24313:24347   */\n      tag_332\n      jump\t// in\n    tag_546:\n        /* \"#utility.yul\":24295:24348   */\n      tag_286\n      jump\t// in\n    tag_545:\n        /* \"#utility.yul\":24282:24348   */\n      swap1\n      pop\n        /* \"#utility.yul\":24212:24354   */\n      swap2\n      swap1\n      pop\n      jump\t// out\n        /* \"#utility.yul\":24360:24435   */\n    tag_334:\n        /* \"#utility.yul\":24403:24406   */\n      0x00\n        /* \"#utility.yul\":24424:24429   */\n      dup2\n        /* \"#utility.yul\":24417:24429   */\n      swap1\n      pop\n        /* \"#utility.yul\":24360:24435   */\n      swap2\n      swap1\n      pop\n      jump\t// out\n        /* \"#utility.yul\":24441:24710   */\n    tag_335:\n        /* \"#utility.yul\":24551:24590   */\n      tag_550\n        /* \"#utility.yul\":24582:24589   */\n      dup4\n        /* \"#utility.yul\":24551:24590   */\n      tag_333\n      jump\t// in\n    tag_550:\n        /* \"#utility.yul\":24612:24703   */\n      tag_551\n        /* \"#utility.yul\":24661:24702   */\n      tag_552\n        /* \"#utility.yul\":24685:24701   */\n      dup3\n        /* \"#utility.yul\":24661:24702   */\n      tag_334\n      jump\t// in\n    tag_552:\n        /* \"#utility.yul\":24653:24659   */\n      dup5\n        /* \"#utility.yul\":24646:24650   */\n      dup5\n        /* \"#utility.yul\":24640:24651   */\n      sload\n        /* \"#utility.yul\":24612:24703   */\n      tag_331\n      jump\t// in\n    tag_551:\n        /* \"#utility.yul\":24606:24610   */\n      dup3\n        /* \"#utility.yul\":24599:24704   */\n      sstore\n        /* \"#utility.yul\":24517:24710   */\n      pop\n        /* \"#utility.yul\":24441:24710   */\n      pop\n      pop\n      pop\n      jump\t// out\n        /* \"#utility.yul\":24716:24789   */\n    tag_336:\n        /* \"#utility.yul\":24761:24764   */\n      0x00\n        /* \"#utility.yul\":24716:24789   */\n      swap1\n      jump\t// out\n        /* \"#utility.yul\":24795:24984   */\n    tag_337:\n        /* \"#utility.yul\":24872:24904   */\n      tag_555\n      tag_336\n      jump\t// in\n    tag_555:\n        /* \"#utility.yul\":24913:24978   */\n      tag_556\n        /* \"#utility.yul\":24971:24977   */\n      dup2\n        /* \"#utility.yul\":24963:24969   */\n      dup5\n        /* \"#utility.yul\":24957:24961   */\n      dup5\n        /* \"#utility.yul\":24913:24978   */\n      tag_335\n      jump\t// in\n    tag_556:\n        /* \"#utility.yul\":24848:24984   */\n      pop\n        /* \"#utility.yul\":24795:24984   */\n      pop\n      pop\n      jump\t// out\n        /* \"#utility.yul\":24990:25176   */\n    tag_338:\n        /* \"#utility.yul\":25050:25170   */\n    tag_558:\n        /* \"#utility.yul\":25067:25070   */\n      dup2\n        /* \"#utility.yul\":25060:25065   */\n      dup2\n        /* \"#utility.yul\":25057:25071   */\n      lt\n        /* \"#utility.yul\":25050:25170   */\n      iszero\n      tag_560\n      jumpi\n        /* \"#utility.yul\":25121:25160   */\n      tag_561\n        /* \"#utility.yul\":25158:25159   */\n      0x00\n        /* \"#utility.yul\":25151:25156   */\n      dup3\n        /* \"#utility.yul\":25121:25160   */\n      tag_337\n      jump\t// in\n    tag_561:\n        /* \"#utility.yul\":25094:25095   */\n      0x01\n        /* \"#utility.yul\":25087:25092   */\n      dup2\n        /* \"#utility.yul\":25083:25096   */\n      add\n        /* \"#utility.yul\":25074:25096   */\n      swap1\n      pop\n        /* \"#utility.yul\":25050:25170   */\n      jump(tag_558)\n    tag_560:\n        /* \"#utility.yul\":24990:25176   */\n      pop\n      pop\n      jump\t// out\n        /* \"#utility.yul\":25182:25725   */\n    tag_339:\n        /* \"#utility.yul\":25283:25285   */\n      0x1f\n        /* \"#utility.yul\":25278:25281   */\n      dup3\n        /* \"#utility.yul\":25275:25286   */\n      gt\n        /* \"#utility.yul\":25272:25718   */\n      iszero\n      tag_563\n      jumpi\n        /* \"#utility.yul\":25317:25355   */\n      tag_564\n        /* \"#utility.yul\":25349:25354   */\n      dup2\n        /* \"#utility.yul\":25317:25355   */\n      tag_328\n      jump\t// in\n    tag_564:\n        /* \"#utility.yul\":25401:25430   */\n      tag_565\n        /* \"#utility.yul\":25419:25429   */\n      dup5\n        /* \"#utility.yul\":25401:25430   */\n      tag_329\n      jump\t// in\n    tag_565:\n        /* \"#utility.yul\":25391:25399   */\n      dup2\n        /* \"#utility.yul\":25387:25431   */\n      add\n        /* \"#utility.yul\":25584:25586   */\n      0x20\n        /* \"#utility.yul\":25572:25582   */\n      dup6\n        /* \"#utility.yul\":25569:25587   */\n      lt\n        /* \"#utility.yul\":25566:25615   */\n      iszero\n      tag_566\n      jumpi\n        /* \"#utility.yul\":25605:25613   */\n      dup2\n        /* \"#utility.yul\":25590:25613   */\n      swap1\n      pop\n        /* \"#utility.yul\":25566:25615   */\n    tag_566:\n        /* \"#utility.yul\":25628:25708   */\n      tag_567\n        /* \"#utility.yul\":25684:25706   */\n      tag_568\n        /* \"#utility.yul\":25702:25705   */\n      dup6\n        /* \"#utility.yul\":25684:25706   */\n      tag_329\n      jump\t// in\n    tag_568:\n        /* \"#utility.yul\":25674:25682   */\n      dup4\n        /* \"#utility.yul\":25670:25707   */\n      add\n        /* \"#utility.yul\":25657:25668   */\n      dup3\n        /* \"#utility.yul\":25628:25708   */\n      tag_338\n      jump\t// in\n    tag_567:\n        /* \"#utility.yul\":25287:25718   */\n      pop\n      pop\n        /* \"#utility.yul\":25272:25718   */\n    tag_563:\n        /* \"#utility.yul\":25182:25725   */\n      pop\n      pop\n      pop\n      jump\t// out\n        /* \"#utility.yul\":25731:25848   */\n    tag_340:\n        /* \"#utility.yul\":25785:25793   */\n      0x00\n        /* \"#utility.yul\":25835:25840   */\n      dup3\n        /* \"#utility.yul\":25829:25833   */\n      dup3\n        /* \"#utility.yul\":25825:25841   */\n      shr\n        /* \"#utility.yul\":25804:25841   */\n      swap1\n      pop\n        /* \"#utility.yul\":25731:25848   */\n      swap3\n      swap2\n      pop\n      pop\n      jump\t// out\n        /* \"#utility.yul\":25854:26023   */\n    tag_341:\n        /* \"#utility.yul\":25898:25904   */\n      0x00\n        /* \"#utility.yul\":25931:25982   */\n      tag_571\n        /* \"#utility.yul\":25979:25980   */\n      0x00\n        /* \"#utility.yul\":25975:25981   */\n      not\n        /* \"#utility.yul\":25967:25972   */\n      dup5\n        /* \"#utility.yul\":25964:25965   */\n      0x08\n        /* \"#utility.yul\":25960:25973   */\n      mul\n        /* \"#utility.yul\":25931:25982   */\n      tag_340\n      jump\t// in\n    tag_571:\n        /* \"#utility.yul\":25927:25983   */\n      not\n        /* \"#utility.yul\":26012:26016   */\n      dup1\n        /* \"#utility.yul\":26006:26010   */\n      dup4\n        /* \"#utility.yul\":26002:26017   */\n      and\n        /* \"#utility.yul\":25992:26017   */\n      swap2\n      pop\n        /* \"#utility.yul\":25905:26023   */\n      pop\n        /* \"#utility.yul\":25854:26023   */\n      swap3\n      swap2\n      pop\n      pop\n      jump\t// out\n        /* \"#utility.yul\":26028:26323   */\n    tag_342:\n        /* \"#utility.yul\":26104:26108   */\n      0x00\n        /* \"#utility.yul\":26250:26279   */\n      tag_573\n        /* \"#utility.yul\":26275:26278   */\n      dup4\n        /* \"#utility.yul\":26269:26273   */\n      dup4\n        /* \"#utility.yul\":26250:26279   */\n      tag_341\n      jump\t// in\n    tag_573:\n        /* \"#utility.yul\":26242:26279   */\n      swap2\n      pop\n        /* \"#utility.yul\":26312:26315   */\n      dup3\n        /* \"#utility.yul\":26309:26310   */\n      0x02\n        /* \"#utility.yul\":26305:26316   */\n      mul\n        /* \"#utility.yul\":26299:26303   */\n      dup3\n        /* \"#utility.yul\":26296:26317   */\n      or\n        /* \"#utility.yul\":26288:26317   */\n      swap1\n      pop\n        /* \"#utility.yul\":26028:26323   */\n      swap3\n      swap2\n      pop\n      pop\n      jump\t// out\n        /* \"#utility.yul\":26328:27723   */\n    tag_131:\n        /* \"#utility.yul\":26445:26482   */\n      tag_575\n        /* \"#utility.yul\":26478:26481   */\n      dup3\n        /* \"#utility.yul\":26445:26482   */\n      tag_300\n      jump\t// in\n    tag_575:\n        /* \"#utility.yul\":26547:26565   */\n      0xffffffffffffffff\n        /* \"#utility.yul\":26539:26545   */\n      dup2\n        /* \"#utility.yul\":26536:26566   */\n      gt\n        /* \"#utility.yul\":26533:26589   */\n      iszero\n      tag_576\n      jumpi\n        /* \"#utility.yul\":26569:26587   */\n      tag_577\n      tag_292\n      jump\t// in\n    tag_577:\n        /* \"#utility.yul\":26533:26589   */\n    tag_576:\n        /* \"#utility.yul\":26613:26651   */\n      tag_578\n        /* \"#utility.yul\":26645:26649   */\n      dup3\n        /* \"#utility.yul\":26639:26650   */\n      sload\n        /* \"#utility.yul\":26613:26651   */\n      tag_154\n      jump\t// in\n    tag_578:\n        /* \"#utility.yul\":26698:26765   */\n      tag_579\n        /* \"#utility.yul\":26758:26764   */\n      dup3\n        /* \"#utility.yul\":26750:26756   */\n      dup3\n        /* \"#utility.yul\":26744:26748   */\n      dup6\n        /* \"#utility.yul\":26698:26765   */\n      tag_339\n      jump\t// in\n    tag_579:\n        /* \"#utility.yul\":26792:26793   */\n      0x00\n        /* \"#utility.yul\":26816:26820   */\n      0x20\n        /* \"#utility.yul\":26803:26820   */\n      swap1\n      pop\n        /* \"#utility.yul\":26848:26850   */\n      0x1f\n        /* \"#utility.yul\":26840:26846   */\n      dup4\n        /* \"#utility.yul\":26837:26851   */\n      gt\n        /* \"#utility.yul\":26865:26866   */\n      0x01\n        /* \"#utility.yul\":26860:27478   */\n      dup2\n      eq\n      tag_581\n      jumpi\n        /* \"#utility.yul\":27522:27523   */\n      0x00\n        /* \"#utility.yul\":27539:27545   */\n      dup5\n        /* \"#utility.yul\":27536:27613   */\n      iszero\n      tag_582\n      jumpi\n        /* \"#utility.yul\":27588:27597   */\n      dup3\n        /* \"#utility.yul\":27583:27586   */\n      dup8\n        /* \"#utility.yul\":27579:27598   */\n      add\n        /* \"#utility.yul\":27573:27599   */\n      mload\n        /* \"#utility.yul\":27564:27599   */\n      swap1\n      pop\n        /* \"#utility.yul\":27536:27613   */\n    tag_582:\n        /* \"#utility.yul\":27639:27706   */\n      tag_583\n        /* \"#utility.yul\":27699:27705   */\n      dup6\n        /* \"#utility.yul\":27692:27697   */\n      dup3\n        /* \"#utility.yul\":27639:27706   */\n      tag_342\n      jump\t// in\n    tag_583:\n        /* \"#utility.yul\":27633:27637   */\n      dup7\n        /* \"#utility.yul\":27626:27707   */\n      sstore\n        /* \"#utility.yul\":27495:27717   */\n      pop\n        /* \"#utility.yul\":26830:27717   */\n      jump(tag_580)\n        /* \"#utility.yul\":26860:27478   */\n    tag_581:\n        /* \"#utility.yul\":26912:26916   */\n      0x1f\n        /* \"#utility.yul\":26908:26917   */\n      not\n        /* \"#utility.yul\":26900:26906   */\n      dup5\n        /* \"#utility.yul\":26896:26918   */\n      and\n        /* \"#utility.yul\":26946:26983   */\n      tag_584\n        /* \"#utility.yul\":26978:26982   */\n      dup7\n        /* \"#utility.yul\":26946:26983   */\n      tag_328\n      jump\t// in\n    tag_584:\n        /* \"#utility.yul\":27005:27006   */\n      0x00\n        /* \"#utility.yul\":27019:27227   */\n    tag_585:\n        /* \"#utility.yul\":27033:27040   */\n      dup3\n        /* \"#utility.yul\":27030:27031   */\n      dup2\n        /* \"#utility.yul\":27027:27041   */\n      lt\n        /* \"#utility.yul\":27019:27227   */\n      iszero\n      tag_587\n      jumpi\n        /* \"#utility.yul\":27112:27121   */\n      dup5\n        /* \"#utility.yul\":27107:27110   */\n      dup10\n        /* \"#utility.yul\":27103:27122   */\n      add\n        /* \"#utility.yul\":27097:27123   */\n      mload\n        /* \"#utility.yul\":27089:27095   */\n      dup3\n        /* \"#utility.yul\":27082:27124   */\n      sstore\n        /* \"#utility.yul\":27163:27164   */\n      0x01\n        /* \"#utility.yul\":27155:27161   */\n      dup3\n        /* \"#utility.yul\":27151:27165   */\n      add\n        /* \"#utility.yul\":27141:27165   */\n      swap2\n      pop\n        /* \"#utility.yul\":27210:27212   */\n      0x20\n        /* \"#utility.yul\":27199:27208   */\n      dup6\n        /* \"#utility.yul\":27195:27213   */\n      add\n        /* \"#utility.yul\":27182:27213   */\n      swap5\n      pop\n        /* \"#utility.yul\":27056:27060   */\n      0x20\n        /* \"#utility.yul\":27053:27054   */\n      dup2\n        /* \"#utility.yul\":27049:27061   */\n      add\n        /* \"#utility.yul\":27044:27061   */\n      swap1\n      pop\n        /* \"#utility.yul\":27019:27227   */\n      jump(tag_585)\n    tag_587:\n        /* \"#utility.yul\":27255:27261   */\n      dup7\n        /* \"#utility.yul\":27246:27253   */\n      dup4\n        /* \"#utility.yul\":27243:27262   */\n      lt\n        /* \"#utility.yul\":27240:27419   */\n      iszero\n      tag_588\n      jumpi\n        /* \"#utility.yul\":27313:27322   */\n      dup5\n        /* \"#utility.yul\":27308:27311   */\n      dup10\n        /* \"#utility.yul\":27304:27323   */\n      add\n        /* \"#utility.yul\":27298:27324   */\n      mload\n        /* \"#utility.yul\":27356:27404   */\n      tag_589\n        /* \"#utility.yul\":27398:27402   */\n      0x1f\n        /* \"#utility.yul\":27390:27396   */\n      dup10\n        /* \"#utility.yul\":27386:27403   */\n      and\n        /* \"#utility.yul\":27375:27384   */\n      dup3\n        /* \"#utility.yul\":27356:27404   */\n      tag_341\n      jump\t// in\n    tag_589:\n        /* \"#utility.yul\":27348:27354   */\n      dup4\n        /* \"#utility.yul\":27341:27405   */\n      sstore\n        /* \"#utility.yul\":27263:27419   */\n      pop\n        /* \"#utility.yul\":27240:27419   */\n    tag_588:\n        /* \"#utility.yul\":27465:27466   */\n      0x01\n        /* \"#utility.yul\":27461:27462   */\n      0x02\n        /* \"#utility.yul\":27453:27459   */\n      dup9\n        /* \"#utility.yul\":27449:27463   */\n      mul\n        /* \"#utility.yul\":27445:27467   */\n      add\n        /* \"#utility.yul\":27439:27443   */\n      dup9\n        /* \"#utility.yul\":27432:27468   */\n      sstore\n        /* \"#utility.yul\":26867:27478   */\n      pop\n      pop\n      pop\n        /* \"#utility.yul\":26830:27717   */\n    tag_580:\n      pop\n        /* \"#utility.yul\":26420:27723   */\n      pop\n      pop\n      pop\n        /* \"#utility.yul\":26328:27723   */\n      pop\n      pop\n      jump\t// out\n        /* \"#utility.yul\":27729:27957   */\n    tag_343:\n        /* \"#utility.yul\":27869:27903   */\n      0x4d616e75666163747572657220646f6573206e6f74206578697374206f722069\n        /* \"#utility.yul\":27865:27866   */\n      0x00\n        /* \"#utility.yul\":27857:27863   */\n      dup3\n        /* \"#utility.yul\":27853:27867   */\n      add\n        /* \"#utility.yul\":27846:27904   */\n      mstore\n        /* \"#utility.yul\":27938:27949   */\n      0x732064656c657465640000000000000000000000000000000000000000000000\n        /* \"#utility.yul\":27933:27935   */\n      0x20\n        /* \"#utility.yul\":27925:27931   */\n      dup3\n        /* \"#utility.yul\":27921:27936   */\n      add\n        /* \"#utility.yul\":27914:27950   */\n      mstore\n        /* \"#utility.yul\":27729:27957   */\n      pop\n      jump\t// out\n        /* \"#utility.yul\":27963:28329   */\n    tag_344:\n        /* \"#utility.yul\":28105:28108   */\n      0x00\n        /* \"#utility.yul\":28126:28193   */\n      tag_592\n        /* \"#utility.yul\":28190:28192   */\n      0x29\n        /* \"#utility.yul\":28185:28188   */\n      dup4\n        /* \"#utility.yul\":28126:28193   */\n      tag_308\n      jump\t// in\n    tag_592:\n        /* \"#utility.yul\":28119:28193   */\n      swap2\n      pop\n        /* \"#utility.yul\":28202:28295   */\n      tag_593\n        /* \"#utility.yul\":28291:28294   */\n      dup3\n        /* \"#utility.yul\":28202:28295   */\n      tag_343\n      jump\t// in\n    tag_593:\n        /* \"#utility.yul\":28320:28322   */\n      0x40\n        /* \"#utility.yul\":28315:28318   */\n      dup3\n        /* \"#utility.yul\":28311:28323   */\n      add\n        /* \"#utility.yul\":28304:28323   */\n      swap1\n      pop\n        /* \"#utility.yul\":27963:28329   */\n      swap2\n      swap1\n      pop\n      jump\t// out\n        /* \"#utility.yul\":28335:28754   */\n    tag_147:\n        /* \"#utility.yul\":28501:28505   */\n      0x00\n        /* \"#utility.yul\":28539:28541   */\n      0x20\n        /* \"#utility.yul\":28528:28537   */\n      dup3\n        /* \"#utility.yul\":28524:28542   */\n      add\n        /* \"#utility.yul\":28516:28542   */\n      swap1\n      pop\n        /* \"#utility.yul\":28588:28597   */\n      dup2\n        /* \"#utility.yul\":28582:28586   */\n      dup2\n        /* \"#utility.yul\":28578:28598   */\n      sub\n        /* \"#utility.yul\":28574:28575   */\n      0x00\n        /* \"#utility.yul\":28563:28572   */\n      dup4\n        /* \"#utility.yul\":28559:28576   */\n      add\n        /* \"#utility.yul\":28552:28599   */\n      mstore\n        /* \"#utility.yul\":28616:28747   */\n      tag_595\n        /* \"#utility.yul\":28742:28746   */\n      dup2\n        /* \"#utility.yul\":28616:28747   */\n      tag_344\n      jump\t// in\n    tag_595:\n        /* \"#utility.yul\":28608:28747   */\n      swap1\n      pop\n        /* \"#utility.yul\":28335:28754   */\n      swap2\n      swap1\n      pop\n      jump\t// out\n        /* \"#utility.yul\":28760:28984   */\n    tag_345:\n        /* \"#utility.yul\":28900:28934   */\n      0x537570706c69657220646f6573206e6f74206578697374206f72206973206465\n        /* \"#utility.yul\":28896:28897   */\n      0x00\n        /* \"#utility.yul\":28888:28894   */\n      dup3\n        /* \"#utility.yul\":28884:28898   */\n      add\n        /* \"#utility.yul\":28877:28935   */\n      mstore\n        /* \"#utility.yul\":28969:28976   */\n      0x6c65746564000000000000000000000000000000000000000000000000000000\n        /* \"#utility.yul\":28964:28966   */\n      0x20\n        /* \"#utility.yul\":28956:28962   */\n      dup3\n        /* \"#utility.yul\":28952:28967   */\n      add\n        /* \"#utility.yul\":28945:28977   */\n      mstore\n        /* \"#utility.yul\":28760:28984   */\n      pop\n      jump\t// out\n        /* \"#utility.yul\":28990:29356   */\n    tag_346:\n        /* \"#utility.yul\":29132:29135   */\n      0x00\n        /* \"#utility.yul\":29153:29220   */\n      tag_598\n        /* \"#utility.yul\":29217:29219   */\n      0x25\n        /* \"#utility.yul\":29212:29215   */\n      dup4\n        /* \"#utility.yul\":29153:29220   */\n      tag_308\n      jump\t// in\n    tag_598:\n        /* \"#utility.yul\":29146:29220   */\n      swap2\n      pop\n        /* \"#utility.yul\":29229:29322   */\n      tag_599\n        /* \"#utility.yul\":29318:29321   */\n      dup3\n        /* \"#utility.yul\":29229:29322   */\n      tag_345\n      jump\t// in\n    tag_599:\n        /* \"#utility.yul\":29347:29349   */\n      0x40\n        /* \"#utility.yul\":29342:29345   */\n      dup3\n        /* \"#utility.yul\":29338:29350   */\n      add\n        /* \"#utility.yul\":29331:29350   */\n      swap1\n      pop\n        /* \"#utility.yul\":28990:29356   */\n      swap2\n      swap1\n      pop\n      jump\t// out\n        /* \"#utility.yul\":29362:29781   */\n    tag_222:\n        /* \"#utility.yul\":29528:29532   */\n      0x00\n        /* \"#utility.yul\":29566:29568   */\n      0x20\n        /* \"#utility.yul\":29555:29564   */\n      dup3\n        /* \"#utility.yul\":29551:29569   */\n      add\n        /* \"#utility.yul\":29543:29569   */\n      swap1\n      pop\n        /* \"#utility.yul\":29615:29624   */\n      dup2\n        /* \"#utility.yul\":29609:29613   */\n      dup2\n        /* \"#utility.yul\":29605:29625   */\n      sub\n        /* \"#utility.yul\":29601:29602   */\n      0x00\n        /* \"#utility.yul\":29590:29599   */\n      dup4\n        /* \"#utility.yul\":29586:29603   */\n      add\n        /* \"#utility.yul\":29579:29626   */\n      mstore\n        /* \"#utility.yul\":29643:29774   */\n      tag_601\n        /* \"#utility.yul\":29769:29773   */\n      dup2\n        /* \"#utility.yul\":29643:29774   */\n      tag_346\n      jump\t// in\n    tag_601:\n        /* \"#utility.yul\":29635:29774   */\n      swap1\n      pop\n        /* \"#utility.yul\":29362:29781   */\n      swap2\n      swap1\n      pop\n      jump\t// out\n        /* \"#utility.yul\":29787:30018   */\n    tag_347:\n        /* \"#utility.yul\":29927:29961   */\n      0x50726f6475637420646f6573206e6f74206578697374206f7220697320616c72\n        /* \"#utility.yul\":29923:29924   */\n      0x00\n        /* \"#utility.yul\":29915:29921   */\n      dup3\n        /* \"#utility.yul\":29911:29925   */\n      add\n        /* \"#utility.yul\":29904:29962   */\n      mstore\n        /* \"#utility.yul\":29996:30010   */\n      0x656164792064656c657465640000000000000000000000000000000000000000\n        /* \"#utility.yul\":29991:29993   */\n      0x20\n        /* \"#utility.yul\":29983:29989   */\n      dup3\n        /* \"#utility.yul\":29979:29994   */\n      add\n        /* \"#utility.yul\":29972:30011   */\n      mstore\n        /* \"#utility.yul\":29787:30018   */\n      pop\n      jump\t// out\n        /* \"#utility.yul\":30024:30390   */\n    tag_348:\n        /* \"#utility.yul\":30166:30169   */\n      0x00\n        /* \"#utility.yul\":30187:30254   */\n      tag_604\n        /* \"#utility.yul\":30251:30253   */\n      0x2c\n        /* \"#utility.yul\":30246:30249   */\n      dup4\n        /* \"#utility.yul\":30187:30254   */\n      tag_308\n      jump\t// in\n    tag_604:\n        /* \"#utility.yul\":30180:30254   */\n      swap2\n      pop\n        /* \"#utility.yul\":30263:30356   */\n      tag_605\n        /* \"#utility.yul\":30352:30355   */\n      dup3\n        /* \"#utility.yul\":30263:30356   */\n      tag_347\n      jump\t// in\n    tag_605:\n        /* \"#utility.yul\":30381:30383   */\n      0x40\n        /* \"#utility.yul\":30376:30379   */\n      dup3\n        /* \"#utility.yul\":30372:30384   */\n      add\n        /* \"#utility.yul\":30365:30384   */\n      swap1\n      pop\n        /* \"#utility.yul\":30024:30390   */\n      swap2\n      swap1\n      pop\n      jump\t// out\n        /* \"#utility.yul\":30396:30815   */\n    tag_268:\n        /* \"#utility.yul\":30562:30566   */\n      0x00\n        /* \"#utility.yul\":30600:30602   */\n      0x20\n        /* \"#utility.yul\":30589:30598   */\n      dup3\n        /* \"#utility.yul\":30585:30603   */\n      add\n        /* \"#utility.yul\":30577:30603   */\n      swap1\n      pop\n        /* \"#utility.yul\":30649:30658   */\n      dup2\n        /* \"#utility.yul\":30643:30647   */\n      dup2\n        /* \"#utility.yul\":30639:30659   */\n      sub\n        /* \"#utility.yul\":30635:30636   */\n      0x00\n        /* \"#utility.yul\":30624:30633   */\n      dup4\n        /* \"#utility.yul\":30620:30637   */\n      add\n        /* \"#utility.yul\":30613:30660   */\n      mstore\n        /* \"#utility.yul\":30677:30808   */\n      tag_607\n        /* \"#utility.yul\":30803:30807   */\n      dup2\n        /* \"#utility.yul\":30677:30808   */\n      tag_348\n      jump\t// in\n    tag_607:\n        /* \"#utility.yul\":30669:30808   */\n      swap1\n      pop\n        /* \"#utility.yul\":30396:30815   */\n      swap2\n      swap1\n      pop\n      jump\t// out\n\n    auxdata: 0xa2646970667358221220c780c433916efec2bc0f339bcf21b6f54261c127b46bbfa7edea5d0904d3089b64736f6c63430008180033\n}\n",
				"bytecode": {
					"linkReferences": {},
					"object": "608060405273a6ae3fa7c22fecc80ebbfada388808b0aaf707c95f806101000a81548173ffffffffffffffffffffffffffffffffffffffff021916908373ffffffffffffffffffffffffffffffffffffffff160217905550348015610062575f80fd5b50612d9b806100705f395ff3fe608060405234801561000f575f80fd5b506004361061012a575f3560e01c8063b527fb79116100ab578063e61cffed1161006f578063e61cffed1461036b578063e8d0aa0114610387578063ed90c7b7146103a3578063f8e61565146103bf578063fea9e20a146103db5761012a565b8063b527fb791461028c578063b9db15b4146102bc578063ba9d1d31146102ec578063cea2312114610308578063e0620e1d1461033b5761012a565b80637303f6ce116100f25780637303f6ce146101ba5780637acc0b20146101ea5780638349a7661461021f5780638da5cb5b1461023b57806390175af1146102595761012a565b806305a1a54a1461012e57806305d3d3661461014a5780632afad5f6146101665780632ba7999814610182578063524f3f4a1461019e575b5f80fd5b61014860048036038101906101439190611e53565b6103f7565b005b610164600480360381019061015f9190611e53565b610514565b005b610180600480360381019061017b9190611fba565b610631565b005b61019c60048036038101906101979190611fba565b6107f7565b005b6101b860048036038101906101b39190612056565b610984565b005b6101d460048036038101906101cf91906120de565b610abb565b6040516101e19190612226565b60405180910390f35b61020460048036038101906101ff9190611e53565b610c39565b604051610216969594939291906122ac565b60405180910390f35b61023960048036038101906102349190612056565b610d89565b005b610243610ea5565b6040516102509190612358565b60405180910390f35b610273600480360381019061026e9190611e53565b610ec8565b6040516102839493929190612371565b60405180910390f35b6102a660048036038101906102a19190611e53565b61100c565b6040516102b39190612429565b60405180910390f35b6102d660048036038101906102d19190611e53565b61117a565b6040516102e391906124d6565b60405180910390f35b61030660048036038101906103019190612056565b6112fc565b005b610322600480360381019061031d9190611e53565b611433565b6040516103329493929190612371565b60405180910390f35b61035560048036038101906103509190611e53565b611577565b604051610362919061255d565b60405180910390f35b6103856004803603810190610380919061257d565b6116e5565b005b6103a1600480360381019061039c919061257d565b611823565b005b6103bd60048036038101906103b89190611e53565b61198e565b005b6103d960048036038101906103d491906120de565b611aaa565b005b6103f560048036038101906103f09190612056565b611c47565b005b5f8054906101000a900473ffffffffffffffffffffffffffffffffffffffff1673ffffffffffffffffffffffffffffffffffffffff163373ffffffffffffffffffffffffffffffffffffffff1614610484576040517f08c379a000000000000000000000000000000000000000000000000000000000815260040161047b9061269c565b60405180910390fd5b60035f8281526020019081526020015f206002015f9054906101000a900460ff16156104e5576040517f08c379a00000000000000000000000000000000000000000000000000000000081526004016104dc9061272a565b60405180910390fd5b600160035f8381526020019081526020015f206002015f6101000a81548160ff02191690831515021790555050565b5f8054906101000a900473ffffffffffffffffffffffffffffffffffffffff1673ffffffffffffffffffffffffffffffffffffffff163373ffffffffffffffffffffffffffffffffffffffff16146105a1576040517f08c379a00000000000000000000000000000000000000000000000000000000081526004016105989061269c565b60405180910390fd5b60025f8281526020019081526020015f206002015f9054906101000a900460ff1615610602576040517f08c379a00000000000000000000000000000000000000000000000000000000081526004016105f9906127b8565b60405180910390fd5b600160025f8381526020019081526020015f206002015f6101000a81548160ff02191690831515021790555050565b5f8054906101000a900473ffffffffffffffffffffffffffffffffffffffff1673ffffffffffffffffffffffffffffffffffffffff163373ffffffffffffffffffffffffffffffffffffffff16146106be576040517f08c379a00000000000000000000000000000000000000000000000000000000081526004016106b59061269c565b60405180910390fd5b60015f8581526020019081526020015f206004015f9054906101000a900460ff161561071f576040517f08c379a000000000000000000000000000000000000000000000000000000000815260040161071690612846565b60405180910390fd5b60045f8581526020019081526020015f205f8481526020019081526020015f206002015f9054906101000a900460ff161561078f576040517f08c379a0000000000000000000000000000000000000000000000000000000008152600401610786906128d4565b60405180910390fd5b8160045f8681526020019081526020015f205f8581526020019081526020015f2060010190816107bf9190612aec565b508060045f8681526020019081526020015f205f8581526020019081526020015f2060030190816107f09190612aec565b5050505050565b5f8054906101000a900473ffffffffffffffffffffffffffffffffffffffff1673ffffffffffffffffffffffffffffffffffffffff163373ffffffffffffffffffffffffffffffffffffffff1614610884576040517f08c379a000000000000000000000000000000000000000000000000000000000815260040161087b9061269c565b60405180910390fd5b60015f8581526020019081526020015f206004015f9054906101000a900460ff16156108e5576040517f08c379a00000000000000000000000000000000000000000000000000000000081526004016108dc90612846565b60405180910390fd5b60405180608001604052808481526020018381526020015f151581526020018281525060045f8681526020019081526020015f205f8581526020019081526020015f205f820151815f015560208201518160010190816109459190612aec565b506040820151816002015f6101000a81548160ff021916908315150217905550606082015181600301908161097a9190612aec565b5090505050505050565b5f8054906101000a900473ffffffffffffffffffffffffffffffffffffffff1673ffffffffffffffffffffffffffffffffffffffff163373ffffffffffffffffffffffffffffffffffffffff1614610a11576040517f08c379a0000000000000000000000000000000000000000000000000000000008152600401610a089061269c565b60405180910390fd5b60035f8481526020019081526020015f206002015f9054906101000a900460ff1615610a72576040517f08c379a0000000000000000000000000000000000000000000000000000000008152600401610a6990612c2b565b60405180910390fd5b8160035f8581526020019081526020015f206001019081610a939190612aec565b508060035f8581526020019081526020015f206003019081610ab59190612aec565b50505050565b610ac3611d63565b60045f8481526020019081526020015f205f8381526020019081526020015f206040518060800160405290815f8201548152602001600182018054610b079061291f565b80601f0160208091040260200160405190810160405280929190818152602001828054610b339061291f565b8015610b7e5780601f10610b5557610100808354040283529160200191610b7e565b820191905f5260205f20905b815481529060010190602001808311610b6157829003601f168201915b50505050508152602001600282015f9054906101000a900460ff16151515158152602001600382018054610bb19061291f565b80601f0160208091040260200160405190810160405280929190818152602001828054610bdd9061291f565b8015610c285780601f10610bff57610100808354040283529160200191610c28565b820191905f5260205f20905b815481529060010190602001808311610c0b57829003601f168201915b505050505081525050905092915050565b6001602052805f5260405f205f91509050805f015490806001018054610c5e9061291f565b80601f0160208091040260200160405190810160405280929190818152602001828054610c8a9061291f565b8015610cd55780601f10610cac57610100808354040283529160200191610cd5565b820191905f5260205f20905b815481529060010190602001808311610cb857829003601f168201915b505050505090806002015490806003015490806004015f9054906101000a900460ff1690806005018054610d089061291f565b80601f0160208091040260200160405190810160405280929190818152602001828054610d349061291f565b8015610d7f5780601f10610d5657610100808354040283529160200191610d7f565b820191905f5260205f20905b815481529060010190602001808311610d6257829003601f168201915b5050505050905086565b5f8054906101000a900473ffffffffffffffffffffffffffffffffffffffff1673ffffffffffffffffffffffffffffffffffffffff163373ffffffffffffffffffffffffffffffffffffffff1614610e16576040517f08c379a0000000000000000000000000000000000000000000000000000000008152600401610e0d9061269c565b60405180910390fd5b60405180608001604052808481526020018381526020015f151581526020018281525060035f8581526020019081526020015f205f820151815f01556020820151816001019081610e679190612aec565b506040820151816002015f6101000a81548160ff0219169083151502179055506060820151816003019081610e9c9190612aec565b50905050505050565b5f8054906101000a900473ffffffffffffffffffffffffffffffffffffffff1681565b6003602052805f5260405f205f91509050805f015490806001018054610eed9061291f565b80601f0160208091040260200160405190810160405280929190818152602001828054610f199061291f565b8015610f645780601f10610f3b57610100808354040283529160200191610f64565b820191905f5260205f20905b815481529060010190602001808311610f4757829003601f168201915b505050505090806002015f9054906101000a900460ff1690806003018054610f8b9061291f565b80601f0160208091040260200160405190810160405280929190818152602001828054610fb79061291f565b80156110025780601f10610fd957610100808354040283529160200191611002565b820191905f5260205f20905b815481529060010190602001808311610fe557829003601f168201915b5050505050905084565b611014611d8b565b60035f8381526020019081526020015f206040518060800160405290815f82015481526020016001820180546110499061291f565b80601f01602080910402602001604051908101604052809291908181526020018280546110759061291f565b80156110c05780601f10611097576101008083540402835291602001916110c0565b820191905f5260205f20905b8154815290600101906020018083116110a357829003601f168201915b50505050508152602001600282015f9054906101000a900460ff161515151581526020016003820180546110f39061291f565b80601f016020809104026020016040519081016040528092919081815260200182805461111f9061291f565b801561116a5780601f106111415761010080835404028352916020019161116a565b820191905f5260205f20905b81548152906001019060200180831161114d57829003601f168201915b5050505050815250509050919050565b611182611db3565b60015f8381526020019081526020015f206040518060c00160405290815f82015481526020016001820180546111b79061291f565b80601f01602080910402602001604051908101604052809291908181526020018280546111e39061291f565b801561122e5780601f106112055761010080835404028352916020019161122e565b820191905f5260205f20905b81548152906001019060200180831161121157829003601f168201915b505050505081526020016002820154815260200160038201548152602001600482015f9054906101000a900460ff161515151581526020016005820180546112759061291f565b80601f01602080910402602001604051908101604052809291908181526020018280546112a19061291f565b80156112ec5780601f106112c3576101008083540402835291602001916112ec565b820191905f5260205f20905b8154815290600101906020018083116112cf57829003601f168201915b5050505050815250509050919050565b5f8054906101000a900473ffffffffffffffffffffffffffffffffffffffff1673ffffffffffffffffffffffffffffffffffffffff163373ffffffffffffffffffffffffffffffffffffffff1614611389576040517f08c379a00000000000000000000000000000000000000000000000000000000081526004016113809061269c565b60405180910390fd5b60025f8481526020019081526020015f206002015f9054906101000a900460ff16156113ea576040517f08c379a00000000000000000000000000000000000000000000000000000000081526004016113e190612cb9565b60405180910390fd5b8160025f8581526020019081526020015f20600101908161140b9190612aec565b508060025f8581526020019081526020015f20600301908161142d9190612aec565b50505050565b6002602052805f5260405f205f91509050805f0154908060010180546114589061291f565b80601f01602080910402602001604051908101604052809291908181526020018280546114849061291f565b80156114cf5780601f106114a6576101008083540402835291602001916114cf565b820191905f5260205f20905b8154815290600101906020018083116114b257829003601f168201915b505050505090806002015f9054906101000a900460ff16908060030180546114f69061291f565b80601f01602080910402602001604051908101604052809291908181526020018280546115229061291f565b801561156d5780601f106115445761010080835404028352916020019161156d565b820191905f5260205f20905b81548152906001019060200180831161155057829003601f168201915b5050505050905084565b61157f611de7565b60025f8381526020019081526020015f206040518060800160405290815f82015481526020016001820180546115b49061291f565b80601f01602080910402602001604051908101604052809291908181526020018280546115e09061291f565b801561162b5780601f106116025761010080835404028352916020019161162b565b820191905f5260205f20905b81548152906001019060200180831161160e57829003601f168201915b50505050508152602001600282015f9054906101000a900460ff1615151515815260200160038201805461165e9061291f565b80601f016020809104026020016040519081016040528092919081815260200182805461168a9061291f565b80156116d55780601f106116ac576101008083540402835291602001916116d5565b820191905f5260205f20905b8154815290600101906020018083116116b857829003601f168201915b5050505050815250509050919050565b5f8054906101000a900473ffffffffffffffffffffffffffffffffffffffff1673ffffffffffffffffffffffffffffffffffffffff163373ffffffffffffffffffffffffffffffffffffffff1614611772576040517f08c379a00000000000000000000000000000000000000000000000000000000081526004016117699061269c565b60405180910390fd5b6040518060c001604052808681526020018581526020018481526020018381526020015f151581526020018281525060015f8781526020019081526020015f205f820151815f015560208201518160010190816117cf9190612aec565b5060408201518160020155606082015181600301556080820151816004015f6101000a81548160ff02191690831515021790555060a08201518160050190816118189190612aec565b509050505050505050565b5f8054906101000a900473ffffffffffffffffffffffffffffffffffffffff1673ffffffffffffffffffffffffffffffffffffffff163373ffffffffffffffffffffffffffffffffffffffff16146118b0576040517f08c379a00000000000000000000000000000000000000000000000000000000081526004016118a79061269c565b60405180910390fd5b60015f8681526020019081526020015f206004015f9054906101000a900460ff1615611911576040517f08c379a000000000000000000000000000000000000000000000000000000000815260040161190890612846565b60405180910390fd5b8360015f8781526020019081526020015f2060010190816119329190612aec565b508260015f8781526020019081526020015f20600201819055508160015f8781526020019081526020015f20600301819055508060015f8781526020019081526020015f2060050190816119869190612aec565b505050505050565b5f8054906101000a900473ffffffffffffffffffffffffffffffffffffffff1673ffffffffffffffffffffffffffffffffffffffff163373ffffffffffffffffffffffffffffffffffffffff1614611a1b576040517f08c379a0000000000000000000000000000000000000000000000000000000008152600401611a129061269c565b60405180910390fd5b60015f8281526020019081526020015f206004015f9054906101000a900460ff1615611a7c576040517f08c379a0000000000000000000000000000000000000000000000000000000008152600401611a7390612d47565b60405180910390fd5b6001805f8381526020019081526020015f206004015f6101000a81548160ff02191690831515021790555050565b5f8054906101000a900473ffffffffffffffffffffffffffffffffffffffff1673ffffffffffffffffffffffffffffffffffffffff163373ffffffffffffffffffffffffffffffffffffffff1614611b37576040517f08c379a0000000000000000000000000000000000000000000000000000000008152600401611b2e9061269c565b60405180910390fd5b60015f8381526020019081526020015f206004015f9054906101000a900460ff1615611b98576040517f08c379a0000000000000000000000000000000000000000000000000000000008152600401611b8f90612846565b60405180910390fd5b60045f8381526020019081526020015f205f8281526020019081526020015f206002015f9054906101000a900460ff1615611c08576040517f08c379a0000000000000000000000000000000000000000000000000000000008152600401611bff906128d4565b60405180910390fd5b600160045f8481526020019081526020015f205f8381526020019081526020015f206002015f6101000a81548160ff0219169083151502179055505050565b5f8054906101000a900473ffffffffffffffffffffffffffffffffffffffff1673ffffffffffffffffffffffffffffffffffffffff163373ffffffffffffffffffffffffffffffffffffffff1614611cd4576040517f08c379a0000000000000000000000000000000000000000000000000000000008152600401611ccb9061269c565b60405180910390fd5b60405180608001604052808481526020018381526020015f151581526020018281525060025f8581526020019081526020015f205f820151815f01556020820151816001019081611d259190612aec565b506040820151816002015f6101000a81548160ff0219169083151502179055506060820151816003019081611d5a9190612aec565b50905050505050565b60405180608001604052805f8152602001606081526020015f15158152602001606081525090565b60405180608001604052805f8152602001606081526020015f15158152602001606081525090565b6040518060c001604052805f8152602001606081526020015f81526020015f81526020015f15158152602001606081525090565b60405180608001604052805f8152602001606081526020015f15158152602001606081525090565b5f604051905090565b5f80fd5b5f80fd5b5f819050919050565b611e3281611e20565b8114611e3c575f80fd5b50565b5f81359050611e4d81611e29565b92915050565b5f60208284031215611e6857611e67611e18565b5b5f611e7584828501611e3f565b91505092915050565b5f80fd5b5f80fd5b5f601f19601f8301169050919050565b7f4e487b71000000000000000000000000000000000000000000000000000000005f52604160045260245ffd5b611ecc82611e86565b810181811067ffffffffffffffff82111715611eeb57611eea611e96565b5b80604052505050565b5f611efd611e0f565b9050611f098282611ec3565b919050565b5f67ffffffffffffffff821115611f2857611f27611e96565b5b611f3182611e86565b9050602081019050919050565b828183375f83830152505050565b5f611f5e611f5984611f0e565b611ef4565b905082815260208101848484011115611f7a57611f79611e82565b5b611f85848285611f3e565b509392505050565b5f82601f830112611fa157611fa0611e7e565b5b8135611fb1848260208601611f4c565b91505092915050565b5f805f8060808587031215611fd257611fd1611e18565b5b5f611fdf87828801611e3f565b9450506020611ff087828801611e3f565b935050604085013567ffffffffffffffff81111561201157612010611e1c565b5b61201d87828801611f8d565b925050606085013567ffffffffffffffff81111561203e5761203d611e1c565b5b61204a87828801611f8d565b91505092959194509250565b5f805f6060848603121561206d5761206c611e18565b5b5f61207a86828701611e3f565b935050602084013567ffffffffffffffff81111561209b5761209a611e1c565b5b6120a786828701611f8d565b925050604084013567ffffffffffffffff8111156120c8576120c7611e1c565b5b6120d486828701611f8d565b9150509250925092565b5f80604083850312156120f4576120f3611e18565b5b5f61210185828601611e3f565b925050602061211285828601611e3f565b9150509250929050565b61212581611e20565b82525050565b5f81519050919050565b5f82825260208201905092915050565b5f5b83811015612162578082015181840152602081019050612147565b5f8484015250505050565b5f6121778261212b565b6121818185612135565b9350612191818560208601612145565b61219a81611e86565b840191505092915050565b5f8115159050919050565b6121b9816121a5565b82525050565b5f608083015f8301516121d45f86018261211c565b50602083015184820360208601526121ec828261216d565b915050604083015161220160408601826121b0565b5060608301518482036060860152612219828261216d565b9150508091505092915050565b5f6020820190508181035f83015261223e81846121bf565b905092915050565b61224f81611e20565b82525050565b5f82825260208201905092915050565b5f61226f8261212b565b6122798185612255565b9350612289818560208601612145565b61229281611e86565b840191505092915050565b6122a6816121a5565b82525050565b5f60c0820190506122bf5f830189612246565b81810360208301526122d18188612265565b90506122e06040830187612246565b6122ed6060830186612246565b6122fa608083018561229d565b81810360a083015261230c8184612265565b9050979650505050505050565b5f73ffffffffffffffffffffffffffffffffffffffff82169050919050565b5f61234282612319565b9050919050565b61235281612338565b82525050565b5f60208201905061236b5f830184612349565b92915050565b5f6080820190506123845f830187612246565b81810360208301526123968186612265565b90506123a5604083018561229d565b81810360608301526123b78184612265565b905095945050505050565b5f608083015f8301516123d75f86018261211c565b50602083015184820360208601526123ef828261216d565b915050604083015161240460408601826121b0565b506060830151848203606086015261241c828261216d565b9150508091505092915050565b5f6020820190508181035f83015261244181846123c2565b905092915050565b5f60c083015f83015161245e5f86018261211c565b5060208301518482036020860152612476828261216d565b915050604083015161248b604086018261211c565b50606083015161249e606086018261211c565b5060808301516124b160808601826121b0565b5060a083015184820360a08601526124c9828261216d565b9150508091505092915050565b5f6020820190508181035f8301526124ee8184612449565b905092915050565b5f608083015f83015161250b5f86018261211c565b5060208301518482036020860152612523828261216d565b915050604083015161253860408601826121b0565b5060608301518482036060860152612550828261216d565b9150508091505092915050565b5f6020820190508181035f83015261257581846124f6565b905092915050565b5f805f805f60a0868803121561259657612595611e18565b5b5f6125a388828901611e3f565b955050602086013567ffffffffffffffff8111156125c4576125c3611e1c565b5b6125d088828901611f8d565b94505060406125e188828901611e3f565b93505060606125f288828901611e3f565b925050608086013567ffffffffffffffff81111561261357612612611e1c565b5b61261f88828901611f8d565b9150509295509295909350565b7f4f6e6c7920636f6e7472616374206f776e65722063616e20706572666f726d205f8201527f74686973206f7065726174696f6e000000000000000000000000000000000000602082015250565b5f612686602e83612255565b91506126918261262c565b604082019050919050565b5f6020820190508181035f8301526126b38161267a565b9050919050565b7f4d616e75666163747572657220646f6573206e6f74206578697374206f7220695f8201527f7320616c72656164792064656c65746564000000000000000000000000000000602082015250565b5f612714603183612255565b915061271f826126ba565b604082019050919050565b5f6020820190508181035f83015261274181612708565b9050919050565b7f537570706c69657220646f6573206e6f74206578697374206f7220697320616c5f8201527f72656164792064656c6574656400000000000000000000000000000000000000602082015250565b5f6127a2602d83612255565b91506127ad82612748565b604082019050919050565b5f6020820190508181035f8301526127cf81612796565b9050919050565b7f50726f6475637420646f6573206e6f74206578697374206f722069732064656c5f8201527f6574656400000000000000000000000000000000000000000000000000000000602082015250565b5f612830602483612255565b915061283b826127d6565b604082019050919050565b5f6020820190508181035f83015261285d81612824565b9050919050565b7f5472616e73616374696f6e20646f6573206e6f74206578697374206f722069735f8201527f2064656c65746564000000000000000000000000000000000000000000000000602082015250565b5f6128be602883612255565b91506128c982612864565b604082019050919050565b5f6020820190508181035f8301526128eb816128b2565b9050919050565b7f4e487b71000000000000000000000000000000000000000000000000000000005f52602260045260245ffd5b5f600282049050600182168061293657607f821691505b602082108103612949576129486128f2565b5b50919050565b5f819050815f5260205f209050919050565b5f6020601f8301049050919050565b5f82821b905092915050565b5f600883026129ab7fffffffffffffffffffffffffffffffffffffffffffffffffffffffffffffffff82612970565b6129b58683612970565b95508019841693508086168417925050509392505050565b5f819050919050565b5f6129f06129eb6129e684611e20565b6129cd565b611e20565b9050919050565b5f819050919050565b612a09836129d6565b612a1d612a15826129f7565b84845461297c565b825550505050565b5f90565b612a31612a25565b612a3c818484612a00565b505050565b5b81811015612a5f57612a545f82612a29565b600181019050612a42565b5050565b601f821115612aa457612a758161294f565b612a7e84612961565b81016020851015612a8d578190505b612aa1612a9985612961565b830182612a41565b50505b505050565b5f82821c905092915050565b5f612ac45f1984600802612aa9565b1980831691505092915050565b5f612adc8383612ab5565b9150826002028217905092915050565b612af58261212b565b67ffffffffffffffff811115612b0e57612b0d611e96565b5b612b18825461291f565b612b23828285612a63565b5f60209050601f831160018114612b54575f8415612b42578287015190505b612b4c8582612ad1565b865550612bb3565b601f198416612b628661294f565b5f5b82811015612b8957848901518255600182019150602085019450602081019050612b64565b86831015612ba65784890151612ba2601f891682612ab5565b8355505b6001600288020188555050505b505050505050565b7f4d616e75666163747572657220646f6573206e6f74206578697374206f7220695f8201527f732064656c657465640000000000000000000000000000000000000000000000602082015250565b5f612c15602983612255565b9150612c2082612bbb565b604082019050919050565b5f6020820190508181035f830152612c4281612c09565b9050919050565b7f537570706c69657220646f6573206e6f74206578697374206f722069732064655f8201527f6c65746564000000000000000000000000000000000000000000000000000000602082015250565b5f612ca3602583612255565b9150612cae82612c49565b604082019050919050565b5f6020820190508181035f830152612cd081612c97565b9050919050565b7f50726f6475637420646f6573206e6f74206578697374206f7220697320616c725f8201527f656164792064656c657465640000000000000000000000000000000000000000602082015250565b5f612d31602c83612255565b9150612d3c82612cd7565b604082019050919050565b5f6020820190508181035f830152612d5e81612d25565b905091905056fea2646970667358221220c780c433916efec2bc0f339bcf21b6f54261c127b46bbfa7edea5d0904d3089b64736f6c63430008180033",
					"opcodes": "PUSH1 0x80 PUSH1 0x40 MSTORE PUSH20 0xA6AE3FA7C22FECC80EBBFADA388808B0AAF707C9 PUSH0 DUP1 PUSH2 0x100 EXP DUP2 SLOAD DUP2 PUSH20 0xFFFFFFFFFFFFFFFFFFFFFFFFFFFFFFFFFFFFFFFF MUL NOT AND SWAP1 DUP4 PUSH20 0xFFFFFFFFFFFFFFFFFFFFFFFFFFFFFFFFFFFFFFFF AND MUL OR SWAP1 SSTORE POP CALLVALUE DUP1 ISZERO PUSH2 0x62 JUMPI PUSH0 DUP1 REVERT JUMPDEST POP PUSH2 0x2D9B DUP1 PUSH2 0x70 PUSH0 CODECOPY PUSH0 RETURN INVALID PUSH1 0x80 PUSH1 0x40 MSTORE CALLVALUE DUP1 ISZERO PUSH2 0xF JUMPI PUSH0 DUP1 REVERT JUMPDEST POP PUSH1 0x4 CALLDATASIZE LT PUSH2 0x12A JUMPI PUSH0 CALLDATALOAD PUSH1 0xE0 SHR DUP1 PUSH4 0xB527FB79 GT PUSH2 0xAB JUMPI DUP1 PUSH4 0xE61CFFED GT PUSH2 0x6F JUMPI DUP1 PUSH4 0xE61CFFED EQ PUSH2 0x36B JUMPI DUP1 PUSH4 0xE8D0AA01 EQ PUSH2 0x387 JUMPI DUP1 PUSH4 0xED90C7B7 EQ PUSH2 0x3A3 JUMPI DUP1 PUSH4 0xF8E61565 EQ PUSH2 0x3BF JUMPI DUP1 PUSH4 0xFEA9E20A EQ PUSH2 0x3DB JUMPI PUSH2 0x12A JUMP JUMPDEST DUP1 PUSH4 0xB527FB79 EQ PUSH2 0x28C JUMPI DUP1 PUSH4 0xB9DB15B4 EQ PUSH2 0x2BC JUMPI DUP1 PUSH4 0xBA9D1D31 EQ PUSH2 0x2EC JUMPI DUP1 PUSH4 0xCEA23121 EQ PUSH2 0x308 JUMPI DUP1 PUSH4 0xE0620E1D EQ PUSH2 0x33B JUMPI PUSH2 0x12A JUMP JUMPDEST DUP1 PUSH4 0x7303F6CE GT PUSH2 0xF2 JUMPI DUP1 PUSH4 0x7303F6CE EQ PUSH2 0x1BA JUMPI DUP1 PUSH4 0x7ACC0B20 EQ PUSH2 0x1EA JUMPI DUP1 PUSH4 0x8349A766 EQ PUSH2 0x21F JUMPI DUP1 PUSH4 0x8DA5CB5B EQ PUSH2 0x23B JUMPI DUP1 PUSH4 0x90175AF1 EQ PUSH2 0x259 JUMPI PUSH2 0x12A JUMP JUMPDEST DUP1 PUSH4 0x5A1A54A EQ PUSH2 0x12E JUMPI DUP1 PUSH4 0x5D3D366 EQ PUSH2 0x14A JUMPI DUP1 PUSH4 0x2AFAD5F6 EQ PUSH2 0x166 JUMPI DUP1 PUSH4 0x2BA79998 EQ PUSH2 0x182 JUMPI DUP1 PUSH4 0x524F3F4A EQ PUSH2 0x19E JUMPI JUMPDEST PUSH0 DUP1 REVERT JUMPDEST PUSH2 0x148 PUSH1 0x4 DUP1 CALLDATASIZE SUB DUP2 ADD SWAP1 PUSH2 0x143 SWAP2 SWAP1 PUSH2 0x1E53 JUMP JUMPDEST PUSH2 0x3F7 JUMP JUMPDEST STOP JUMPDEST PUSH2 0x164 PUSH1 0x4 DUP1 CALLDATASIZE SUB DUP2 ADD SWAP1 PUSH2 0x15F SWAP2 SWAP1 PUSH2 0x1E53 JUMP JUMPDEST PUSH2 0x514 JUMP JUMPDEST STOP JUMPDEST PUSH2 0x180 PUSH1 0x4 DUP1 CALLDATASIZE SUB DUP2 ADD SWAP1 PUSH2 0x17B SWAP2 SWAP1 PUSH2 0x1FBA JUMP JUMPDEST PUSH2 0x631 JUMP JUMPDEST STOP JUMPDEST PUSH2 0x19C PUSH1 0x4 DUP1 CALLDATASIZE SUB DUP2 ADD SWAP1 PUSH2 0x197 SWAP2 SWAP1 PUSH2 0x1FBA JUMP JUMPDEST PUSH2 0x7F7 JUMP JUMPDEST STOP JUMPDEST PUSH2 0x1B8 PUSH1 0x4 DUP1 CALLDATASIZE SUB DUP2 ADD SWAP1 PUSH2 0x1B3 SWAP2 SWAP1 PUSH2 0x2056 JUMP JUMPDEST PUSH2 0x984 JUMP JUMPDEST STOP JUMPDEST PUSH2 0x1D4 PUSH1 0x4 DUP1 CALLDATASIZE SUB DUP2 ADD SWAP1 PUSH2 0x1CF SWAP2 SWAP1 PUSH2 0x20DE JUMP JUMPDEST PUSH2 0xABB JUMP JUMPDEST PUSH1 0x40 MLOAD PUSH2 0x1E1 SWAP2 SWAP1 PUSH2 0x2226 JUMP JUMPDEST PUSH1 0x40 MLOAD DUP1 SWAP2 SUB SWAP1 RETURN JUMPDEST PUSH2 0x204 PUSH1 0x4 DUP1 CALLDATASIZE SUB DUP2 ADD SWAP1 PUSH2 0x1FF SWAP2 SWAP1 PUSH2 0x1E53 JUMP JUMPDEST PUSH2 0xC39 JUMP JUMPDEST PUSH1 0x40 MLOAD PUSH2 0x216 SWAP7 SWAP6 SWAP5 SWAP4 SWAP3 SWAP2 SWAP1 PUSH2 0x22AC JUMP JUMPDEST PUSH1 0x40 MLOAD DUP1 SWAP2 SUB SWAP1 RETURN JUMPDEST PUSH2 0x239 PUSH1 0x4 DUP1 CALLDATASIZE SUB DUP2 ADD SWAP1 PUSH2 0x234 SWAP2 SWAP1 PUSH2 0x2056 JUMP JUMPDEST PUSH2 0xD89 JUMP JUMPDEST STOP JUMPDEST PUSH2 0x243 PUSH2 0xEA5 JUMP JUMPDEST PUSH1 0x40 MLOAD PUSH2 0x250 SWAP2 SWAP1 PUSH2 0x2358 JUMP JUMPDEST PUSH1 0x40 MLOAD DUP1 SWAP2 SUB SWAP1 RETURN JUMPDEST PUSH2 0x273 PUSH1 0x4 DUP1 CALLDATASIZE SUB DUP2 ADD SWAP1 PUSH2 0x26E SWAP2 SWAP1 PUSH2 0x1E53 JUMP JUMPDEST PUSH2 0xEC8 JUMP JUMPDEST PUSH1 0x40 MLOAD PUSH2 0x283 SWAP5 SWAP4 SWAP3 SWAP2 SWAP1 PUSH2 0x2371 JUMP JUMPDEST PUSH1 0x40 MLOAD DUP1 SWAP2 SUB SWAP1 RETURN JUMPDEST PUSH2 0x2A6 PUSH1 0x4 DUP1 CALLDATASIZE SUB DUP2 ADD SWAP1 PUSH2 0x2A1 SWAP2 SWAP1 PUSH2 0x1E53 JUMP JUMPDEST PUSH2 0x100C JUMP JUMPDEST PUSH1 0x40 MLOAD PUSH2 0x2B3 SWAP2 SWAP1 PUSH2 0x2429 JUMP JUMPDEST PUSH1 0x40 MLOAD DUP1 SWAP2 SUB SWAP1 RETURN JUMPDEST PUSH2 0x2D6 PUSH1 0x4 DUP1 CALLDATASIZE SUB DUP2 ADD SWAP1 PUSH2 0x2D1 SWAP2 SWAP1 PUSH2 0x1E53 JUMP JUMPDEST PUSH2 0x117A JUMP JUMPDEST PUSH1 0x40 MLOAD PUSH2 0x2E3 SWAP2 SWAP1 PUSH2 0x24D6 JUMP JUMPDEST PUSH1 0x40 MLOAD DUP1 SWAP2 SUB SWAP1 RETURN JUMPDEST PUSH2 0x306 PUSH1 0x4 DUP1 CALLDATASIZE SUB DUP2 ADD SWAP1 PUSH2 0x301 SWAP2 SWAP1 PUSH2 0x2056 JUMP JUMPDEST PUSH2 0x12FC JUMP JUMPDEST STOP JUMPDEST PUSH2 0x322 PUSH1 0x4 DUP1 CALLDATASIZE SUB DUP2 ADD SWAP1 PUSH2 0x31D SWAP2 SWAP1 PUSH2 0x1E53 JUMP JUMPDEST PUSH2 0x1433 JUMP JUMPDEST PUSH1 0x40 MLOAD PUSH2 0x332 SWAP5 SWAP4 SWAP3 SWAP2 SWAP1 PUSH2 0x2371 JUMP JUMPDEST PUSH1 0x40 MLOAD DUP1 SWAP2 SUB SWAP1 RETURN JUMPDEST PUSH2 0x355 PUSH1 0x4 DUP1 CALLDATASIZE SUB DUP2 ADD SWAP1 PUSH2 0x350 SWAP2 SWAP1 PUSH2 0x1E53 JUMP JUMPDEST PUSH2 0x1577 JUMP JUMPDEST PUSH1 0x40 MLOAD PUSH2 0x362 SWAP2 SWAP1 PUSH2 0x255D JUMP JUMPDEST PUSH1 0x40 MLOAD DUP1 SWAP2 SUB SWAP1 RETURN JUMPDEST PUSH2 0x385 PUSH1 0x4 DUP1 CALLDATASIZE SUB DUP2 ADD SWAP1 PUSH2 0x380 SWAP2 SWAP1 PUSH2 0x257D JUMP JUMPDEST PUSH2 0x16E5 JUMP JUMPDEST STOP JUMPDEST PUSH2 0x3A1 PUSH1 0x4 DUP1 CALLDATASIZE SUB DUP2 ADD SWAP1 PUSH2 0x39C SWAP2 SWAP1 PUSH2 0x257D JUMP JUMPDEST PUSH2 0x1823 JUMP JUMPDEST STOP JUMPDEST PUSH2 0x3BD PUSH1 0x4 DUP1 CALLDATASIZE SUB DUP2 ADD SWAP1 PUSH2 0x3B8 SWAP2 SWAP1 PUSH2 0x1E53 JUMP JUMPDEST PUSH2 0x198E JUMP JUMPDEST STOP JUMPDEST PUSH2 0x3D9 PUSH1 0x4 DUP1 CALLDATASIZE SUB DUP2 ADD SWAP1 PUSH2 0x3D4 SWAP2 SWAP1 PUSH2 0x20DE JUMP JUMPDEST PUSH2 0x1AAA JUMP JUMPDEST STOP JUMPDEST PUSH2 0x3F5 PUSH1 0x4 DUP1 CALLDATASIZE SUB DUP2 ADD SWAP1 PUSH2 0x3F0 SWAP2 SWAP1 PUSH2 0x2056 JUMP JUMPDEST PUSH2 0x1C47 JUMP JUMPDEST STOP JUMPDEST PUSH0 DUP1 SLOAD SWAP1 PUSH2 0x100 EXP SWAP1 DIV PUSH20 0xFFFFFFFFFFFFFFFFFFFFFFFFFFFFFFFFFFFFFFFF AND PUSH20 0xFFFFFFFFFFFFFFFFFFFFFFFFFFFFFFFFFFFFFFFF AND CALLER PUSH20 0xFFFFFFFFFFFFFFFFFFFFFFFFFFFFFFFFFFFFFFFF AND EQ PUSH2 0x484 JUMPI PUSH1 0x40 MLOAD PUSH32 0x8C379A000000000000000000000000000000000000000000000000000000000 DUP2 MSTORE PUSH1 0x4 ADD PUSH2 0x47B SWAP1 PUSH2 0x269C JUMP JUMPDEST PUSH1 0x40 MLOAD DUP1 SWAP2 SUB SWAP1 REVERT JUMPDEST PUSH1 0x3 PUSH0 DUP3 DUP2 MSTORE PUSH1 0x20 ADD SWAP1 DUP2 MSTORE PUSH1 0x20 ADD PUSH0 KECCAK256 PUSH1 0x2 ADD PUSH0 SWAP1 SLOAD SWAP1 PUSH2 0x100 EXP SWAP1 DIV PUSH1 0xFF AND ISZERO PUSH2 0x4E5 JUMPI PUSH1 0x40 MLOAD PUSH32 0x8C379A000000000000000000000000000000000000000000000000000000000 DUP2 MSTORE PUSH1 0x4 ADD PUSH2 0x4DC SWAP1 PUSH2 0x272A JUMP JUMPDEST PUSH1 0x40 MLOAD DUP1 SWAP2 SUB SWAP1 REVERT JUMPDEST PUSH1 0x1 PUSH1 0x3 PUSH0 DUP4 DUP2 MSTORE PUSH1 0x20 ADD SWAP1 DUP2 MSTORE PUSH1 0x20 ADD PUSH0 KECCAK256 PUSH1 0x2 ADD PUSH0 PUSH2 0x100 EXP DUP2 SLOAD DUP2 PUSH1 0xFF MUL NOT AND SWAP1 DUP4 ISZERO ISZERO MUL OR SWAP1 SSTORE POP POP JUMP JUMPDEST PUSH0 DUP1 SLOAD SWAP1 PUSH2 0x100 EXP SWAP1 DIV PUSH20 0xFFFFFFFFFFFFFFFFFFFFFFFFFFFFFFFFFFFFFFFF AND PUSH20 0xFFFFFFFFFFFFFFFFFFFFFFFFFFFFFFFFFFFFFFFF AND CALLER PUSH20 0xFFFFFFFFFFFFFFFFFFFFFFFFFFFFFFFFFFFFFFFF AND EQ PUSH2 0x5A1 JUMPI PUSH1 0x40 MLOAD PUSH32 0x8C379A000000000000000000000000000000000000000000000000000000000 DUP2 MSTORE PUSH1 0x4 ADD PUSH2 0x598 SWAP1 PUSH2 0x269C JUMP JUMPDEST PUSH1 0x40 MLOAD DUP1 SWAP2 SUB SWAP1 REVERT JUMPDEST PUSH1 0x2 PUSH0 DUP3 DUP2 MSTORE PUSH1 0x20 ADD SWAP1 DUP2 MSTORE PUSH1 0x20 ADD PUSH0 KECCAK256 PUSH1 0x2 ADD PUSH0 SWAP1 SLOAD SWAP1 PUSH2 0x100 EXP SWAP1 DIV PUSH1 0xFF AND ISZERO PUSH2 0x602 JUMPI PUSH1 0x40 MLOAD PUSH32 0x8C379A000000000000000000000000000000000000000000000000000000000 DUP2 MSTORE PUSH1 0x4 ADD PUSH2 0x5F9 SWAP1 PUSH2 0x27B8 JUMP JUMPDEST PUSH1 0x40 MLOAD DUP1 SWAP2 SUB SWAP1 REVERT JUMPDEST PUSH1 0x1 PUSH1 0x2 PUSH0 DUP4 DUP2 MSTORE PUSH1 0x20 ADD SWAP1 DUP2 MSTORE PUSH1 0x20 ADD PUSH0 KECCAK256 PUSH1 0x2 ADD PUSH0 PUSH2 0x100 EXP DUP2 SLOAD DUP2 PUSH1 0xFF MUL NOT AND SWAP1 DUP4 ISZERO ISZERO MUL OR SWAP1 SSTORE POP POP JUMP JUMPDEST PUSH0 DUP1 SLOAD SWAP1 PUSH2 0x100 EXP SWAP1 DIV PUSH20 0xFFFFFFFFFFFFFFFFFFFFFFFFFFFFFFFFFFFFFFFF AND PUSH20 0xFFFFFFFFFFFFFFFFFFFFFFFFFFFFFFFFFFFFFFFF AND CALLER PUSH20 0xFFFFFFFFFFFFFFFFFFFFFFFFFFFFFFFFFFFFFFFF AND EQ PUSH2 0x6BE JUMPI PUSH1 0x40 MLOAD PUSH32 0x8C379A000000000000000000000000000000000000000000000000000000000 DUP2 MSTORE PUSH1 0x4 ADD PUSH2 0x6B5 SWAP1 PUSH2 0x269C JUMP JUMPDEST PUSH1 0x40 MLOAD DUP1 SWAP2 SUB SWAP1 REVERT JUMPDEST PUSH1 0x1 PUSH0 DUP6 DUP2 MSTORE PUSH1 0x20 ADD SWAP1 DUP2 MSTORE PUSH1 0x20 ADD PUSH0 KECCAK256 PUSH1 0x4 ADD PUSH0 SWAP1 SLOAD SWAP1 PUSH2 0x100 EXP SWAP1 DIV PUSH1 0xFF AND ISZERO PUSH2 0x71F JUMPI PUSH1 0x40 MLOAD PUSH32 0x8C379A000000000000000000000000000000000000000000000000000000000 DUP2 MSTORE PUSH1 0x4 ADD PUSH2 0x716 SWAP1 PUSH2 0x2846 JUMP JUMPDEST PUSH1 0x40 MLOAD DUP1 SWAP2 SUB SWAP1 REVERT JUMPDEST PUSH1 0x4 PUSH0 DUP6 DUP2 MSTORE PUSH1 0x20 ADD SWAP1 DUP2 MSTORE PUSH1 0x20 ADD PUSH0 KECCAK256 PUSH0 DUP5 DUP2 MSTORE PUSH1 0x20 ADD SWAP1 DUP2 MSTORE PUSH1 0x20 ADD PUSH0 KECCAK256 PUSH1 0x2 ADD PUSH0 SWAP1 SLOAD SWAP1 PUSH2 0x100 EXP SWAP1 DIV PUSH1 0xFF AND ISZERO PUSH2 0x78F JUMPI PUSH1 0x40 MLOAD PUSH32 0x8C379A000000000000000000000000000000000000000000000000000000000 DUP2 MSTORE PUSH1 0x4 ADD PUSH2 0x786 SWAP1 PUSH2 0x28D4 JUMP JUMPDEST PUSH1 0x40 MLOAD DUP1 SWAP2 SUB SWAP1 REVERT JUMPDEST DUP2 PUSH1 0x4 PUSH0 DUP7 DUP2 MSTORE PUSH1 0x20 ADD SWAP1 DUP2 MSTORE PUSH1 0x20 ADD PUSH0 KECCAK256 PUSH0 DUP6 DUP2 MSTORE PUSH1 0x20 ADD SWAP1 DUP2 MSTORE PUSH1 0x20 ADD PUSH0 KECCAK256 PUSH1 0x1 ADD SWAP1 DUP2 PUSH2 0x7BF SWAP2 SWAP1 PUSH2 0x2AEC JUMP JUMPDEST POP DUP1 PUSH1 0x4 PUSH0 DUP7 DUP2 MSTORE PUSH1 0x20 ADD SWAP1 DUP2 MSTORE PUSH1 0x20 ADD PUSH0 KECCAK256 PUSH0 DUP6 DUP2 MSTORE PUSH1 0x20 ADD SWAP1 DUP2 MSTORE PUSH1 0x20 ADD PUSH0 KECCAK256 PUSH1 0x3 ADD SWAP1 DUP2 PUSH2 0x7F0 SWAP2 SWAP1 PUSH2 0x2AEC JUMP JUMPDEST POP POP POP POP POP JUMP JUMPDEST PUSH0 DUP1 SLOAD SWAP1 PUSH2 0x100 EXP SWAP1 DIV PUSH20 0xFFFFFFFFFFFFFFFFFFFFFFFFFFFFFFFFFFFFFFFF AND PUSH20 0xFFFFFFFFFFFFFFFFFFFFFFFFFFFFFFFFFFFFFFFF AND CALLER PUSH20 0xFFFFFFFFFFFFFFFFFFFFFFFFFFFFFFFFFFFFFFFF AND EQ PUSH2 0x884 JUMPI PUSH1 0x40 MLOAD PUSH32 0x8C379A000000000000000000000000000000000000000000000000000000000 DUP2 MSTORE PUSH1 0x4 ADD PUSH2 0x87B SWAP1 PUSH2 0x269C JUMP JUMPDEST PUSH1 0x40 MLOAD DUP1 SWAP2 SUB SWAP1 REVERT JUMPDEST PUSH1 0x1 PUSH0 DUP6 DUP2 MSTORE PUSH1 0x20 ADD SWAP1 DUP2 MSTORE PUSH1 0x20 ADD PUSH0 KECCAK256 PUSH1 0x4 ADD PUSH0 SWAP1 SLOAD SWAP1 PUSH2 0x100 EXP SWAP1 DIV PUSH1 0xFF AND ISZERO PUSH2 0x8E5 JUMPI PUSH1 0x40 MLOAD PUSH32 0x8C379A000000000000000000000000000000000000000000000000000000000 DUP2 MSTORE PUSH1 0x4 ADD PUSH2 0x8DC SWAP1 PUSH2 0x2846 JUMP JUMPDEST PUSH1 0x40 MLOAD DUP1 SWAP2 SUB SWAP1 REVERT JUMPDEST PUSH1 0x40 MLOAD DUP1 PUSH1 0x80 ADD PUSH1 0x40 MSTORE DUP1 DUP5 DUP2 MSTORE PUSH1 0x20 ADD DUP4 DUP2 MSTORE PUSH1 0x20 ADD PUSH0 ISZERO ISZERO DUP2 MSTORE PUSH1 0x20 ADD DUP3 DUP2 MSTORE POP PUSH1 0x4 PUSH0 DUP7 DUP2 MSTORE PUSH1 0x20 ADD SWAP1 DUP2 MSTORE PUSH1 0x20 ADD PUSH0 KECCAK256 PUSH0 DUP6 DUP2 MSTORE PUSH1 0x20 ADD SWAP1 DUP2 MSTORE PUSH1 0x20 ADD PUSH0 KECCAK256 PUSH0 DUP3 ADD MLOAD DUP2 PUSH0 ADD SSTORE PUSH1 0x20 DUP3 ADD MLOAD DUP2 PUSH1 0x1 ADD SWAP1 DUP2 PUSH2 0x945 SWAP2 SWAP1 PUSH2 0x2AEC JUMP JUMPDEST POP PUSH1 0x40 DUP3 ADD MLOAD DUP2 PUSH1 0x2 ADD PUSH0 PUSH2 0x100 EXP DUP2 SLOAD DUP2 PUSH1 0xFF MUL NOT AND SWAP1 DUP4 ISZERO ISZERO MUL OR SWAP1 SSTORE POP PUSH1 0x60 DUP3 ADD MLOAD DUP2 PUSH1 0x3 ADD SWAP1 DUP2 PUSH2 0x97A SWAP2 SWAP1 PUSH2 0x2AEC JUMP JUMPDEST POP SWAP1 POP POP POP POP POP POP JUMP JUMPDEST PUSH0 DUP1 SLOAD SWAP1 PUSH2 0x100 EXP SWAP1 DIV PUSH20 0xFFFFFFFFFFFFFFFFFFFFFFFFFFFFFFFFFFFFFFFF AND PUSH20 0xFFFFFFFFFFFFFFFFFFFFFFFFFFFFFFFFFFFFFFFF AND CALLER PUSH20 0xFFFFFFFFFFFFFFFFFFFFFFFFFFFFFFFFFFFFFFFF AND EQ PUSH2 0xA11 JUMPI PUSH1 0x40 MLOAD PUSH32 0x8C379A000000000000000000000000000000000000000000000000000000000 DUP2 MSTORE PUSH1 0x4 ADD PUSH2 0xA08 SWAP1 PUSH2 0x269C JUMP JUMPDEST PUSH1 0x40 MLOAD DUP1 SWAP2 SUB SWAP1 REVERT JUMPDEST PUSH1 0x3 PUSH0 DUP5 DUP2 MSTORE PUSH1 0x20 ADD SWAP1 DUP2 MSTORE PUSH1 0x20 ADD PUSH0 KECCAK256 PUSH1 0x2 ADD PUSH0 SWAP1 SLOAD SWAP1 PUSH2 0x100 EXP SWAP1 DIV PUSH1 0xFF AND ISZERO PUSH2 0xA72 JUMPI PUSH1 0x40 MLOAD PUSH32 0x8C379A000000000000000000000000000000000000000000000000000000000 DUP2 MSTORE PUSH1 0x4 ADD PUSH2 0xA69 SWAP1 PUSH2 0x2C2B JUMP JUMPDEST PUSH1 0x40 MLOAD DUP1 SWAP2 SUB SWAP1 REVERT JUMPDEST DUP2 PUSH1 0x3 PUSH0 DUP6 DUP2 MSTORE PUSH1 0x20 ADD SWAP1 DUP2 MSTORE PUSH1 0x20 ADD PUSH0 KECCAK256 PUSH1 0x1 ADD SWAP1 DUP2 PUSH2 0xA93 SWAP2 SWAP1 PUSH2 0x2AEC JUMP JUMPDEST POP DUP1 PUSH1 0x3 PUSH0 DUP6 DUP2 MSTORE PUSH1 0x20 ADD SWAP1 DUP2 MSTORE PUSH1 0x20 ADD PUSH0 KECCAK256 PUSH1 0x3 ADD SWAP1 DUP2 PUSH2 0xAB5 SWAP2 SWAP1 PUSH2 0x2AEC JUMP JUMPDEST POP POP POP POP JUMP JUMPDEST PUSH2 0xAC3 PUSH2 0x1D63 JUMP JUMPDEST PUSH1 0x4 PUSH0 DUP5 DUP2 MSTORE PUSH1 0x20 ADD SWAP1 DUP2 MSTORE PUSH1 0x20 ADD PUSH0 KECCAK256 PUSH0 DUP4 DUP2 MSTORE PUSH1 0x20 ADD SWAP1 DUP2 MSTORE PUSH1 0x20 ADD PUSH0 KECCAK256 PUSH1 0x40 MLOAD DUP1 PUSH1 0x80 ADD PUSH1 0x40 MSTORE SWAP1 DUP2 PUSH0 DUP3 ADD SLOAD DUP2 MSTORE PUSH1 0x20 ADD PUSH1 0x1 DUP3 ADD DUP1 SLOAD PUSH2 0xB07 SWAP1 PUSH2 0x291F JUMP JUMPDEST DUP1 PUSH1 0x1F ADD PUSH1 0x20 DUP1 SWAP2 DIV MUL PUSH1 0x20 ADD PUSH1 0x40 MLOAD SWAP1 DUP2 ADD PUSH1 0x40 MSTORE DUP1 SWAP3 SWAP2 SWAP1 DUP2 DUP2 MSTORE PUSH1 0x20 ADD DUP3 DUP1 SLOAD PUSH2 0xB33 SWAP1 PUSH2 0x291F JUMP JUMPDEST DUP1 ISZERO PUSH2 0xB7E JUMPI DUP1 PUSH1 0x1F LT PUSH2 0xB55 JUMPI PUSH2 0x100 DUP1 DUP4 SLOAD DIV MUL DUP4 MSTORE SWAP2 PUSH1 0x20 ADD SWAP2 PUSH2 0xB7E JUMP JUMPDEST DUP3 ADD SWAP2 SWAP1 PUSH0 MSTORE PUSH1 0x20 PUSH0 KECCAK256 SWAP1 JUMPDEST DUP2 SLOAD DUP2 MSTORE SWAP1 PUSH1 0x1 ADD SWAP1 PUSH1 0x20 ADD DUP1 DUP4 GT PUSH2 0xB61 JUMPI DUP3 SWAP1 SUB PUSH1 0x1F AND DUP3 ADD SWAP2 JUMPDEST POP POP POP POP POP DUP2 MSTORE PUSH1 0x20 ADD PUSH1 0x2 DUP3 ADD PUSH0 SWAP1 SLOAD SWAP1 PUSH2 0x100 EXP SWAP1 DIV PUSH1 0xFF AND ISZERO ISZERO ISZERO ISZERO DUP2 MSTORE PUSH1 0x20 ADD PUSH1 0x3 DUP3 ADD DUP1 SLOAD PUSH2 0xBB1 SWAP1 PUSH2 0x291F JUMP JUMPDEST DUP1 PUSH1 0x1F ADD PUSH1 0x20 DUP1 SWAP2 DIV MUL PUSH1 0x20 ADD PUSH1 0x40 MLOAD SWAP1 DUP2 ADD PUSH1 0x40 MSTORE DUP1 SWAP3 SWAP2 SWAP1 DUP2 DUP2 MSTORE PUSH1 0x20 ADD DUP3 DUP1 SLOAD PUSH2 0xBDD SWAP1 PUSH2 0x291F JUMP JUMPDEST DUP1 ISZERO PUSH2 0xC28 JUMPI DUP1 PUSH1 0x1F LT PUSH2 0xBFF JUMPI PUSH2 0x100 DUP1 DUP4 SLOAD DIV MUL DUP4 MSTORE SWAP2 PUSH1 0x20 ADD SWAP2 PUSH2 0xC28 JUMP JUMPDEST DUP3 ADD SWAP2 SWAP1 PUSH0 MSTORE PUSH1 0x20 PUSH0 KECCAK256 SWAP1 JUMPDEST DUP2 SLOAD DUP2 MSTORE SWAP1 PUSH1 0x1 ADD SWAP1 PUSH1 0x20 ADD DUP1 DUP4 GT PUSH2 0xC0B JUMPI DUP3 SWAP1 SUB PUSH1 0x1F AND DUP3 ADD SWAP2 JUMPDEST POP POP POP POP POP DUP2 MSTORE POP POP SWAP1 POP SWAP3 SWAP2 POP POP JUMP JUMPDEST PUSH1 0x1 PUSH1 0x20 MSTORE DUP1 PUSH0 MSTORE PUSH1 0x40 PUSH0 KECCAK256 PUSH0 SWAP2 POP SWAP1 POP DUP1 PUSH0 ADD SLOAD SWAP1 DUP1 PUSH1 0x1 ADD DUP1 SLOAD PUSH2 0xC5E SWAP1 PUSH2 0x291F JUMP JUMPDEST DUP1 PUSH1 0x1F ADD PUSH1 0x20 DUP1 SWAP2 DIV MUL PUSH1 0x20 ADD PUSH1 0x40 MLOAD SWAP1 DUP2 ADD PUSH1 0x40 MSTORE DUP1 SWAP3 SWAP2 SWAP1 DUP2 DUP2 MSTORE PUSH1 0x20 ADD DUP3 DUP1 SLOAD PUSH2 0xC8A SWAP1 PUSH2 0x291F JUMP JUMPDEST DUP1 ISZERO PUSH2 0xCD5 JUMPI DUP1 PUSH1 0x1F LT PUSH2 0xCAC JUMPI PUSH2 0x100 DUP1 DUP4 SLOAD DIV MUL DUP4 MSTORE SWAP2 PUSH1 0x20 ADD SWAP2 PUSH2 0xCD5 JUMP JUMPDEST DUP3 ADD SWAP2 SWAP1 PUSH0 MSTORE PUSH1 0x20 PUSH0 KECCAK256 SWAP1 JUMPDEST DUP2 SLOAD DUP2 MSTORE SWAP1 PUSH1 0x1 ADD SWAP1 PUSH1 0x20 ADD DUP1 DUP4 GT PUSH2 0xCB8 JUMPI DUP3 SWAP1 SUB PUSH1 0x1F AND DUP3 ADD SWAP2 JUMPDEST POP POP POP POP POP SWAP1 DUP1 PUSH1 0x2 ADD SLOAD SWAP1 DUP1 PUSH1 0x3 ADD SLOAD SWAP1 DUP1 PUSH1 0x4 ADD PUSH0 SWAP1 SLOAD SWAP1 PUSH2 0x100 EXP SWAP1 DIV PUSH1 0xFF AND SWAP1 DUP1 PUSH1 0x5 ADD DUP1 SLOAD PUSH2 0xD08 SWAP1 PUSH2 0x291F JUMP JUMPDEST DUP1 PUSH1 0x1F ADD PUSH1 0x20 DUP1 SWAP2 DIV MUL PUSH1 0x20 ADD PUSH1 0x40 MLOAD SWAP1 DUP2 ADD PUSH1 0x40 MSTORE DUP1 SWAP3 SWAP2 SWAP1 DUP2 DUP2 MSTORE PUSH1 0x20 ADD DUP3 DUP1 SLOAD PUSH2 0xD34 SWAP1 PUSH2 0x291F JUMP JUMPDEST DUP1 ISZERO PUSH2 0xD7F JUMPI DUP1 PUSH1 0x1F LT PUSH2 0xD56 JUMPI PUSH2 0x100 DUP1 DUP4 SLOAD DIV MUL DUP4 MSTORE SWAP2 PUSH1 0x20 ADD SWAP2 PUSH2 0xD7F JUMP JUMPDEST DUP3 ADD SWAP2 SWAP1 PUSH0 MSTORE PUSH1 0x20 PUSH0 KECCAK256 SWAP1 JUMPDEST DUP2 SLOAD DUP2 MSTORE SWAP1 PUSH1 0x1 ADD SWAP1 PUSH1 0x20 ADD DUP1 DUP4 GT PUSH2 0xD62 JUMPI DUP3 SWAP1 SUB PUSH1 0x1F AND DUP3 ADD SWAP2 JUMPDEST POP POP POP POP POP SWAP1 POP DUP7 JUMP JUMPDEST PUSH0 DUP1 SLOAD SWAP1 PUSH2 0x100 EXP SWAP1 DIV PUSH20 0xFFFFFFFFFFFFFFFFFFFFFFFFFFFFFFFFFFFFFFFF AND PUSH20 0xFFFFFFFFFFFFFFFFFFFFFFFFFFFFFFFFFFFFFFFF AND CALLER PUSH20 0xFFFFFFFFFFFFFFFFFFFFFFFFFFFFFFFFFFFFFFFF AND EQ PUSH2 0xE16 JUMPI PUSH1 0x40 MLOAD PUSH32 0x8C379A000000000000000000000000000000000000000000000000000000000 DUP2 MSTORE PUSH1 0x4 ADD PUSH2 0xE0D SWAP1 PUSH2 0x269C JUMP JUMPDEST PUSH1 0x40 MLOAD DUP1 SWAP2 SUB SWAP1 REVERT JUMPDEST PUSH1 0x40 MLOAD DUP1 PUSH1 0x80 ADD PUSH1 0x40 MSTORE DUP1 DUP5 DUP2 MSTORE PUSH1 0x20 ADD DUP4 DUP2 MSTORE PUSH1 0x20 ADD PUSH0 ISZERO ISZERO DUP2 MSTORE PUSH1 0x20 ADD DUP3 DUP2 MSTORE POP PUSH1 0x3 PUSH0 DUP6 DUP2 MSTORE PUSH1 0x20 ADD SWAP1 DUP2 MSTORE PUSH1 0x20 ADD PUSH0 KECCAK256 PUSH0 DUP3 ADD MLOAD DUP2 PUSH0 ADD SSTORE PUSH1 0x20 DUP3 ADD MLOAD DUP2 PUSH1 0x1 ADD SWAP1 DUP2 PUSH2 0xE67 SWAP2 SWAP1 PUSH2 0x2AEC JUMP JUMPDEST POP PUSH1 0x40 DUP3 ADD MLOAD DUP2 PUSH1 0x2 ADD PUSH0 PUSH2 0x100 EXP DUP2 SLOAD DUP2 PUSH1 0xFF MUL NOT AND SWAP1 DUP4 ISZERO ISZERO MUL OR SWAP1 SSTORE POP PUSH1 0x60 DUP3 ADD MLOAD DUP2 PUSH1 0x3 ADD SWAP1 DUP2 PUSH2 0xE9C SWAP2 SWAP1 PUSH2 0x2AEC JUMP JUMPDEST POP SWAP1 POP POP POP POP POP JUMP JUMPDEST PUSH0 DUP1 SLOAD SWAP1 PUSH2 0x100 EXP SWAP1 DIV PUSH20 0xFFFFFFFFFFFFFFFFFFFFFFFFFFFFFFFFFFFFFFFF AND DUP2 JUMP JUMPDEST PUSH1 0x3 PUSH1 0x20 MSTORE DUP1 PUSH0 MSTORE PUSH1 0x40 PUSH0 KECCAK256 PUSH0 SWAP2 POP SWAP1 POP DUP1 PUSH0 ADD SLOAD SWAP1 DUP1 PUSH1 0x1 ADD DUP1 SLOAD PUSH2 0xEED SWAP1 PUSH2 0x291F JUMP JUMPDEST DUP1 PUSH1 0x1F ADD PUSH1 0x20 DUP1 SWAP2 DIV MUL PUSH1 0x20 ADD PUSH1 0x40 MLOAD SWAP1 DUP2 ADD PUSH1 0x40 MSTORE DUP1 SWAP3 SWAP2 SWAP1 DUP2 DUP2 MSTORE PUSH1 0x20 ADD DUP3 DUP1 SLOAD PUSH2 0xF19 SWAP1 PUSH2 0x291F JUMP JUMPDEST DUP1 ISZERO PUSH2 0xF64 JUMPI DUP1 PUSH1 0x1F LT PUSH2 0xF3B JUMPI PUSH2 0x100 DUP1 DUP4 SLOAD DIV MUL DUP4 MSTORE SWAP2 PUSH1 0x20 ADD SWAP2 PUSH2 0xF64 JUMP JUMPDEST DUP3 ADD SWAP2 SWAP1 PUSH0 MSTORE PUSH1 0x20 PUSH0 KECCAK256 SWAP1 JUMPDEST DUP2 SLOAD DUP2 MSTORE SWAP1 PUSH1 0x1 ADD SWAP1 PUSH1 0x20 ADD DUP1 DUP4 GT PUSH2 0xF47 JUMPI DUP3 SWAP1 SUB PUSH1 0x1F AND DUP3 ADD SWAP2 JUMPDEST POP POP POP POP POP SWAP1 DUP1 PUSH1 0x2 ADD PUSH0 SWAP1 SLOAD SWAP1 PUSH2 0x100 EXP SWAP1 DIV PUSH1 0xFF AND SWAP1 DUP1 PUSH1 0x3 ADD DUP1 SLOAD PUSH2 0xF8B SWAP1 PUSH2 0x291F JUMP JUMPDEST DUP1 PUSH1 0x1F ADD PUSH1 0x20 DUP1 SWAP2 DIV MUL PUSH1 0x20 ADD PUSH1 0x40 MLOAD SWAP1 DUP2 ADD PUSH1 0x40 MSTORE DUP1 SWAP3 SWAP2 SWAP1 DUP2 DUP2 MSTORE PUSH1 0x20 ADD DUP3 DUP1 SLOAD PUSH2 0xFB7 SWAP1 PUSH2 0x291F JUMP JUMPDEST DUP1 ISZERO PUSH2 0x1002 JUMPI DUP1 PUSH1 0x1F LT PUSH2 0xFD9 JUMPI PUSH2 0x100 DUP1 DUP4 SLOAD DIV MUL DUP4 MSTORE SWAP2 PUSH1 0x20 ADD SWAP2 PUSH2 0x1002 JUMP JUMPDEST DUP3 ADD SWAP2 SWAP1 PUSH0 MSTORE PUSH1 0x20 PUSH0 KECCAK256 SWAP1 JUMPDEST DUP2 SLOAD DUP2 MSTORE SWAP1 PUSH1 0x1 ADD SWAP1 PUSH1 0x20 ADD DUP1 DUP4 GT PUSH2 0xFE5 JUMPI DUP3 SWAP1 SUB PUSH1 0x1F AND DUP3 ADD SWAP2 JUMPDEST POP POP POP POP POP SWAP1 POP DUP5 JUMP JUMPDEST PUSH2 0x1014 PUSH2 0x1D8B JUMP JUMPDEST PUSH1 0x3 PUSH0 DUP4 DUP2 MSTORE PUSH1 0x20 ADD SWAP1 DUP2 MSTORE PUSH1 0x20 ADD PUSH0 KECCAK256 PUSH1 0x40 MLOAD DUP1 PUSH1 0x80 ADD PUSH1 0x40 MSTORE SWAP1 DUP2 PUSH0 DUP3 ADD SLOAD DUP2 MSTORE PUSH1 0x20 ADD PUSH1 0x1 DUP3 ADD DUP1 SLOAD PUSH2 0x1049 SWAP1 PUSH2 0x291F JUMP JUMPDEST DUP1 PUSH1 0x1F ADD PUSH1 0x20 DUP1 SWAP2 DIV MUL PUSH1 0x20 ADD PUSH1 0x40 MLOAD SWAP1 DUP2 ADD PUSH1 0x40 MSTORE DUP1 SWAP3 SWAP2 SWAP1 DUP2 DUP2 MSTORE PUSH1 0x20 ADD DUP3 DUP1 SLOAD PUSH2 0x1075 SWAP1 PUSH2 0x291F JUMP JUMPDEST DUP1 ISZERO PUSH2 0x10C0 JUMPI DUP1 PUSH1 0x1F LT PUSH2 0x1097 JUMPI PUSH2 0x100 DUP1 DUP4 SLOAD DIV MUL DUP4 MSTORE SWAP2 PUSH1 0x20 ADD SWAP2 PUSH2 0x10C0 JUMP JUMPDEST DUP3 ADD SWAP2 SWAP1 PUSH0 MSTORE PUSH1 0x20 PUSH0 KECCAK256 SWAP1 JUMPDEST DUP2 SLOAD DUP2 MSTORE SWAP1 PUSH1 0x1 ADD SWAP1 PUSH1 0x20 ADD DUP1 DUP4 GT PUSH2 0x10A3 JUMPI DUP3 SWAP1 SUB PUSH1 0x1F AND DUP3 ADD SWAP2 JUMPDEST POP POP POP POP POP DUP2 MSTORE PUSH1 0x20 ADD PUSH1 0x2 DUP3 ADD PUSH0 SWAP1 SLOAD SWAP1 PUSH2 0x100 EXP SWAP1 DIV PUSH1 0xFF AND ISZERO ISZERO ISZERO ISZERO DUP2 MSTORE PUSH1 0x20 ADD PUSH1 0x3 DUP3 ADD DUP1 SLOAD PUSH2 0x10F3 SWAP1 PUSH2 0x291F JUMP JUMPDEST DUP1 PUSH1 0x1F ADD PUSH1 0x20 DUP1 SWAP2 DIV MUL PUSH1 0x20 ADD PUSH1 0x40 MLOAD SWAP1 DUP2 ADD PUSH1 0x40 MSTORE DUP1 SWAP3 SWAP2 SWAP1 DUP2 DUP2 MSTORE PUSH1 0x20 ADD DUP3 DUP1 SLOAD PUSH2 0x111F SWAP1 PUSH2 0x291F JUMP JUMPDEST DUP1 ISZERO PUSH2 0x116A JUMPI DUP1 PUSH1 0x1F LT PUSH2 0x1141 JUMPI PUSH2 0x100 DUP1 DUP4 SLOAD DIV MUL DUP4 MSTORE SWAP2 PUSH1 0x20 ADD SWAP2 PUSH2 0x116A JUMP JUMPDEST DUP3 ADD SWAP2 SWAP1 PUSH0 MSTORE PUSH1 0x20 PUSH0 KECCAK256 SWAP1 JUMPDEST DUP2 SLOAD DUP2 MSTORE SWAP1 PUSH1 0x1 ADD SWAP1 PUSH1 0x20 ADD DUP1 DUP4 GT PUSH2 0x114D JUMPI DUP3 SWAP1 SUB PUSH1 0x1F AND DUP3 ADD SWAP2 JUMPDEST POP POP POP POP POP DUP2 MSTORE POP POP SWAP1 POP SWAP2 SWAP1 POP JUMP JUMPDEST PUSH2 0x1182 PUSH2 0x1DB3 JUMP JUMPDEST PUSH1 0x1 PUSH0 DUP4 DUP2 MSTORE PUSH1 0x20 ADD SWAP1 DUP2 MSTORE PUSH1 0x20 ADD PUSH0 KECCAK256 PUSH1 0x40 MLOAD DUP1 PUSH1 0xC0 ADD PUSH1 0x40 MSTORE SWAP1 DUP2 PUSH0 DUP3 ADD SLOAD DUP2 MSTORE PUSH1 0x20 ADD PUSH1 0x1 DUP3 ADD DUP1 SLOAD PUSH2 0x11B7 SWAP1 PUSH2 0x291F JUMP JUMPDEST DUP1 PUSH1 0x1F ADD PUSH1 0x20 DUP1 SWAP2 DIV MUL PUSH1 0x20 ADD PUSH1 0x40 MLOAD SWAP1 DUP2 ADD PUSH1 0x40 MSTORE DUP1 SWAP3 SWAP2 SWAP1 DUP2 DUP2 MSTORE PUSH1 0x20 ADD DUP3 DUP1 SLOAD PUSH2 0x11E3 SWAP1 PUSH2 0x291F JUMP JUMPDEST DUP1 ISZERO PUSH2 0x122E JUMPI DUP1 PUSH1 0x1F LT PUSH2 0x1205 JUMPI PUSH2 0x100 DUP1 DUP4 SLOAD DIV MUL DUP4 MSTORE SWAP2 PUSH1 0x20 ADD SWAP2 PUSH2 0x122E JUMP JUMPDEST DUP3 ADD SWAP2 SWAP1 PUSH0 MSTORE PUSH1 0x20 PUSH0 KECCAK256 SWAP1 JUMPDEST DUP2 SLOAD DUP2 MSTORE SWAP1 PUSH1 0x1 ADD SWAP1 PUSH1 0x20 ADD DUP1 DUP4 GT PUSH2 0x1211 JUMPI DUP3 SWAP1 SUB PUSH1 0x1F AND DUP3 ADD SWAP2 JUMPDEST POP POP POP POP POP DUP2 MSTORE PUSH1 0x20 ADD PUSH1 0x2 DUP3 ADD SLOAD DUP2 MSTORE PUSH1 0x20 ADD PUSH1 0x3 DUP3 ADD SLOAD DUP2 MSTORE PUSH1 0x20 ADD PUSH1 0x4 DUP3 ADD PUSH0 SWAP1 SLOAD SWAP1 PUSH2 0x100 EXP SWAP1 DIV PUSH1 0xFF AND ISZERO ISZERO ISZERO ISZERO DUP2 MSTORE PUSH1 0x20 ADD PUSH1 0x5 DUP3 ADD DUP1 SLOAD PUSH2 0x1275 SWAP1 PUSH2 0x291F JUMP JUMPDEST DUP1 PUSH1 0x1F ADD PUSH1 0x20 DUP1 SWAP2 DIV MUL PUSH1 0x20 ADD PUSH1 0x40 MLOAD SWAP1 DUP2 ADD PUSH1 0x40 MSTORE DUP1 SWAP3 SWAP2 SWAP1 DUP2 DUP2 MSTORE PUSH1 0x20 ADD DUP3 DUP1 SLOAD PUSH2 0x12A1 SWAP1 PUSH2 0x291F JUMP JUMPDEST DUP1 ISZERO PUSH2 0x12EC JUMPI DUP1 PUSH1 0x1F LT PUSH2 0x12C3 JUMPI PUSH2 0x100 DUP1 DUP4 SLOAD DIV MUL DUP4 MSTORE SWAP2 PUSH1 0x20 ADD SWAP2 PUSH2 0x12EC JUMP JUMPDEST DUP3 ADD SWAP2 SWAP1 PUSH0 MSTORE PUSH1 0x20 PUSH0 KECCAK256 SWAP1 JUMPDEST DUP2 SLOAD DUP2 MSTORE SWAP1 PUSH1 0x1 ADD SWAP1 PUSH1 0x20 ADD DUP1 DUP4 GT PUSH2 0x12CF JUMPI DUP3 SWAP1 SUB PUSH1 0x1F AND DUP3 ADD SWAP2 JUMPDEST POP POP POP POP POP DUP2 MSTORE POP POP SWAP1 POP SWAP2 SWAP1 POP JUMP JUMPDEST PUSH0 DUP1 SLOAD SWAP1 PUSH2 0x100 EXP SWAP1 DIV PUSH20 0xFFFFFFFFFFFFFFFFFFFFFFFFFFFFFFFFFFFFFFFF AND PUSH20 0xFFFFFFFFFFFFFFFFFFFFFFFFFFFFFFFFFFFFFFFF AND CALLER PUSH20 0xFFFFFFFFFFFFFFFFFFFFFFFFFFFFFFFFFFFFFFFF AND EQ PUSH2 0x1389 JUMPI PUSH1 0x40 MLOAD PUSH32 0x8C379A000000000000000000000000000000000000000000000000000000000 DUP2 MSTORE PUSH1 0x4 ADD PUSH2 0x1380 SWAP1 PUSH2 0x269C JUMP JUMPDEST PUSH1 0x40 MLOAD DUP1 SWAP2 SUB SWAP1 REVERT JUMPDEST PUSH1 0x2 PUSH0 DUP5 DUP2 MSTORE PUSH1 0x20 ADD SWAP1 DUP2 MSTORE PUSH1 0x20 ADD PUSH0 KECCAK256 PUSH1 0x2 ADD PUSH0 SWAP1 SLOAD SWAP1 PUSH2 0x100 EXP SWAP1 DIV PUSH1 0xFF AND ISZERO PUSH2 0x13EA JUMPI PUSH1 0x40 MLOAD PUSH32 0x8C379A000000000000000000000000000000000000000000000000000000000 DUP2 MSTORE PUSH1 0x4 ADD PUSH2 0x13E1 SWAP1 PUSH2 0x2CB9 JUMP JUMPDEST PUSH1 0x40 MLOAD DUP1 SWAP2 SUB SWAP1 REVERT JUMPDEST DUP2 PUSH1 0x2 PUSH0 DUP6 DUP2 MSTORE PUSH1 0x20 ADD SWAP1 DUP2 MSTORE PUSH1 0x20 ADD PUSH0 KECCAK256 PUSH1 0x1 ADD SWAP1 DUP2 PUSH2 0x140B SWAP2 SWAP1 PUSH2 0x2AEC JUMP JUMPDEST POP DUP1 PUSH1 0x2 PUSH0 DUP6 DUP2 MSTORE PUSH1 0x20 ADD SWAP1 DUP2 MSTORE PUSH1 0x20 ADD PUSH0 KECCAK256 PUSH1 0x3 ADD SWAP1 DUP2 PUSH2 0x142D SWAP2 SWAP1 PUSH2 0x2AEC JUMP JUMPDEST POP POP POP POP JUMP JUMPDEST PUSH1 0x2 PUSH1 0x20 MSTORE DUP1 PUSH0 MSTORE PUSH1 0x40 PUSH0 KECCAK256 PUSH0 SWAP2 POP SWAP1 POP DUP1 PUSH0 ADD SLOAD SWAP1 DUP1 PUSH1 0x1 ADD DUP1 SLOAD PUSH2 0x1458 SWAP1 PUSH2 0x291F JUMP JUMPDEST DUP1 PUSH1 0x1F ADD PUSH1 0x20 DUP1 SWAP2 DIV MUL PUSH1 0x20 ADD PUSH1 0x40 MLOAD SWAP1 DUP2 ADD PUSH1 0x40 MSTORE DUP1 SWAP3 SWAP2 SWAP1 DUP2 DUP2 MSTORE PUSH1 0x20 ADD DUP3 DUP1 SLOAD PUSH2 0x1484 SWAP1 PUSH2 0x291F JUMP JUMPDEST DUP1 ISZERO PUSH2 0x14CF JUMPI DUP1 PUSH1 0x1F LT PUSH2 0x14A6 JUMPI PUSH2 0x100 DUP1 DUP4 SLOAD DIV MUL DUP4 MSTORE SWAP2 PUSH1 0x20 ADD SWAP2 PUSH2 0x14CF JUMP JUMPDEST DUP3 ADD SWAP2 SWAP1 PUSH0 MSTORE PUSH1 0x20 PUSH0 KECCAK256 SWAP1 JUMPDEST DUP2 SLOAD DUP2 MSTORE SWAP1 PUSH1 0x1 ADD SWAP1 PUSH1 0x20 ADD DUP1 DUP4 GT PUSH2 0x14B2 JUMPI DUP3 SWAP1 SUB PUSH1 0x1F AND DUP3 ADD SWAP2 JUMPDEST POP POP POP POP POP SWAP1 DUP1 PUSH1 0x2 ADD PUSH0 SWAP1 SLOAD SWAP1 PUSH2 0x100 EXP SWAP1 DIV PUSH1 0xFF AND SWAP1 DUP1 PUSH1 0x3 ADD DUP1 SLOAD PUSH2 0x14F6 SWAP1 PUSH2 0x291F JUMP JUMPDEST DUP1 PUSH1 0x1F ADD PUSH1 0x20 DUP1 SWAP2 DIV MUL PUSH1 0x20 ADD PUSH1 0x40 MLOAD SWAP1 DUP2 ADD PUSH1 0x40 MSTORE DUP1 SWAP3 SWAP2 SWAP1 DUP2 DUP2 MSTORE PUSH1 0x20 ADD DUP3 DUP1 SLOAD PUSH2 0x1522 SWAP1 PUSH2 0x291F JUMP JUMPDEST DUP1 ISZERO PUSH2 0x156D JUMPI DUP1 PUSH1 0x1F LT PUSH2 0x1544 JUMPI PUSH2 0x100 DUP1 DUP4 SLOAD DIV MUL DUP4 MSTORE SWAP2 PUSH1 0x20 ADD SWAP2 PUSH2 0x156D JUMP JUMPDEST DUP3 ADD SWAP2 SWAP1 PUSH0 MSTORE PUSH1 0x20 PUSH0 KECCAK256 SWAP1 JUMPDEST DUP2 SLOAD DUP2 MSTORE SWAP1 PUSH1 0x1 ADD SWAP1 PUSH1 0x20 ADD DUP1 DUP4 GT PUSH2 0x1550 JUMPI DUP3 SWAP1 SUB PUSH1 0x1F AND DUP3 ADD SWAP2 JUMPDEST POP POP POP POP POP SWAP1 POP DUP5 JUMP JUMPDEST PUSH2 0x157F PUSH2 0x1DE7 JUMP JUMPDEST PUSH1 0x2 PUSH0 DUP4 DUP2 MSTORE PUSH1 0x20 ADD SWAP1 DUP2 MSTORE PUSH1 0x20 ADD PUSH0 KECCAK256 PUSH1 0x40 MLOAD DUP1 PUSH1 0x80 ADD PUSH1 0x40 MSTORE SWAP1 DUP2 PUSH0 DUP3 ADD SLOAD DUP2 MSTORE PUSH1 0x20 ADD PUSH1 0x1 DUP3 ADD DUP1 SLOAD PUSH2 0x15B4 SWAP1 PUSH2 0x291F JUMP JUMPDEST DUP1 PUSH1 0x1F ADD PUSH1 0x20 DUP1 SWAP2 DIV MUL PUSH1 0x20 ADD PUSH1 0x40 MLOAD SWAP1 DUP2 ADD PUSH1 0x40 MSTORE DUP1 SWAP3 SWAP2 SWAP1 DUP2 DUP2 MSTORE PUSH1 0x20 ADD DUP3 DUP1 SLOAD PUSH2 0x15E0 SWAP1 PUSH2 0x291F JUMP JUMPDEST DUP1 ISZERO PUSH2 0x162B JUMPI DUP1 PUSH1 0x1F LT PUSH2 0x1602 JUMPI PUSH2 0x100 DUP1 DUP4 SLOAD DIV MUL DUP4 MSTORE SWAP2 PUSH1 0x20 ADD SWAP2 PUSH2 0x162B JUMP JUMPDEST DUP3 ADD SWAP2 SWAP1 PUSH0 MSTORE PUSH1 0x20 PUSH0 KECCAK256 SWAP1 JUMPDEST DUP2 SLOAD DUP2 MSTORE SWAP1 PUSH1 0x1 ADD SWAP1 PUSH1 0x20 ADD DUP1 DUP4 GT PUSH2 0x160E JUMPI DUP3 SWAP1 SUB PUSH1 0x1F AND DUP3 ADD SWAP2 JUMPDEST POP POP POP POP POP DUP2 MSTORE PUSH1 0x20 ADD PUSH1 0x2 DUP3 ADD PUSH0 SWAP1 SLOAD SWAP1 PUSH2 0x100 EXP SWAP1 DIV PUSH1 0xFF AND ISZERO ISZERO ISZERO ISZERO DUP2 MSTORE PUSH1 0x20 ADD PUSH1 0x3 DUP3 ADD DUP1 SLOAD PUSH2 0x165E SWAP1 PUSH2 0x291F JUMP JUMPDEST DUP1 PUSH1 0x1F ADD PUSH1 0x20 DUP1 SWAP2 DIV MUL PUSH1 0x20 ADD PUSH1 0x40 MLOAD SWAP1 DUP2 ADD PUSH1 0x40 MSTORE DUP1 SWAP3 SWAP2 SWAP1 DUP2 DUP2 MSTORE PUSH1 0x20 ADD DUP3 DUP1 SLOAD PUSH2 0x168A SWAP1 PUSH2 0x291F JUMP JUMPDEST DUP1 ISZERO PUSH2 0x16D5 JUMPI DUP1 PUSH1 0x1F LT PUSH2 0x16AC JUMPI PUSH2 0x100 DUP1 DUP4 SLOAD DIV MUL DUP4 MSTORE SWAP2 PUSH1 0x20 ADD SWAP2 PUSH2 0x16D5 JUMP JUMPDEST DUP3 ADD SWAP2 SWAP1 PUSH0 MSTORE PUSH1 0x20 PUSH0 KECCAK256 SWAP1 JUMPDEST DUP2 SLOAD DUP2 MSTORE SWAP1 PUSH1 0x1 ADD SWAP1 PUSH1 0x20 ADD DUP1 DUP4 GT PUSH2 0x16B8 JUMPI DUP3 SWAP1 SUB PUSH1 0x1F AND DUP3 ADD SWAP2 JUMPDEST POP POP POP POP POP DUP2 MSTORE POP POP SWAP1 POP SWAP2 SWAP1 POP JUMP JUMPDEST PUSH0 DUP1 SLOAD SWAP1 PUSH2 0x100 EXP SWAP1 DIV PUSH20 0xFFFFFFFFFFFFFFFFFFFFFFFFFFFFFFFFFFFFFFFF AND PUSH20 0xFFFFFFFFFFFFFFFFFFFFFFFFFFFFFFFFFFFFFFFF AND CALLER PUSH20 0xFFFFFFFFFFFFFFFFFFFFFFFFFFFFFFFFFFFFFFFF AND EQ PUSH2 0x1772 JUMPI PUSH1 0x40 MLOAD PUSH32 0x8C379A000000000000000000000000000000000000000000000000000000000 DUP2 MSTORE PUSH1 0x4 ADD PUSH2 0x1769 SWAP1 PUSH2 0x269C JUMP JUMPDEST PUSH1 0x40 MLOAD DUP1 SWAP2 SUB SWAP1 REVERT JUMPDEST PUSH1 0x40 MLOAD DUP1 PUSH1 0xC0 ADD PUSH1 0x40 MSTORE DUP1 DUP7 DUP2 MSTORE PUSH1 0x20 ADD DUP6 DUP2 MSTORE PUSH1 0x20 ADD DUP5 DUP2 MSTORE PUSH1 0x20 ADD DUP4 DUP2 MSTORE PUSH1 0x20 ADD PUSH0 ISZERO ISZERO DUP2 MSTORE PUSH1 0x20 ADD DUP3 DUP2 MSTORE POP PUSH1 0x1 PUSH0 DUP8 DUP2 MSTORE PUSH1 0x20 ADD SWAP1 DUP2 MSTORE PUSH1 0x20 ADD PUSH0 KECCAK256 PUSH0 DUP3 ADD MLOAD DUP2 PUSH0 ADD SSTORE PUSH1 0x20 DUP3 ADD MLOAD DUP2 PUSH1 0x1 ADD SWAP1 DUP2 PUSH2 0x17CF SWAP2 SWAP1 PUSH2 0x2AEC JUMP JUMPDEST POP PUSH1 0x40 DUP3 ADD MLOAD DUP2 PUSH1 0x2 ADD SSTORE PUSH1 0x60 DUP3 ADD MLOAD DUP2 PUSH1 0x3 ADD SSTORE PUSH1 0x80 DUP3 ADD MLOAD DUP2 PUSH1 0x4 ADD PUSH0 PUSH2 0x100 EXP DUP2 SLOAD DUP2 PUSH1 0xFF MUL NOT AND SWAP1 DUP4 ISZERO ISZERO MUL OR SWAP1 SSTORE POP PUSH1 0xA0 DUP3 ADD MLOAD DUP2 PUSH1 0x5 ADD SWAP1 DUP2 PUSH2 0x1818 SWAP2 SWAP1 PUSH2 0x2AEC JUMP JUMPDEST POP SWAP1 POP POP POP POP POP POP POP JUMP JUMPDEST PUSH0 DUP1 SLOAD SWAP1 PUSH2 0x100 EXP SWAP1 DIV PUSH20 0xFFFFFFFFFFFFFFFFFFFFFFFFFFFFFFFFFFFFFFFF AND PUSH20 0xFFFFFFFFFFFFFFFFFFFFFFFFFFFFFFFFFFFFFFFF AND CALLER PUSH20 0xFFFFFFFFFFFFFFFFFFFFFFFFFFFFFFFFFFFFFFFF AND EQ PUSH2 0x18B0 JUMPI PUSH1 0x40 MLOAD PUSH32 0x8C379A000000000000000000000000000000000000000000000000000000000 DUP2 MSTORE PUSH1 0x4 ADD PUSH2 0x18A7 SWAP1 PUSH2 0x269C JUMP JUMPDEST PUSH1 0x40 MLOAD DUP1 SWAP2 SUB SWAP1 REVERT JUMPDEST PUSH1 0x1 PUSH0 DUP7 DUP2 MSTORE PUSH1 0x20 ADD SWAP1 DUP2 MSTORE PUSH1 0x20 ADD PUSH0 KECCAK256 PUSH1 0x4 ADD PUSH0 SWAP1 SLOAD SWAP1 PUSH2 0x100 EXP SWAP1 DIV PUSH1 0xFF AND ISZERO PUSH2 0x1911 JUMPI PUSH1 0x40 MLOAD PUSH32 0x8C379A000000000000000000000000000000000000000000000000000000000 DUP2 MSTORE PUSH1 0x4 ADD PUSH2 0x1908 SWAP1 PUSH2 0x2846 JUMP JUMPDEST PUSH1 0x40 MLOAD DUP1 SWAP2 SUB SWAP1 REVERT JUMPDEST DUP4 PUSH1 0x1 PUSH0 DUP8 DUP2 MSTORE PUSH1 0x20 ADD SWAP1 DUP2 MSTORE PUSH1 0x20 ADD PUSH0 KECCAK256 PUSH1 0x1 ADD SWAP1 DUP2 PUSH2 0x1932 SWAP2 SWAP1 PUSH2 0x2AEC JUMP JUMPDEST POP DUP3 PUSH1 0x1 PUSH0 DUP8 DUP2 MSTORE PUSH1 0x20 ADD SWAP1 DUP2 MSTORE PUSH1 0x20 ADD PUSH0 KECCAK256 PUSH1 0x2 ADD DUP2 SWAP1 SSTORE POP DUP2 PUSH1 0x1 PUSH0 DUP8 DUP2 MSTORE PUSH1 0x20 ADD SWAP1 DUP2 MSTORE PUSH1 0x20 ADD PUSH0 KECCAK256 PUSH1 0x3 ADD DUP2 SWAP1 SSTORE POP DUP1 PUSH1 0x1 PUSH0 DUP8 DUP2 MSTORE PUSH1 0x20 ADD SWAP1 DUP2 MSTORE PUSH1 0x20 ADD PUSH0 KECCAK256 PUSH1 0x5 ADD SWAP1 DUP2 PUSH2 0x1986 SWAP2 SWAP1 PUSH2 0x2AEC JUMP JUMPDEST POP POP POP POP POP POP JUMP JUMPDEST PUSH0 DUP1 SLOAD SWAP1 PUSH2 0x100 EXP SWAP1 DIV PUSH20 0xFFFFFFFFFFFFFFFFFFFFFFFFFFFFFFFFFFFFFFFF AND PUSH20 0xFFFFFFFFFFFFFFFFFFFFFFFFFFFFFFFFFFFFFFFF AND CALLER PUSH20 0xFFFFFFFFFFFFFFFFFFFFFFFFFFFFFFFFFFFFFFFF AND EQ PUSH2 0x1A1B JUMPI PUSH1 0x40 MLOAD PUSH32 0x8C379A000000000000000000000000000000000000000000000000000000000 DUP2 MSTORE PUSH1 0x4 ADD PUSH2 0x1A12 SWAP1 PUSH2 0x269C JUMP JUMPDEST PUSH1 0x40 MLOAD DUP1 SWAP2 SUB SWAP1 REVERT JUMPDEST PUSH1 0x1 PUSH0 DUP3 DUP2 MSTORE PUSH1 0x20 ADD SWAP1 DUP2 MSTORE PUSH1 0x20 ADD PUSH0 KECCAK256 PUSH1 0x4 ADD PUSH0 SWAP1 SLOAD SWAP1 PUSH2 0x100 EXP SWAP1 DIV PUSH1 0xFF AND ISZERO PUSH2 0x1A7C JUMPI PUSH1 0x40 MLOAD PUSH32 0x8C379A000000000000000000000000000000000000000000000000000000000 DUP2 MSTORE PUSH1 0x4 ADD PUSH2 0x1A73 SWAP1 PUSH2 0x2D47 JUMP JUMPDEST PUSH1 0x40 MLOAD DUP1 SWAP2 SUB SWAP1 REVERT JUMPDEST PUSH1 0x1 DUP1 PUSH0 DUP4 DUP2 MSTORE PUSH1 0x20 ADD SWAP1 DUP2 MSTORE PUSH1 0x20 ADD PUSH0 KECCAK256 PUSH1 0x4 ADD PUSH0 PUSH2 0x100 EXP DUP2 SLOAD DUP2 PUSH1 0xFF MUL NOT AND SWAP1 DUP4 ISZERO ISZERO MUL OR SWAP1 SSTORE POP POP JUMP JUMPDEST PUSH0 DUP1 SLOAD SWAP1 PUSH2 0x100 EXP SWAP1 DIV PUSH20 0xFFFFFFFFFFFFFFFFFFFFFFFFFFFFFFFFFFFFFFFF AND PUSH20 0xFFFFFFFFFFFFFFFFFFFFFFFFFFFFFFFFFFFFFFFF AND CALLER PUSH20 0xFFFFFFFFFFFFFFFFFFFFFFFFFFFFFFFFFFFFFFFF AND EQ PUSH2 0x1B37 JUMPI PUSH1 0x40 MLOAD PUSH32 0x8C379A000000000000000000000000000000000000000000000000000000000 DUP2 MSTORE PUSH1 0x4 ADD PUSH2 0x1B2E SWAP1 PUSH2 0x269C JUMP JUMPDEST PUSH1 0x40 MLOAD DUP1 SWAP2 SUB SWAP1 REVERT JUMPDEST PUSH1 0x1 PUSH0 DUP4 DUP2 MSTORE PUSH1 0x20 ADD SWAP1 DUP2 MSTORE PUSH1 0x20 ADD PUSH0 KECCAK256 PUSH1 0x4 ADD PUSH0 SWAP1 SLOAD SWAP1 PUSH2 0x100 EXP SWAP1 DIV PUSH1 0xFF AND ISZERO PUSH2 0x1B98 JUMPI PUSH1 0x40 MLOAD PUSH32 0x8C379A000000000000000000000000000000000000000000000000000000000 DUP2 MSTORE PUSH1 0x4 ADD PUSH2 0x1B8F SWAP1 PUSH2 0x2846 JUMP JUMPDEST PUSH1 0x40 MLOAD DUP1 SWAP2 SUB SWAP1 REVERT JUMPDEST PUSH1 0x4 PUSH0 DUP4 DUP2 MSTORE PUSH1 0x20 ADD SWAP1 DUP2 MSTORE PUSH1 0x20 ADD PUSH0 KECCAK256 PUSH0 DUP3 DUP2 MSTORE PUSH1 0x20 ADD SWAP1 DUP2 MSTORE PUSH1 0x20 ADD PUSH0 KECCAK256 PUSH1 0x2 ADD PUSH0 SWAP1 SLOAD SWAP1 PUSH2 0x100 EXP SWAP1 DIV PUSH1 0xFF AND ISZERO PUSH2 0x1C08 JUMPI PUSH1 0x40 MLOAD PUSH32 0x8C379A000000000000000000000000000000000000000000000000000000000 DUP2 MSTORE PUSH1 0x4 ADD PUSH2 0x1BFF SWAP1 PUSH2 0x28D4 JUMP JUMPDEST PUSH1 0x40 MLOAD DUP1 SWAP2 SUB SWAP1 REVERT JUMPDEST PUSH1 0x1 PUSH1 0x4 PUSH0 DUP5 DUP2 MSTORE PUSH1 0x20 ADD SWAP1 DUP2 MSTORE PUSH1 0x20 ADD PUSH0 KECCAK256 PUSH0 DUP4 DUP2 MSTORE PUSH1 0x20 ADD SWAP1 DUP2 MSTORE PUSH1 0x20 ADD PUSH0 KECCAK256 PUSH1 0x2 ADD PUSH0 PUSH2 0x100 EXP DUP2 SLOAD DUP2 PUSH1 0xFF MUL NOT AND SWAP1 DUP4 ISZERO ISZERO MUL OR SWAP1 SSTORE POP POP POP JUMP JUMPDEST PUSH0 DUP1 SLOAD SWAP1 PUSH2 0x100 EXP SWAP1 DIV PUSH20 0xFFFFFFFFFFFFFFFFFFFFFFFFFFFFFFFFFFFFFFFF AND PUSH20 0xFFFFFFFFFFFFFFFFFFFFFFFFFFFFFFFFFFFFFFFF AND CALLER PUSH20 0xFFFFFFFFFFFFFFFFFFFFFFFFFFFFFFFFFFFFFFFF AND EQ PUSH2 0x1CD4 JUMPI PUSH1 0x40 MLOAD PUSH32 0x8C379A000000000000000000000000000000000000000000000000000000000 DUP2 MSTORE PUSH1 0x4 ADD PUSH2 0x1CCB SWAP1 PUSH2 0x269C JUMP JUMPDEST PUSH1 0x40 MLOAD DUP1 SWAP2 SUB SWAP1 REVERT JUMPDEST PUSH1 0x40 MLOAD DUP1 PUSH1 0x80 ADD PUSH1 0x40 MSTORE DUP1 DUP5 DUP2 MSTORE PUSH1 0x20 ADD DUP4 DUP2 MSTORE PUSH1 0x20 ADD PUSH0 ISZERO ISZERO DUP2 MSTORE PUSH1 0x20 ADD DUP3 DUP2 MSTORE POP PUSH1 0x2 PUSH0 DUP6 DUP2 MSTORE PUSH1 0x20 ADD SWAP1 DUP2 MSTORE PUSH1 0x20 ADD PUSH0 KECCAK256 PUSH0 DUP3 ADD MLOAD DUP2 PUSH0 ADD SSTORE PUSH1 0x20 DUP3 ADD MLOAD DUP2 PUSH1 0x1 ADD SWAP1 DUP2 PUSH2 0x1D25 SWAP2 SWAP1 PUSH2 0x2AEC JUMP JUMPDEST POP PUSH1 0x40 DUP3 ADD MLOAD DUP2 PUSH1 0x2 ADD PUSH0 PUSH2 0x100 EXP DUP2 SLOAD DUP2 PUSH1 0xFF MUL NOT AND SWAP1 DUP4 ISZERO ISZERO MUL OR SWAP1 SSTORE POP PUSH1 0x60 DUP3 ADD MLOAD DUP2 PUSH1 0x3 ADD SWAP1 DUP2 PUSH2 0x1D5A SWAP2 SWAP1 PUSH2 0x2AEC JUMP JUMPDEST POP SWAP1 POP POP POP POP POP JUMP JUMPDEST PUSH1 0x40 MLOAD DUP1 PUSH1 0x80 ADD PUSH1 0x40 MSTORE DUP1 PUSH0 DUP2 MSTORE PUSH1 0x20 ADD PUSH1 0x60 DUP2 MSTORE PUSH1 0x20 ADD PUSH0 ISZERO ISZERO DUP2 MSTORE PUSH1 0x20 ADD PUSH1 0x60 DUP2 MSTORE POP SWAP1 JUMP JUMPDEST PUSH1 0x40 MLOAD DUP1 PUSH1 0x80 ADD PUSH1 0x40 MSTORE DUP1 PUSH0 DUP2 MSTORE PUSH1 0x20 ADD PUSH1 0x60 DUP2 MSTORE PUSH1 0x20 ADD PUSH0 ISZERO ISZERO DUP2 MSTORE PUSH1 0x20 ADD PUSH1 0x60 DUP2 MSTORE POP SWAP1 JUMP JUMPDEST PUSH1 0x40 MLOAD DUP1 PUSH1 0xC0 ADD PUSH1 0x40 MSTORE DUP1 PUSH0 DUP2 MSTORE PUSH1 0x20 ADD PUSH1 0x60 DUP2 MSTORE PUSH1 0x20 ADD PUSH0 DUP2 MSTORE PUSH1 0x20 ADD PUSH0 DUP2 MSTORE PUSH1 0x20 ADD PUSH0 ISZERO ISZERO DUP2 MSTORE PUSH1 0x20 ADD PUSH1 0x60 DUP2 MSTORE POP SWAP1 JUMP JUMPDEST PUSH1 0x40 MLOAD DUP1 PUSH1 0x80 ADD PUSH1 0x40 MSTORE DUP1 PUSH0 DUP2 MSTORE PUSH1 0x20 ADD PUSH1 0x60 DUP2 MSTORE PUSH1 0x20 ADD PUSH0 ISZERO ISZERO DUP2 MSTORE PUSH1 0x20 ADD PUSH1 0x60 DUP2 MSTORE POP SWAP1 JUMP JUMPDEST PUSH0 PUSH1 0x40 MLOAD SWAP1 POP SWAP1 JUMP JUMPDEST PUSH0 DUP1 REVERT JUMPDEST PUSH0 DUP1 REVERT JUMPDEST PUSH0 DUP2 SWAP1 POP SWAP2 SWAP1 POP JUMP JUMPDEST PUSH2 0x1E32 DUP2 PUSH2 0x1E20 JUMP JUMPDEST DUP2 EQ PUSH2 0x1E3C JUMPI PUSH0 DUP1 REVERT JUMPDEST POP JUMP JUMPDEST PUSH0 DUP2 CALLDATALOAD SWAP1 POP PUSH2 0x1E4D DUP2 PUSH2 0x1E29 JUMP JUMPDEST SWAP3 SWAP2 POP POP JUMP JUMPDEST PUSH0 PUSH1 0x20 DUP3 DUP5 SUB SLT ISZERO PUSH2 0x1E68 JUMPI PUSH2 0x1E67 PUSH2 0x1E18 JUMP JUMPDEST JUMPDEST PUSH0 PUSH2 0x1E75 DUP5 DUP3 DUP6 ADD PUSH2 0x1E3F JUMP JUMPDEST SWAP2 POP POP SWAP3 SWAP2 POP POP JUMP JUMPDEST PUSH0 DUP1 REVERT JUMPDEST PUSH0 DUP1 REVERT JUMPDEST PUSH0 PUSH1 0x1F NOT PUSH1 0x1F DUP4 ADD AND SWAP1 POP SWAP2 SWAP1 POP JUMP JUMPDEST PUSH32 0x4E487B7100000000000000000000000000000000000000000000000000000000 PUSH0 MSTORE PUSH1 0x41 PUSH1 0x4 MSTORE PUSH1 0x24 PUSH0 REVERT JUMPDEST PUSH2 0x1ECC DUP3 PUSH2 0x1E86 JUMP JUMPDEST DUP2 ADD DUP2 DUP2 LT PUSH8 0xFFFFFFFFFFFFFFFF DUP3 GT OR ISZERO PUSH2 0x1EEB JUMPI PUSH2 0x1EEA PUSH2 0x1E96 JUMP JUMPDEST JUMPDEST DUP1 PUSH1 0x40 MSTORE POP POP POP JUMP JUMPDEST PUSH0 PUSH2 0x1EFD PUSH2 0x1E0F JUMP JUMPDEST SWAP1 POP PUSH2 0x1F09 DUP3 DUP3 PUSH2 0x1EC3 JUMP JUMPDEST SWAP2 SWAP1 POP JUMP JUMPDEST PUSH0 PUSH8 0xFFFFFFFFFFFFFFFF DUP3 GT ISZERO PUSH2 0x1F28 JUMPI PUSH2 0x1F27 PUSH2 0x1E96 JUMP JUMPDEST JUMPDEST PUSH2 0x1F31 DUP3 PUSH2 0x1E86 JUMP JUMPDEST SWAP1 POP PUSH1 0x20 DUP2 ADD SWAP1 POP SWAP2 SWAP1 POP JUMP JUMPDEST DUP3 DUP2 DUP4 CALLDATACOPY PUSH0 DUP4 DUP4 ADD MSTORE POP POP POP JUMP JUMPDEST PUSH0 PUSH2 0x1F5E PUSH2 0x1F59 DUP5 PUSH2 0x1F0E JUMP JUMPDEST PUSH2 0x1EF4 JUMP JUMPDEST SWAP1 POP DUP3 DUP2 MSTORE PUSH1 0x20 DUP2 ADD DUP5 DUP5 DUP5 ADD GT ISZERO PUSH2 0x1F7A JUMPI PUSH2 0x1F79 PUSH2 0x1E82 JUMP JUMPDEST JUMPDEST PUSH2 0x1F85 DUP5 DUP3 DUP6 PUSH2 0x1F3E JUMP JUMPDEST POP SWAP4 SWAP3 POP POP POP JUMP JUMPDEST PUSH0 DUP3 PUSH1 0x1F DUP4 ADD SLT PUSH2 0x1FA1 JUMPI PUSH2 0x1FA0 PUSH2 0x1E7E JUMP JUMPDEST JUMPDEST DUP2 CALLDATALOAD PUSH2 0x1FB1 DUP5 DUP3 PUSH1 0x20 DUP7 ADD PUSH2 0x1F4C JUMP JUMPDEST SWAP2 POP POP SWAP3 SWAP2 POP POP JUMP JUMPDEST PUSH0 DUP1 PUSH0 DUP1 PUSH1 0x80 DUP6 DUP8 SUB SLT ISZERO PUSH2 0x1FD2 JUMPI PUSH2 0x1FD1 PUSH2 0x1E18 JUMP JUMPDEST JUMPDEST PUSH0 PUSH2 0x1FDF DUP8 DUP3 DUP9 ADD PUSH2 0x1E3F JUMP JUMPDEST SWAP5 POP POP PUSH1 0x20 PUSH2 0x1FF0 DUP8 DUP3 DUP9 ADD PUSH2 0x1E3F JUMP JUMPDEST SWAP4 POP POP PUSH1 0x40 DUP6 ADD CALLDATALOAD PUSH8 0xFFFFFFFFFFFFFFFF DUP2 GT ISZERO PUSH2 0x2011 JUMPI PUSH2 0x2010 PUSH2 0x1E1C JUMP JUMPDEST JUMPDEST PUSH2 0x201D DUP8 DUP3 DUP9 ADD PUSH2 0x1F8D JUMP JUMPDEST SWAP3 POP POP PUSH1 0x60 DUP6 ADD CALLDATALOAD PUSH8 0xFFFFFFFFFFFFFFFF DUP2 GT ISZERO PUSH2 0x203E JUMPI PUSH2 0x203D PUSH2 0x1E1C JUMP JUMPDEST JUMPDEST PUSH2 0x204A DUP8 DUP3 DUP9 ADD PUSH2 0x1F8D JUMP JUMPDEST SWAP2 POP POP SWAP3 SWAP6 SWAP2 SWAP5 POP SWAP3 POP JUMP JUMPDEST PUSH0 DUP1 PUSH0 PUSH1 0x60 DUP5 DUP7 SUB SLT ISZERO PUSH2 0x206D JUMPI PUSH2 0x206C PUSH2 0x1E18 JUMP JUMPDEST JUMPDEST PUSH0 PUSH2 0x207A DUP7 DUP3 DUP8 ADD PUSH2 0x1E3F JUMP JUMPDEST SWAP4 POP POP PUSH1 0x20 DUP5 ADD CALLDATALOAD PUSH8 0xFFFFFFFFFFFFFFFF DUP2 GT ISZERO PUSH2 0x209B JUMPI PUSH2 0x209A PUSH2 0x1E1C JUMP JUMPDEST JUMPDEST PUSH2 0x20A7 DUP7 DUP3 DUP8 ADD PUSH2 0x1F8D JUMP JUMPDEST SWAP3 POP POP PUSH1 0x40 DUP5 ADD CALLDATALOAD PUSH8 0xFFFFFFFFFFFFFFFF DUP2 GT ISZERO PUSH2 0x20C8 JUMPI PUSH2 0x20C7 PUSH2 0x1E1C JUMP JUMPDEST JUMPDEST PUSH2 0x20D4 DUP7 DUP3 DUP8 ADD PUSH2 0x1F8D JUMP JUMPDEST SWAP2 POP POP SWAP3 POP SWAP3 POP SWAP3 JUMP JUMPDEST PUSH0 DUP1 PUSH1 0x40 DUP4 DUP6 SUB SLT ISZERO PUSH2 0x20F4 JUMPI PUSH2 0x20F3 PUSH2 0x1E18 JUMP JUMPDEST JUMPDEST PUSH0 PUSH2 0x2101 DUP6 DUP3 DUP7 ADD PUSH2 0x1E3F JUMP JUMPDEST SWAP3 POP POP PUSH1 0x20 PUSH2 0x2112 DUP6 DUP3 DUP7 ADD PUSH2 0x1E3F JUMP JUMPDEST SWAP2 POP POP SWAP3 POP SWAP3 SWAP1 POP JUMP JUMPDEST PUSH2 0x2125 DUP2 PUSH2 0x1E20 JUMP JUMPDEST DUP3 MSTORE POP POP JUMP JUMPDEST PUSH0 DUP2 MLOAD SWAP1 POP SWAP2 SWAP1 POP JUMP JUMPDEST PUSH0 DUP3 DUP3 MSTORE PUSH1 0x20 DUP3 ADD SWAP1 POP SWAP3 SWAP2 POP POP JUMP JUMPDEST PUSH0 JUMPDEST DUP4 DUP2 LT ISZERO PUSH2 0x2162 JUMPI DUP1 DUP3 ADD MLOAD DUP2 DUP5 ADD MSTORE PUSH1 0x20 DUP2 ADD SWAP1 POP PUSH2 0x2147 JUMP JUMPDEST PUSH0 DUP5 DUP5 ADD MSTORE POP POP POP POP JUMP JUMPDEST PUSH0 PUSH2 0x2177 DUP3 PUSH2 0x212B JUMP JUMPDEST PUSH2 0x2181 DUP2 DUP6 PUSH2 0x2135 JUMP JUMPDEST SWAP4 POP PUSH2 0x2191 DUP2 DUP6 PUSH1 0x20 DUP7 ADD PUSH2 0x2145 JUMP JUMPDEST PUSH2 0x219A DUP2 PUSH2 0x1E86 JUMP JUMPDEST DUP5 ADD SWAP2 POP POP SWAP3 SWAP2 POP POP JUMP JUMPDEST PUSH0 DUP2 ISZERO ISZERO SWAP1 POP SWAP2 SWAP1 POP JUMP JUMPDEST PUSH2 0x21B9 DUP2 PUSH2 0x21A5 JUMP JUMPDEST DUP3 MSTORE POP POP JUMP JUMPDEST PUSH0 PUSH1 0x80 DUP4 ADD PUSH0 DUP4 ADD MLOAD PUSH2 0x21D4 PUSH0 DUP7 ADD DUP3 PUSH2 0x211C JUMP JUMPDEST POP PUSH1 0x20 DUP4 ADD MLOAD DUP5 DUP3 SUB PUSH1 0x20 DUP7 ADD MSTORE PUSH2 0x21EC DUP3 DUP3 PUSH2 0x216D JUMP JUMPDEST SWAP2 POP POP PUSH1 0x40 DUP4 ADD MLOAD PUSH2 0x2201 PUSH1 0x40 DUP7 ADD DUP3 PUSH2 0x21B0 JUMP JUMPDEST POP PUSH1 0x60 DUP4 ADD MLOAD DUP5 DUP3 SUB PUSH1 0x60 DUP7 ADD MSTORE PUSH2 0x2219 DUP3 DUP3 PUSH2 0x216D JUMP JUMPDEST SWAP2 POP POP DUP1 SWAP2 POP POP SWAP3 SWAP2 POP POP JUMP JUMPDEST PUSH0 PUSH1 0x20 DUP3 ADD SWAP1 POP DUP2 DUP2 SUB PUSH0 DUP4 ADD MSTORE PUSH2 0x223E DUP2 DUP5 PUSH2 0x21BF JUMP JUMPDEST SWAP1 POP SWAP3 SWAP2 POP POP JUMP JUMPDEST PUSH2 0x224F DUP2 PUSH2 0x1E20 JUMP JUMPDEST DUP3 MSTORE POP POP JUMP JUMPDEST PUSH0 DUP3 DUP3 MSTORE PUSH1 0x20 DUP3 ADD SWAP1 POP SWAP3 SWAP2 POP POP JUMP JUMPDEST PUSH0 PUSH2 0x226F DUP3 PUSH2 0x212B JUMP JUMPDEST PUSH2 0x2279 DUP2 DUP6 PUSH2 0x2255 JUMP JUMPDEST SWAP4 POP PUSH2 0x2289 DUP2 DUP6 PUSH1 0x20 DUP7 ADD PUSH2 0x2145 JUMP JUMPDEST PUSH2 0x2292 DUP2 PUSH2 0x1E86 JUMP JUMPDEST DUP5 ADD SWAP2 POP POP SWAP3 SWAP2 POP POP JUMP JUMPDEST PUSH2 0x22A6 DUP2 PUSH2 0x21A5 JUMP JUMPDEST DUP3 MSTORE POP POP JUMP JUMPDEST PUSH0 PUSH1 0xC0 DUP3 ADD SWAP1 POP PUSH2 0x22BF PUSH0 DUP4 ADD DUP10 PUSH2 0x2246 JUMP JUMPDEST DUP2 DUP2 SUB PUSH1 0x20 DUP4 ADD MSTORE PUSH2 0x22D1 DUP2 DUP9 PUSH2 0x2265 JUMP JUMPDEST SWAP1 POP PUSH2 0x22E0 PUSH1 0x40 DUP4 ADD DUP8 PUSH2 0x2246 JUMP JUMPDEST PUSH2 0x22ED PUSH1 0x60 DUP4 ADD DUP7 PUSH2 0x2246 JUMP JUMPDEST PUSH2 0x22FA PUSH1 0x80 DUP4 ADD DUP6 PUSH2 0x229D JUMP JUMPDEST DUP2 DUP2 SUB PUSH1 0xA0 DUP4 ADD MSTORE PUSH2 0x230C DUP2 DUP5 PUSH2 0x2265 JUMP JUMPDEST SWAP1 POP SWAP8 SWAP7 POP POP POP POP POP POP POP JUMP JUMPDEST PUSH0 PUSH20 0xFFFFFFFFFFFFFFFFFFFFFFFFFFFFFFFFFFFFFFFF DUP3 AND SWAP1 POP SWAP2 SWAP1 POP JUMP JUMPDEST PUSH0 PUSH2 0x2342 DUP3 PUSH2 0x2319 JUMP JUMPDEST SWAP1 POP SWAP2 SWAP1 POP JUMP JUMPDEST PUSH2 0x2352 DUP2 PUSH2 0x2338 JUMP JUMPDEST DUP3 MSTORE POP POP JUMP JUMPDEST PUSH0 PUSH1 0x20 DUP3 ADD SWAP1 POP PUSH2 0x236B PUSH0 DUP4 ADD DUP5 PUSH2 0x2349 JUMP JUMPDEST SWAP3 SWAP2 POP POP JUMP JUMPDEST PUSH0 PUSH1 0x80 DUP3 ADD SWAP1 POP PUSH2 0x2384 PUSH0 DUP4 ADD DUP8 PUSH2 0x2246 JUMP JUMPDEST DUP2 DUP2 SUB PUSH1 0x20 DUP4 ADD MSTORE PUSH2 0x2396 DUP2 DUP7 PUSH2 0x2265 JUMP JUMPDEST SWAP1 POP PUSH2 0x23A5 PUSH1 0x40 DUP4 ADD DUP6 PUSH2 0x229D JUMP JUMPDEST DUP2 DUP2 SUB PUSH1 0x60 DUP4 ADD MSTORE PUSH2 0x23B7 DUP2 DUP5 PUSH2 0x2265 JUMP JUMPDEST SWAP1 POP SWAP6 SWAP5 POP POP POP POP POP JUMP JUMPDEST PUSH0 PUSH1 0x80 DUP4 ADD PUSH0 DUP4 ADD MLOAD PUSH2 0x23D7 PUSH0 DUP7 ADD DUP3 PUSH2 0x211C JUMP JUMPDEST POP PUSH1 0x20 DUP4 ADD MLOAD DUP5 DUP3 SUB PUSH1 0x20 DUP7 ADD MSTORE PUSH2 0x23EF DUP3 DUP3 PUSH2 0x216D JUMP JUMPDEST SWAP2 POP POP PUSH1 0x40 DUP4 ADD MLOAD PUSH2 0x2404 PUSH1 0x40 DUP7 ADD DUP3 PUSH2 0x21B0 JUMP JUMPDEST POP PUSH1 0x60 DUP4 ADD MLOAD DUP5 DUP3 SUB PUSH1 0x60 DUP7 ADD MSTORE PUSH2 0x241C DUP3 DUP3 PUSH2 0x216D JUMP JUMPDEST SWAP2 POP POP DUP1 SWAP2 POP POP SWAP3 SWAP2 POP POP JUMP JUMPDEST PUSH0 PUSH1 0x20 DUP3 ADD SWAP1 POP DUP2 DUP2 SUB PUSH0 DUP4 ADD MSTORE PUSH2 0x2441 DUP2 DUP5 PUSH2 0x23C2 JUMP JUMPDEST SWAP1 POP SWAP3 SWAP2 POP POP JUMP JUMPDEST PUSH0 PUSH1 0xC0 DUP4 ADD PUSH0 DUP4 ADD MLOAD PUSH2 0x245E PUSH0 DUP7 ADD DUP3 PUSH2 0x211C JUMP JUMPDEST POP PUSH1 0x20 DUP4 ADD MLOAD DUP5 DUP3 SUB PUSH1 0x20 DUP7 ADD MSTORE PUSH2 0x2476 DUP3 DUP3 PUSH2 0x216D JUMP JUMPDEST SWAP2 POP POP PUSH1 0x40 DUP4 ADD MLOAD PUSH2 0x248B PUSH1 0x40 DUP7 ADD DUP3 PUSH2 0x211C JUMP JUMPDEST POP PUSH1 0x60 DUP4 ADD MLOAD PUSH2 0x249E PUSH1 0x60 DUP7 ADD DUP3 PUSH2 0x211C JUMP JUMPDEST POP PUSH1 0x80 DUP4 ADD MLOAD PUSH2 0x24B1 PUSH1 0x80 DUP7 ADD DUP3 PUSH2 0x21B0 JUMP JUMPDEST POP PUSH1 0xA0 DUP4 ADD MLOAD DUP5 DUP3 SUB PUSH1 0xA0 DUP7 ADD MSTORE PUSH2 0x24C9 DUP3 DUP3 PUSH2 0x216D JUMP JUMPDEST SWAP2 POP POP DUP1 SWAP2 POP POP SWAP3 SWAP2 POP POP JUMP JUMPDEST PUSH0 PUSH1 0x20 DUP3 ADD SWAP1 POP DUP2 DUP2 SUB PUSH0 DUP4 ADD MSTORE PUSH2 0x24EE DUP2 DUP5 PUSH2 0x2449 JUMP JUMPDEST SWAP1 POP SWAP3 SWAP2 POP POP JUMP JUMPDEST PUSH0 PUSH1 0x80 DUP4 ADD PUSH0 DUP4 ADD MLOAD PUSH2 0x250B PUSH0 DUP7 ADD DUP3 PUSH2 0x211C JUMP JUMPDEST POP PUSH1 0x20 DUP4 ADD MLOAD DUP5 DUP3 SUB PUSH1 0x20 DUP7 ADD MSTORE PUSH2 0x2523 DUP3 DUP3 PUSH2 0x216D JUMP JUMPDEST SWAP2 POP POP PUSH1 0x40 DUP4 ADD MLOAD PUSH2 0x2538 PUSH1 0x40 DUP7 ADD DUP3 PUSH2 0x21B0 JUMP JUMPDEST POP PUSH1 0x60 DUP4 ADD MLOAD DUP5 DUP3 SUB PUSH1 0x60 DUP7 ADD MSTORE PUSH2 0x2550 DUP3 DUP3 PUSH2 0x216D JUMP JUMPDEST SWAP2 POP POP DUP1 SWAP2 POP POP SWAP3 SWAP2 POP POP JUMP JUMPDEST PUSH0 PUSH1 0x20 DUP3 ADD SWAP1 POP DUP2 DUP2 SUB PUSH0 DUP4 ADD MSTORE PUSH2 0x2575 DUP2 DUP5 PUSH2 0x24F6 JUMP JUMPDEST SWAP1 POP SWAP3 SWAP2 POP POP JUMP JUMPDEST PUSH0 DUP1 PUSH0 DUP1 PUSH0 PUSH1 0xA0 DUP7 DUP9 SUB SLT ISZERO PUSH2 0x2596 JUMPI PUSH2 0x2595 PUSH2 0x1E18 JUMP JUMPDEST JUMPDEST PUSH0 PUSH2 0x25A3 DUP9 DUP3 DUP10 ADD PUSH2 0x1E3F JUMP JUMPDEST SWAP6 POP POP PUSH1 0x20 DUP7 ADD CALLDATALOAD PUSH8 0xFFFFFFFFFFFFFFFF DUP2 GT ISZERO PUSH2 0x25C4 JUMPI PUSH2 0x25C3 PUSH2 0x1E1C JUMP JUMPDEST JUMPDEST PUSH2 0x25D0 DUP9 DUP3 DUP10 ADD PUSH2 0x1F8D JUMP JUMPDEST SWAP5 POP POP PUSH1 0x40 PUSH2 0x25E1 DUP9 DUP3 DUP10 ADD PUSH2 0x1E3F JUMP JUMPDEST SWAP4 POP POP PUSH1 0x60 PUSH2 0x25F2 DUP9 DUP3 DUP10 ADD PUSH2 0x1E3F JUMP JUMPDEST SWAP3 POP POP PUSH1 0x80 DUP7 ADD CALLDATALOAD PUSH8 0xFFFFFFFFFFFFFFFF DUP2 GT ISZERO PUSH2 0x2613 JUMPI PUSH2 0x2612 PUSH2 0x1E1C JUMP JUMPDEST JUMPDEST PUSH2 0x261F DUP9 DUP3 DUP10 ADD PUSH2 0x1F8D JUMP JUMPDEST SWAP2 POP POP SWAP3 SWAP6 POP SWAP3 SWAP6 SWAP1 SWAP4 POP JUMP JUMPDEST PUSH32 0x4F6E6C7920636F6E7472616374206F776E65722063616E20706572666F726D20 PUSH0 DUP3 ADD MSTORE PUSH32 0x74686973206F7065726174696F6E000000000000000000000000000000000000 PUSH1 0x20 DUP3 ADD MSTORE POP JUMP JUMPDEST PUSH0 PUSH2 0x2686 PUSH1 0x2E DUP4 PUSH2 0x2255 JUMP JUMPDEST SWAP2 POP PUSH2 0x2691 DUP3 PUSH2 0x262C JUMP JUMPDEST PUSH1 0x40 DUP3 ADD SWAP1 POP SWAP2 SWAP1 POP JUMP JUMPDEST PUSH0 PUSH1 0x20 DUP3 ADD SWAP1 POP DUP2 DUP2 SUB PUSH0 DUP4 ADD MSTORE PUSH2 0x26B3 DUP2 PUSH2 0x267A JUMP JUMPDEST SWAP1 POP SWAP2 SWAP1 POP JUMP JUMPDEST PUSH32 0x4D616E75666163747572657220646F6573206E6F74206578697374206F722069 PUSH0 DUP3 ADD MSTORE PUSH32 0x7320616C72656164792064656C65746564000000000000000000000000000000 PUSH1 0x20 DUP3 ADD MSTORE POP JUMP JUMPDEST PUSH0 PUSH2 0x2714 PUSH1 0x31 DUP4 PUSH2 0x2255 JUMP JUMPDEST SWAP2 POP PUSH2 0x271F DUP3 PUSH2 0x26BA JUMP JUMPDEST PUSH1 0x40 DUP3 ADD SWAP1 POP SWAP2 SWAP1 POP JUMP JUMPDEST PUSH0 PUSH1 0x20 DUP3 ADD SWAP1 POP DUP2 DUP2 SUB PUSH0 DUP4 ADD MSTORE PUSH2 0x2741 DUP2 PUSH2 0x2708 JUMP JUMPDEST SWAP1 POP SWAP2 SWAP1 POP JUMP JUMPDEST PUSH32 0x537570706C69657220646F6573206E6F74206578697374206F7220697320616C PUSH0 DUP3 ADD MSTORE PUSH32 0x72656164792064656C6574656400000000000000000000000000000000000000 PUSH1 0x20 DUP3 ADD MSTORE POP JUMP JUMPDEST PUSH0 PUSH2 0x27A2 PUSH1 0x2D DUP4 PUSH2 0x2255 JUMP JUMPDEST SWAP2 POP PUSH2 0x27AD DUP3 PUSH2 0x2748 JUMP JUMPDEST PUSH1 0x40 DUP3 ADD SWAP1 POP SWAP2 SWAP1 POP JUMP JUMPDEST PUSH0 PUSH1 0x20 DUP3 ADD SWAP1 POP DUP2 DUP2 SUB PUSH0 DUP4 ADD MSTORE PUSH2 0x27CF DUP2 PUSH2 0x2796 JUMP JUMPDEST SWAP1 POP SWAP2 SWAP1 POP JUMP JUMPDEST PUSH32 0x50726F6475637420646F6573206E6F74206578697374206F722069732064656C PUSH0 DUP3 ADD MSTORE PUSH32 0x6574656400000000000000000000000000000000000000000000000000000000 PUSH1 0x20 DUP3 ADD MSTORE POP JUMP JUMPDEST PUSH0 PUSH2 0x2830 PUSH1 0x24 DUP4 PUSH2 0x2255 JUMP JUMPDEST SWAP2 POP PUSH2 0x283B DUP3 PUSH2 0x27D6 JUMP JUMPDEST PUSH1 0x40 DUP3 ADD SWAP1 POP SWAP2 SWAP1 POP JUMP JUMPDEST PUSH0 PUSH1 0x20 DUP3 ADD SWAP1 POP DUP2 DUP2 SUB PUSH0 DUP4 ADD MSTORE PUSH2 0x285D DUP2 PUSH2 0x2824 JUMP JUMPDEST SWAP1 POP SWAP2 SWAP1 POP JUMP JUMPDEST PUSH32 0x5472616E73616374696F6E20646F6573206E6F74206578697374206F72206973 PUSH0 DUP3 ADD MSTORE PUSH32 0x2064656C65746564000000000000000000000000000000000000000000000000 PUSH1 0x20 DUP3 ADD MSTORE POP JUMP JUMPDEST PUSH0 PUSH2 0x28BE PUSH1 0x28 DUP4 PUSH2 0x2255 JUMP JUMPDEST SWAP2 POP PUSH2 0x28C9 DUP3 PUSH2 0x2864 JUMP JUMPDEST PUSH1 0x40 DUP3 ADD SWAP1 POP SWAP2 SWAP1 POP JUMP JUMPDEST PUSH0 PUSH1 0x20 DUP3 ADD SWAP1 POP DUP2 DUP2 SUB PUSH0 DUP4 ADD MSTORE PUSH2 0x28EB DUP2 PUSH2 0x28B2 JUMP JUMPDEST SWAP1 POP SWAP2 SWAP1 POP JUMP JUMPDEST PUSH32 0x4E487B7100000000000000000000000000000000000000000000000000000000 PUSH0 MSTORE PUSH1 0x22 PUSH1 0x4 MSTORE PUSH1 0x24 PUSH0 REVERT JUMPDEST PUSH0 PUSH1 0x2 DUP3 DIV SWAP1 POP PUSH1 0x1 DUP3 AND DUP1 PUSH2 0x2936 JUMPI PUSH1 0x7F DUP3 AND SWAP2 POP JUMPDEST PUSH1 0x20 DUP3 LT DUP2 SUB PUSH2 0x2949 JUMPI PUSH2 0x2948 PUSH2 0x28F2 JUMP JUMPDEST JUMPDEST POP SWAP2 SWAP1 POP JUMP JUMPDEST PUSH0 DUP2 SWAP1 POP DUP2 PUSH0 MSTORE PUSH1 0x20 PUSH0 KECCAK256 SWAP1 POP SWAP2 SWAP1 POP JUMP JUMPDEST PUSH0 PUSH1 0x20 PUSH1 0x1F DUP4 ADD DIV SWAP1 POP SWAP2 SWAP1 POP JUMP JUMPDEST PUSH0 DUP3 DUP3 SHL SWAP1 POP SWAP3 SWAP2 POP POP JUMP JUMPDEST PUSH0 PUSH1 0x8 DUP4 MUL PUSH2 0x29AB PUSH32 0xFFFFFFFFFFFFFFFFFFFFFFFFFFFFFFFFFFFFFFFFFFFFFFFFFFFFFFFFFFFFFFFF DUP3 PUSH2 0x2970 JUMP JUMPDEST PUSH2 0x29B5 DUP7 DUP4 PUSH2 0x2970 JUMP JUMPDEST SWAP6 POP DUP1 NOT DUP5 AND SWAP4 POP DUP1 DUP7 AND DUP5 OR SWAP3 POP POP POP SWAP4 SWAP3 POP POP POP JUMP JUMPDEST PUSH0 DUP2 SWAP1 POP SWAP2 SWAP1 POP JUMP JUMPDEST PUSH0 PUSH2 0x29F0 PUSH2 0x29EB PUSH2 0x29E6 DUP5 PUSH2 0x1E20 JUMP JUMPDEST PUSH2 0x29CD JUMP JUMPDEST PUSH2 0x1E20 JUMP JUMPDEST SWAP1 POP SWAP2 SWAP1 POP JUMP JUMPDEST PUSH0 DUP2 SWAP1 POP SWAP2 SWAP1 POP JUMP JUMPDEST PUSH2 0x2A09 DUP4 PUSH2 0x29D6 JUMP JUMPDEST PUSH2 0x2A1D PUSH2 0x2A15 DUP3 PUSH2 0x29F7 JUMP JUMPDEST DUP5 DUP5 SLOAD PUSH2 0x297C JUMP JUMPDEST DUP3 SSTORE POP POP POP POP JUMP JUMPDEST PUSH0 SWAP1 JUMP JUMPDEST PUSH2 0x2A31 PUSH2 0x2A25 JUMP JUMPDEST PUSH2 0x2A3C DUP2 DUP5 DUP5 PUSH2 0x2A00 JUMP JUMPDEST POP POP POP JUMP JUMPDEST JUMPDEST DUP2 DUP2 LT ISZERO PUSH2 0x2A5F JUMPI PUSH2 0x2A54 PUSH0 DUP3 PUSH2 0x2A29 JUMP JUMPDEST PUSH1 0x1 DUP2 ADD SWAP1 POP PUSH2 0x2A42 JUMP JUMPDEST POP POP JUMP JUMPDEST PUSH1 0x1F DUP3 GT ISZERO PUSH2 0x2AA4 JUMPI PUSH2 0x2A75 DUP2 PUSH2 0x294F JUMP JUMPDEST PUSH2 0x2A7E DUP5 PUSH2 0x2961 JUMP JUMPDEST DUP2 ADD PUSH1 0x20 DUP6 LT ISZERO PUSH2 0x2A8D JUMPI DUP2 SWAP1 POP JUMPDEST PUSH2 0x2AA1 PUSH2 0x2A99 DUP6 PUSH2 0x2961 JUMP JUMPDEST DUP4 ADD DUP3 PUSH2 0x2A41 JUMP JUMPDEST POP POP JUMPDEST POP POP POP JUMP JUMPDEST PUSH0 DUP3 DUP3 SHR SWAP1 POP SWAP3 SWAP2 POP POP JUMP JUMPDEST PUSH0 PUSH2 0x2AC4 PUSH0 NOT DUP5 PUSH1 0x8 MUL PUSH2 0x2AA9 JUMP JUMPDEST NOT DUP1 DUP4 AND SWAP2 POP POP SWAP3 SWAP2 POP POP JUMP JUMPDEST PUSH0 PUSH2 0x2ADC DUP4 DUP4 PUSH2 0x2AB5 JUMP JUMPDEST SWAP2 POP DUP3 PUSH1 0x2 MUL DUP3 OR SWAP1 POP SWAP3 SWAP2 POP POP JUMP JUMPDEST PUSH2 0x2AF5 DUP3 PUSH2 0x212B JUMP JUMPDEST PUSH8 0xFFFFFFFFFFFFFFFF DUP2 GT ISZERO PUSH2 0x2B0E JUMPI PUSH2 0x2B0D PUSH2 0x1E96 JUMP JUMPDEST JUMPDEST PUSH2 0x2B18 DUP3 SLOAD PUSH2 0x291F JUMP JUMPDEST PUSH2 0x2B23 DUP3 DUP3 DUP6 PUSH2 0x2A63 JUMP JUMPDEST PUSH0 PUSH1 0x20 SWAP1 POP PUSH1 0x1F DUP4 GT PUSH1 0x1 DUP2 EQ PUSH2 0x2B54 JUMPI PUSH0 DUP5 ISZERO PUSH2 0x2B42 JUMPI DUP3 DUP8 ADD MLOAD SWAP1 POP JUMPDEST PUSH2 0x2B4C DUP6 DUP3 PUSH2 0x2AD1 JUMP JUMPDEST DUP7 SSTORE POP PUSH2 0x2BB3 JUMP JUMPDEST PUSH1 0x1F NOT DUP5 AND PUSH2 0x2B62 DUP7 PUSH2 0x294F JUMP JUMPDEST PUSH0 JUMPDEST DUP3 DUP2 LT ISZERO PUSH2 0x2B89 JUMPI DUP5 DUP10 ADD MLOAD DUP3 SSTORE PUSH1 0x1 DUP3 ADD SWAP2 POP PUSH1 0x20 DUP6 ADD SWAP5 POP PUSH1 0x20 DUP2 ADD SWAP1 POP PUSH2 0x2B64 JUMP JUMPDEST DUP7 DUP4 LT ISZERO PUSH2 0x2BA6 JUMPI DUP5 DUP10 ADD MLOAD PUSH2 0x2BA2 PUSH1 0x1F DUP10 AND DUP3 PUSH2 0x2AB5 JUMP JUMPDEST DUP4 SSTORE POP JUMPDEST PUSH1 0x1 PUSH1 0x2 DUP9 MUL ADD DUP9 SSTORE POP POP POP JUMPDEST POP POP POP POP POP POP JUMP JUMPDEST PUSH32 0x4D616E75666163747572657220646F6573206E6F74206578697374206F722069 PUSH0 DUP3 ADD MSTORE PUSH32 0x732064656C657465640000000000000000000000000000000000000000000000 PUSH1 0x20 DUP3 ADD MSTORE POP JUMP JUMPDEST PUSH0 PUSH2 0x2C15 PUSH1 0x29 DUP4 PUSH2 0x2255 JUMP JUMPDEST SWAP2 POP PUSH2 0x2C20 DUP3 PUSH2 0x2BBB JUMP JUMPDEST PUSH1 0x40 DUP3 ADD SWAP1 POP SWAP2 SWAP1 POP JUMP JUMPDEST PUSH0 PUSH1 0x20 DUP3 ADD SWAP1 POP DUP2 DUP2 SUB PUSH0 DUP4 ADD MSTORE PUSH2 0x2C42 DUP2 PUSH2 0x2C09 JUMP JUMPDEST SWAP1 POP SWAP2 SWAP1 POP JUMP JUMPDEST PUSH32 0x537570706C69657220646F6573206E6F74206578697374206F72206973206465 PUSH0 DUP3 ADD MSTORE PUSH32 0x6C65746564000000000000000000000000000000000000000000000000000000 PUSH1 0x20 DUP3 ADD MSTORE POP JUMP JUMPDEST PUSH0 PUSH2 0x2CA3 PUSH1 0x25 DUP4 PUSH2 0x2255 JUMP JUMPDEST SWAP2 POP PUSH2 0x2CAE DUP3 PUSH2 0x2C49 JUMP JUMPDEST PUSH1 0x40 DUP3 ADD SWAP1 POP SWAP2 SWAP1 POP JUMP JUMPDEST PUSH0 PUSH1 0x20 DUP3 ADD SWAP1 POP DUP2 DUP2 SUB PUSH0 DUP4 ADD MSTORE PUSH2 0x2CD0 DUP2 PUSH2 0x2C97 JUMP JUMPDEST SWAP1 POP SWAP2 SWAP1 POP JUMP JUMPDEST PUSH32 0x50726F6475637420646F6573206E6F74206578697374206F7220697320616C72 PUSH0 DUP3 ADD MSTORE PUSH32 0x656164792064656C657465640000000000000000000000000000000000000000 PUSH1 0x20 DUP3 ADD MSTORE POP JUMP JUMPDEST PUSH0 PUSH2 0x2D31 PUSH1 0x2C DUP4 PUSH2 0x2255 JUMP JUMPDEST SWAP2 POP PUSH2 0x2D3C DUP3 PUSH2 0x2CD7 JUMP JUMPDEST PUSH1 0x40 DUP3 ADD SWAP1 POP SWAP2 SWAP1 POP JUMP JUMPDEST PUSH0 PUSH1 0x20 DUP3 ADD SWAP1 POP DUP2 DUP2 SUB PUSH0 DUP4 ADD MSTORE PUSH2 0x2D5E DUP2 PUSH2 0x2D25 JUMP JUMPDEST SWAP1 POP SWAP2 SWAP1 POP JUMP INVALID LOG2 PUSH5 0x6970667358 0x22 SLT KECCAK256 0xC7 DUP1 0xC4 CALLER SWAP2 PUSH15 0xFEC2BC0F339BCF21B6F54261C127B4 PUSH12 0xBFA7EDEA5D0904D3089B6473 PUSH16 0x6C634300081800330000000000000000 "
				},
				"gasEstimates": {
					"creation": {
						"codeDepositCost": "2335000",
						"executionCost": "26765",
						"totalCost": "2361765"
					},
					"external": {
						"addManufacturer(uint256,string,string)": "infinite",
						"addProduct(uint256,string,uint256,uint256,string)": "infinite",
						"addSupplier(uint256,string,string)": "infinite",
						"addTransaction(uint256,uint256,string,string)": "infinite",
						"deleteManufacturer(uint256)": "29176",
						"deleteProduct(uint256)": "29218",
						"deleteSupplier(uint256)": "29198",
						"deleteTransaction(uint256,uint256)": "infinite",
						"getManufacturer(uint256)": "infinite",
						"getProduct(uint256)": "infinite",
						"getSupplier(uint256)": "infinite",
						"getTransaction(uint256,uint256)": "infinite",
						"manufacturers(uint256)": "infinite",
						"owner()": "2594",
						"products(uint256)": "infinite",
						"suppliers(uint256)": "infinite",
						"updateManufacturer(uint256,string,string)": "infinite",
						"updateProduct(uint256,string,uint256,uint256,string)": "infinite",
						"updateSupplier(uint256,string,string)": "infinite",
						"updateTransaction(uint256,uint256,string,string)": "infinite"
					}
				},
				"methodIdentifiers": {
					"addManufacturer(uint256,string,string)": "8349a766",
					"addProduct(uint256,string,uint256,uint256,string)": "e61cffed",
					"addSupplier(uint256,string,string)": "fea9e20a",
					"addTransaction(uint256,uint256,string,string)": "2ba79998",
					"deleteManufacturer(uint256)": "05a1a54a",
					"deleteProduct(uint256)": "ed90c7b7",
					"deleteSupplier(uint256)": "05d3d366",
					"deleteTransaction(uint256,uint256)": "f8e61565",
					"getManufacturer(uint256)": "b527fb79",
					"getProduct(uint256)": "b9db15b4",
					"getSupplier(uint256)": "e0620e1d",
					"getTransaction(uint256,uint256)": "7303f6ce",
					"manufacturers(uint256)": "90175af1",
					"owner()": "8da5cb5b",
					"products(uint256)": "7acc0b20",
					"suppliers(uint256)": "cea23121",
					"updateManufacturer(uint256,string,string)": "524f3f4a",
					"updateProduct(uint256,string,uint256,uint256,string)": "e8d0aa01",
					"updateSupplier(uint256,string,string)": "ba9d1d31",
					"updateTransaction(uint256,uint256,string,string)": "2afad5f6"
				}
			},
			"storageLayout": {
				"storage": [
					{
						"astId": 4,
						"contract": "ProductContract.sol:ProductContract",
						"label": "owner",
						"offset": 0,
						"slot": "0",
						"type": "t_address"
					},
					{
						"astId": 61,
						"contract": "ProductContract.sol:ProductContract",
						"label": "products",
						"offset": 0,
						"slot": "1",
						"type": "t_mapping(t_uint256,t_struct(Product)29_storage)"
					},
					{
						"astId": 66,
						"contract": "ProductContract.sol:ProductContract",
						"label": "suppliers",
						"offset": 0,
						"slot": "2",
						"type": "t_mapping(t_uint256,t_struct(Supplier)38_storage)"
					},
					{
						"astId": 71,
						"contract": "ProductContract.sol:ProductContract",
						"label": "manufacturers",
						"offset": 0,
						"slot": "3",
						"type": "t_mapping(t_uint256,t_struct(Manufacturer)47_storage)"
					},
					{
						"astId": 78,
						"contract": "ProductContract.sol:ProductContract",
						"label": "productTransactions",
						"offset": 0,
						"slot": "4",
						"type": "t_mapping(t_uint256,t_mapping(t_uint256,t_struct(Transaction)56_storage))"
					}
				],
				"types": {
					"t_address": {
						"encoding": "inplace",
						"label": "address",
						"numberOfBytes": "20"
					},
					"t_bool": {
						"encoding": "inplace",
						"label": "bool",
						"numberOfBytes": "1"
					},
					"t_mapping(t_uint256,t_mapping(t_uint256,t_struct(Transaction)56_storage))": {
						"encoding": "mapping",
						"key": "t_uint256",
						"label": "mapping(uint256 => mapping(uint256 => struct ProductContract.Transaction))",
						"numberOfBytes": "32",
						"value": "t_mapping(t_uint256,t_struct(Transaction)56_storage)"
					},
					"t_mapping(t_uint256,t_struct(Manufacturer)47_storage)": {
						"encoding": "mapping",
						"key": "t_uint256",
						"label": "mapping(uint256 => struct ProductContract.Manufacturer)",
						"numberOfBytes": "32",
						"value": "t_struct(Manufacturer)47_storage"
					},
					"t_mapping(t_uint256,t_struct(Product)29_storage)": {
						"encoding": "mapping",
						"key": "t_uint256",
						"label": "mapping(uint256 => struct ProductContract.Product)",
						"numberOfBytes": "32",
						"value": "t_struct(Product)29_storage"
					},
					"t_mapping(t_uint256,t_struct(Supplier)38_storage)": {
						"encoding": "mapping",
						"key": "t_uint256",
						"label": "mapping(uint256 => struct ProductContract.Supplier)",
						"numberOfBytes": "32",
						"value": "t_struct(Supplier)38_storage"
					},
					"t_mapping(t_uint256,t_struct(Transaction)56_storage)": {
						"encoding": "mapping",
						"key": "t_uint256",
						"label": "mapping(uint256 => struct ProductContract.Transaction)",
						"numberOfBytes": "32",
						"value": "t_struct(Transaction)56_storage"
					},
					"t_string_storage": {
						"encoding": "bytes",
						"label": "string",
						"numberOfBytes": "32"
					},
					"t_struct(Manufacturer)47_storage": {
						"encoding": "inplace",
						"label": "struct ProductContract.Manufacturer",
						"members": [
							{
								"astId": 40,
								"contract": "ProductContract.sol:ProductContract",
								"label": "id",
								"offset": 0,
								"slot": "0",
								"type": "t_uint256"
							},
							{
								"astId": 42,
								"contract": "ProductContract.sol:ProductContract",
								"label": "name",
								"offset": 0,
								"slot": "1",
								"type": "t_string_storage"
							},
							{
								"astId": 44,
								"contract": "ProductContract.sol:ProductContract",
								"label": "is_deleted",
								"offset": 0,
								"slot": "2",
								"type": "t_bool"
							},
							{
								"astId": 46,
								"contract": "ProductContract.sol:ProductContract",
								"label": "hash",
								"offset": 0,
								"slot": "3",
								"type": "t_string_storage"
							}
						],
						"numberOfBytes": "128"
					},
					"t_struct(Product)29_storage": {
						"encoding": "inplace",
						"label": "struct ProductContract.Product",
						"members": [
							{
								"astId": 18,
								"contract": "ProductContract.sol:ProductContract",
								"label": "id",
								"offset": 0,
								"slot": "0",
								"type": "t_uint256"
							},
							{
								"astId": 20,
								"contract": "ProductContract.sol:ProductContract",
								"label": "name",
								"offset": 0,
								"slot": "1",
								"type": "t_string_storage"
							},
							{
								"astId": 22,
								"contract": "ProductContract.sol:ProductContract",
								"label": "manufacturer_id",
								"offset": 0,
								"slot": "2",
								"type": "t_uint256"
							},
							{
								"astId": 24,
								"contract": "ProductContract.sol:ProductContract",
								"label": "supplier_id",
								"offset": 0,
								"slot": "3",
								"type": "t_uint256"
							},
							{
								"astId": 26,
								"contract": "ProductContract.sol:ProductContract",
								"label": "is_deleted",
								"offset": 0,
								"slot": "4",
								"type": "t_bool"
							},
							{
								"astId": 28,
								"contract": "ProductContract.sol:ProductContract",
								"label": "hash",
								"offset": 0,
								"slot": "5",
								"type": "t_string_storage"
							}
						],
						"numberOfBytes": "192"
					},
					"t_struct(Supplier)38_storage": {
						"encoding": "inplace",
						"label": "struct ProductContract.Supplier",
						"members": [
							{
								"astId": 31,
								"contract": "ProductContract.sol:ProductContract",
								"label": "id",
								"offset": 0,
								"slot": "0",
								"type": "t_uint256"
							},
							{
								"astId": 33,
								"contract": "ProductContract.sol:ProductContract",
								"label": "name",
								"offset": 0,
								"slot": "1",
								"type": "t_string_storage"
							},
							{
								"astId": 35,
								"contract": "ProductContract.sol:ProductContract",
								"label": "is_deleted",
								"offset": 0,
								"slot": "2",
								"type": "t_bool"
							},
							{
								"astId": 37,
								"contract": "ProductContract.sol:ProductContract",
								"label": "hash",
								"offset": 0,
								"slot": "3",
								"type": "t_string_storage"
							}
						],
						"numberOfBytes": "128"
					},
					"t_struct(Transaction)56_storage": {
						"encoding": "inplace",
						"label": "struct ProductContract.Transaction",
						"members": [
							{
								"astId": 49,
								"contract": "ProductContract.sol:ProductContract",
								"label": "id",
								"offset": 0,
								"slot": "0",
								"type": "t_uint256"
							},
							{
								"astId": 51,
								"contract": "ProductContract.sol:ProductContract",
								"label": "transaction_type",
								"offset": 0,
								"slot": "1",
								"type": "t_string_storage"
							},
							{
								"astId": 53,
								"contract": "ProductContract.sol:ProductContract",
								"label": "is_deleted",
								"offset": 0,
								"slot": "2",
								"type": "t_bool"
							},
							{
								"astId": 55,
								"contract": "ProductContract.sol:ProductContract",
								"label": "hash",
								"offset": 0,
								"slot": "3",
								"type": "t_string_storage"
							}
						],
						"numberOfBytes": "128"
					},
					"t_uint256": {
						"encoding": "inplace",
						"label": "uint256",
						"numberOfBytes": "32"
					}
				}
			},
			"userdoc": {
				"kind": "user",
				"methods": {},
				"version": 1
			}
		}
	}
}